:020000040000FA
:10000000B0310020150400001D0400001F04000092
:10001000210400002304000025040000000000006B
:1000200000000000000000000000000027040000A5
:1000300029040000000000002B0400002D04000033
:100040002F0400002F0400006D0C0000C109000007
:100050002F0400002F0400002F0400002F040000D4
:100060002F0400002F0400002F0400002F040000C4
:100070002F0400002F0400002F0400002F040000B4
:100080002F0400002F0400002F0400002F040000A4
:100090002F0400002F0400002F0400002F04000094
:1000A0002F0400002F0400002F0400002F04000084
:1000B0002F0400002F0400000000000000000000DA
:1000C0002F0400002F0400002F0400002F04000064
:1000D0002F0400002F0400002F0400000000000087
:1000E0000000000000000000000000000000000010
:1000F0000000000000000000000000000000000000
:1001000000000000000000000000000000000000EF
:1001100000000000000000000000000000000000DF
:10040000DFF80CD000F098FA00480047D919000036
:10041000B03100200648804706480047FEE7FEE767
:10042000FEE7FEE7FEE7FEE7FEE7FEE7FEE7FEE7A4
:10043000D10900000104000040EA01039B0703D03A
:1004400009E008C9121F08C0042AFAD203E011F813
:10045000013B00F8013B521EF9D270472DE9FE4FD7
:1004600081EA030404F0004421F0004100944FF0BD
:10047000000B23F0004350EA01045ED052EA03046B
:100480005BD0C3F30A54C1F30A552C44A4F2F334ED
:100490000194A0FB0254C1F3130141F48011C3F392
:1004A000130343F4801301FB024400FB034E840A50
:1004B000970A44EA815447EA8357A4FB07680295E8
:1004C0008D0A05FB07854FEA932C04FB0C54270586
:1004D000029D4FEA065847EA1637B5EB08056EEB62
:1004E000070C870E920E47EA811742EA8312A7FB98
:1004F0000201B6EB0B0164EB00042B0D43EA0C3355
:100500005E1844EB1C50DA465146E7FB0201C5F386
:1005100013044FEA0B3343EA14534FEA0432019CAD
:1005200043EA0603A4F10C040294009CCDE900B454
:1005300000F06DF803B0BDE8F08F00200146F9E748
:100540000EB5C10F80EAE0700844CA07002140F2EE
:1005500033438DE80E000A460B4600F058F803B00E
:1005600000BD30B50B46014600202022012409E0E1
:1005700021FA02F59D4205D303FA02F5491B04FA5C
:1005800002F52844151EA2F10102F1DC30BD2DE96F
:10059000F05F0546002092469B4688460646814607
:1005A00040241BE0284641464746224600F0E5F934
:1005B00053465A46C01A914110D311461846224656
:1005C00000F0CCF92D1A67EB01084F4622460120B6
:1005D000002100F0C3F917EB00094E41201EA4F1E1
:1005E0000104DFDC484631462A464346BDE8F09F19
:1005F00010B5141E73F1000408DA401C41F100012B
:1006000092185B411A4301D120F0010010BD2DE981
:10061000F04D92469B4611B1B1FA81F202E0B0FA78
:1006200080F22032904600F099F904460F4640EAE5
:100630000A0041EA0B0153465A46084313D01146BB
:1006400053EA010019D0C8F14002504600F095F974
:1006500005460E4650465946424600F07FF908438B
:1006600005D0012004E020463946BDE8F08D002089
:10067000054346EAE0762C4337430A986305E40ACB
:10068000A0EB08000022FD0A44EA47540A3002D5D4
:1006900000200146E9E7010510196941DDE9084537
:1006A00000196941BDE8F04DA2E72DE9FE4F8046F3
:1006B00081EA0300C00F0C46009021F0004123F0B6
:1006C0000045B8EB0200A94105D2404621469046BC
:1006D0001C460B46024623F00040104347D0270D2E
:1006E000C7F30A00C3F30A510290401A0190402850
:1006F0006BDAC3F3130040F4801B0098924620B1DC
:100700000023D2EB030A63EB0B0B01985946C0F1AF
:100710004002504600F022F906460D465046594622
:10072000019A00F03AF910EB08006141002487EAD1
:10073000115284EAE7731A4340D0009A62B3019AD7
:10074000012A4FEA075215DC001B61EB02014FF052
:10075000004202EA0752CDE90042001C41F5801137
:1007600032462B46FFF753FF03B0BDE8F08F4046FB
:100770002146F9E7001B61EB0201001C41F58013E3
:1007800000185B412018A2F5001747EB030140EA6F
:10079000D570B6196D4111E06D084FEA360645EA8D
:1007A000C0754FEA0752001B61EB0201001C41F5C6
:1007B000801149084FEA30000019514132462B465A
:1007C00003B0BDE8F04FFFF713BF009801224000CF
:1007D0000023D0EB020263EBE073009821464FEA5E
:1007E000E074B8EB000061EB0401E9E783F000433B
:1007F0005BE781F0004158E72DE9F04D81EA030401
:1008000004F0004B21F0004514464FF0000A23F09D
:10081000004150EA050220D054EA01021DD0C5F380
:100820000A570246C5F31303C1F31300C1F30A5676
:1008300040F4801543F48013A7EB0608101BD6463E
:1008400008F2FD3873EB050002D308F1010801E05E
:1008500092185B41B8F1000F03DA00200146BDE8B1
:10086000F08D00204FF48011064684460EE0171BE1
:1008700073EB050705D3121B63EB050306434CEA34
:10088000010C49084FEA300092185B4150EA010719
:10089000EDD152EA030012D082EA040083EA050196
:1008A000084305D0101BAB4106D20122002306E00D
:1008B00000224FF0004302E06FF0010253101AEBE8
:1008C00006004CEB085110EB0A0041EB0B01BDE8B0
:1008D000F04DFFF78DBEC1F30A52C1F3130140F290
:1008E000FF3341F480119A4202DA0020014670473A
:1008F00040F233439A42A2F2334202DC524200F009
:100900003CB800F02BB8000030B5041E71F10004B3
:1009100004DB4FF00044404264EB0101141E73F10C
:10092000000405DB1C464FF00043524263EB040316
:10093000994208BF904230BD064C074D06E0E06882
:1009400040F0010394E8070098471034AC42F6D316
:10095000FFF75AFD6429000084290000202A04DBE7
:10096000203A00FA02F1002070479140C2F12003C2
:1009700020FA03F3194390407047202A04DB203A01
:1009800021FA02F00021704721FA02F3D040C2F1AF
:1009900020029140084319467047202A06DBCB17F6
:1009A000203A41FA02F043EAE07306E041FA02F32A
:1009B000D040C2F120029140084319467047000020
:1009C0000149024800F060BF64110020003000407F
:1009D000F0B598480023021D01780125101D4FF045
:1009E0008056062907D11478240704D10478C4F36B
:1009F0000314032C02D0062904D00FE08F4F8E4C35
:100A00007C670EE01478240708D10478C4F303143B
:100A1000032C06D0042C04D0052C02D0062907D0C4
:100A20000EE0D6F84442864FC4F342343C6002E004
:100A30001478240704D10478C4F30314032C02D0DF
:100A4000062906D011E07F4C276827F080772760C1
:100A50000EE01478240708D10478C4F30314032C9F
:100A600006D0042C04D0052C02D006290AD011E0AF
:100A70004FF08044C4F80C31C4F81031704C241F7E
:100A8000236002E01478240704D10478C4F303142B
:100A9000032C02D0062905D00CE0694F03246437EB
:100AA0003C600AE01478240704D10478C4F30314EA
:100AB000032C02D006290DD014E0634F05243C60BE
:100AC000614C78342560604C083423603F243F1D1E
:100AD0003C6002E01478240704D10478C4F30314C2
:100AE000052C02D0062957D068E058490968584AB1
:100AF00011605649091D0968121D116053490831DA
:100B00000968121D116051490C310968121D1160EC
:100B10004E4910310968121D11604C4914310968A1
:100B2000121D1160494918310968494A2032116083
:100B300046491C310968121D116044492031096879
:100B4000121D1160414924310968121D11603F498D
:100B500028310968121D11603C492C310968121DA9
:100B600011603A4930310968394A403211603749D9
:100B700034310968121D1160344938310968121D79
:100B8000116032493C310968121D11602F49403112
:100B90000968121D116002E0117809070ED1007872
:100BA000C0F30310032803D0042801D0052805D181
:100BB000D6F85802274900F04F00086021487438E1
:100BC000016841F470010160BFF34F8FBFF36F8F75
:100BD0004FF01021D1F80002002803DBD1F8040205
:100BE000002822DA1C4A15601C480468002CFCD03E
:100BF0001524C1F800420568002DFCD0C1F804425C
:100C000001680029FCD0136001680029FCD0BFF303
:100C10004F8F0C48F0380168114A01F4E06111432C
:100C20000160BFF34F8F00BFFDE70F490D4808601B
:100C3000F0BD0000E00F00F00DF0ADBA00C00740BD
:100C40003C050040FCED00E010560040040400109C
:100C500020C50040E40E004004E5014000E40140EE
:100C60000400FA050090D003200000200448017F12
:100C700004480029024901D001F0CEBD01F03DBD7C
:100C800044110020002000400FB4054B10B503A90B
:100C9000044A029800F0DAF810BC5DF814FB00007A
:100CA000D71700001C00002002E008C8121F08C16E
:100CB000002AFAD170477047002001E001C1121FDD
:100CC000002AFBD1704700002DE9FF5F82B00021B0
:100CD000DDE90430020DDDF840B0034318D044F6DE
:100CE0001050A2F2FF3242431514119801281FD070
:100CF000A5EB0B00401C5FEA000A4FF000064E4FC8
:100D0000DFF83891B046504615D5CAF1000413E01B
:100D1000119801244AA3012801D16FEA0B0102981E
:100D2000119AC0E90031C0E9024206B0BDE8F09F67
:100D3000CBF10000DFE704460021404A491842EBAE
:100D40000450CDE9001012E0E00707D032463B46E0
:100D500040464946FFF782FB8046894632463B467D
:100D600010461946FFF77AFB06460F466410002C22
:100D7000EAD1DDE90401DDE90023BAF1000F06DA6A
:100D8000FFF76CFB42464B46FFF768FB05E0FFF7B9
:100D900033FD42464B46FFF72FFD04460E46002228
:100DA000284BFFF7B1FD03D84FF0FF30014607E0B5
:100DB0000022254B20463146FFF777FCFFF78BFDDD
:100DC000102409E0002C0ADB0A220023FFF7DFFBD6
:100DD000039B30321A55641E50EA0102F2D1641CA2
:100DE000039AC4F111031444119A012A03D0012279
:100DF00008430DD10AE0084304D000204FF0110B46
:100E0000119072E7A3EB0B056D1E0DE05B4504DD51
:100E10004FF0000205F1010504E003DA4FF0000293
:100E2000A5F10105002AECD002981199C0E9023120
:100E3000C0E9004579E70000000014400000F03FE1
:100E4000300000000000F0430000E03F2DE9FF4FBC
:100E500095B09B468946064600250FE2252877D1A6
:100E600000242746F84A0121059400E0044316F8BF
:100E7000013F203B01FA03F01042F7D130782A28D5
:100E800011D06FF02F033078A0F13002092A16D864
:100E9000059A44F0020402EB820203EB4202104482
:100EA000761C0590EFE759F8042B0592002A03DA27
:100EB000504244F40054059044F00204761C30780B
:100EC0002E2816D116F8010F44F004042A280DD05C
:100ED0006FF02F023078A0F13003092B09D807EB0F
:100EE000870302EB4303C718761CF3E759F8047B2A
:100EF000761C30786C280FD006DC4C2817D0682878
:100F00000DD06A2814D104E0742810D07A280FD1AB
:100F10000DE044F400140AE044F4801401E044F4C9
:100F200040147278824202D104F58014761C761C3B
:100F3000307866280BD013DC582877D009DC0028DD
:100F400075D04528F6D04628F4D047281AD19DE11F
:100F500018E0632835D0642879D0652812D195E14E
:100F6000702873D008DC6728F1D069286FD06E280C
:100F70000DD06F2806D1B5E073282CD0752875D018
:100F8000782874D05A46179990476D1C75E1C4F3C0
:100F90000250022809D003280DD0D9F800100428E7
:100FA0000DD00D6009F1040967E1D9F80010EA17C6
:100FB000C1E90052F6E7D9F800100D80F2E70D7094
:100FC000F0E719F8041B8DF8001000208DF80100DF
:100FD000EA46012003E059F804AB4FF0FF30610707
:100FE0004FF0000102D40DE008F101018846B9423A
:100FF0000FDA8045F8DB1AF808100029F4D108E070
:1010000008F1010188468142FADB1AF8081000292C
:10101000F6D105985B46A0EB080721463846179A9B
:1010200000F094FA284400EB080507E04DE029E1C0
:101030000DE01AF8010B5A4617999047B8F10108CC
:10104000F7D25B4621463846179A13E142E00A225E
:101050000092C4F302524FF0000A022A08D059F855
:1010600004CB032A4FEAEC710AD00DE029E02AE014
:1010700009F1070121F00702F2E802C1914609E0F7
:101080000FFA8CFC4FEAEC71042A03D14FFA8CFC66
:101090004FEAEC71002907DA0A460021DCF1000C66
:1010A00061EB02012D2202E0220504D52B228DF8EE
:1010B0000420012203E0E20701D02022F7E7904656
:1010C00059E00A2102E010220DE010214FF0000A41
:1010D00000910BE010224FF0000A44F004040827AE
:1010E000009203E008224FF0000A0092C4F302527B
:1010F000022A05D059F804CB0021032A08D009E0C0
:1011000009F1070121F00702F2E802C1914605E06A
:101110001FFA8CFC042A01D10CF0FF0C4FF00008E0
:10112000220728D5702806D0009B83F0100353EACD
:101130000A0305D00EE040228DF80420012208E0C9
:101140005CEA010206D030228DF804208DF80500FB
:1011500002229046009B83F0080353EA0A030AD157
:101160005CEA010201D1620705D530228DF8042026
:101170004FF001087F1E582804D034A003900EA819
:1011800002900DE036A0F9E753466046009AFFF75B
:10119000FEF984460398825C0298401E0290027019
:1011A0005CEA0100F0D1029806A9081A00F1200AB1
:1011B000600702D524F4803400E00127574502DDA2
:1011C000A7EB0A0000E0002000EB0A010090059860
:1011D0004144401A0590E00306D45B462146179A25
:1011E000059800F0B3F90544002706E001A85A4627
:1011F000C05D179990476D1C7F1C4745F6DBE003E7
:101200000CD55B462146179A059800F09FF90544D6
:1012100004E030205A46179990476D1C0099481EEB
:1012200000900029F5DC08E0029802995A460078FF
:10123000491C0291179990476D1CBAF10001AAF15F
:10124000010AF1DC65E10000092801003031323388
:1012500034353637383961626364656600000000F2
:1012600030313233343536373839414243444546DC
:101270000000000000F058F90544761C3078002882
:101280007FF4ECAD19B02846BDE8F08F620700D4BA
:10129000062709F1070222F0070CFCE80223E146C9
:1012A00003F000485FEA080C02D00FF2702C0DE04A
:1012B0005FEA045C02D50FF2682C07E05FEAC47CA9
:1012C00002D00FF2602C01E0AFF2700C4FF0FF384B
:1012D00023F00043CDF850C065280CD006DC45282B
:1012E00009D046281DD047283DD13DE0662818D0BA
:1012F00067287ED138E00021112F01DB112000E0AA
:10130000781CCDE9000106A90EA8FFF7DDFCDDE998
:101310000F010E9A03910021009207F1010A049136
:101320004DE04FF000400097CDE9011006A90EA84E
:10133000FFF7CAFCDDE90F0203920E9B1199002210
:10134000DDF80CA00093049211B9791C00EB010A9E
:10135000B7EB0A0004D4C0F1FF3007F1010A049092
:10136000AAEB0700019044E0012F00DA01270021D9
:10137000112F01DD112000E03846CDE9000106A95A
:101380000EA8FFF7A1FCDDE90F010E9A03910021E1
:1013900004910092BA4621070CD40399514500DA12
:1013A0008A46BAF1010F05DD009AAAF10101515CEC
:1013B000302908D0B84202DA10F1040F06DA012110
:1013C000CDE9011015E0AAF10101E9E7002805DCEB
:1013D000049901440491AAEB000102E0411C51452B
:1013E00000DD8A460499401A401C01904FF00040ED
:1013F0000290200704D40198504501DBCDF8048009
:1014000000208DF84F0002980DF14F07B0F1004F0A
:1014100025D02B200E9002984FF0020800280CDAFD
:10142000404202902D200E9007E00A210298FFF71B
:1014300098F83031029007F8011DB8F10001A8F1C9
:101440000108F2DC02980028EFD1791E0E9808708E
:10145000307800F0200040F0450007F8020D12A897
:10146000C01B00F107081498007800B1012000EBC0
:101470000A01019801EBE07105984144401A401EB1
:101480000590E00306D45B462146179A059800F0C4
:101490005DF805441498007818B15A46179990479A
:1014A0006D1CE00324D55B462146179A059800F091
:1014B0004DF805441CE00498002807DBDDE9030132
:1014C000884203DD0098405C179901E017993020AD
:1014D0005A469047049805F10105401C0490019874
:1014E000401E019004D12E205A46179990476D1C3A
:1014F000BAF10001AAF1010ADDDC05E017F8010BE1
:101500005A46179990476D1CB8F10001A8F10108DF
:10151000F4DC5B462146179A0598ABE62D000000E7
:101520002B000000200000002DE9F04104460025BA
:101530001E461746880404D405E039462020B047EB
:101540006D1C641EF9D52846BDE8F0812DE9F041F7
:10155000044600251E469046C80301D5302700E00A
:101560002027880404D505E041463846B0476D1C65
:10157000641EF9D52846BDE8F0810000BFF34F8F07
:1015800005480168054A01F4E06111430160BFF3B9
:101590004F8F00BFFDE700000CED00E00400FA05EE
:1015A0000EB500210091CDE901106A4644F2010018
:1015B000FFF7E4FF0EBD10B58268C368934203D005
:1015C00000F0F6F8002010BD052010BD29B112B1C1
:1015D000531E134203D0092070470E20704701604C
:1015E000838000218160C1600846704710B5826821
:1015F000C3689A1A83889A4203D800F0E3F800205F
:1016000010BD042010BD0000F0B5284E89B01F4663
:101610000D00044672603BD0A888296882B2244835
:10162000FFF7D4FF002834D1A889A96882B22048E6
:101630001030FFF7CBFF00282BD120221D49684630
:10164000FEF7FAFE60690690207C00B101208DF85B
:1016500014008DF81C70607C00B10E208DF8150010
:10166000E0680290A0680390206801906068009094
:101670000E48114A6946083000F05CFB002808D18A
:10168000B0702068401C04D09DF81D0018B106E021
:10169000072009B0F0BD0548083000F0D7FB03492A
:1016A0000122491CC81D00F079FBF2E70C00002064
:1016B0008C110020442900004926000010B5014685
:1016C0000B48FFF793FF040010D10A4800F008FD13
:1016D00060B9084906480839FFF76DFF30B9054978
:1016E00001220839034800F075FC0446204610BD6D
:1016F0009C110020140000202DE9F04106460868E6
:101700000C46411C4FF0A0474FF0010506D005FAEA
:1017100000F1C7F80815206800F009FD6068411C59
:1017200002D0002100F0FAFC3079204901EB401092
:10173000A169007F00283068C0F8241525D0607D9D
:10174000227D31681043C1F86C05D4E9001230687D
:10175000C0F80C15C0F8142524E0A068411C02D084
:10176000002100F0DBFCE068411C05D08540C7F893
:101770000855E06800F0DBFCD4E902123068C0F8DC
:101780000825C0F81015BDE8F081607D217D326824
:101790000843C2F86C05D4E900123068C0F814257B
:1017A000C0F80C15207D0128D7D0ECE744110020AB
:1017B000826883881A4003689A5C0A708168491CB1
:1017C00081607047C26883881A4003689954C16871
:1017D000491CC160704710B50446C0B2FFF76EFFE8
:1017E000204610BD1CB50E208DF8040001200346D4
:1017F000009001AA6821044800F078FA0348417873
:101800000029FCD01CBD00000829000000000020B9
:1018100070B50E460446007918494FF4A27501EBE5
:101820004010017F2068A1B14FF4887100F0B1FC35
:101830004FF49071206800F0ACFC4FF49271206876
:1018400000F0A7FC2946206800F0A3FC0C492068A2
:1018500009E04FF48E7100F08BFC2946206800F0FF
:1018600087FC08492068C0F80413206800F0C2F91A
:101870003146BDE8704000F0A1B9000044110020DD
:1018800010030200800002002DE9FF470D464FF4CF
:1018900092770446394600F05BFC4FF002094FF0A6
:1018A00001084FF4827640B13946204600F055FCDD
:1018B0003146204600F04CFCB0B3B24631462046DB
:1018C00000F046FC4FF0FF36002770B3514620462B
:1018D00000F043FC05F10C0001AB07C883E80700EA
:1018E00095F8230078B1287B01282DD0D4F84C0539
:1018F000C0B28DF80600287B022828D0D4F84C0509
:10190000C0B28DF807004FF4B071204600F025FCFE
:101910004FF4AE71204600F020FC95F8250080B30E
:1019200095F8230068BB3CE000E013E0A868C4F829
:101930000803C5F80890A868C4F80403C4F8208018
:10194000C4F81480BDE8FF87D4F83C05D0E7D4F88C
:101950003C05D5E74FF4A471204600F0FEFB287B40
:1019600080B14FF40070C4F80002801CA860C4F875
:101970000863A868C4F80403C4F80880C4F8208089
:10198000E0E708E005F10C0001AB07C883E80700B9
:1019900095F8250028B90020C4F80002AF60C4F80B
:1019A0000863D4F8C404C4F8C404810702D58DF8D0
:1019B000008006E0400702D58DF8009001E08DF828
:1019C000007095F8250008B985F82470D5E9002144
:1019D00068469047B6E700008AB01822204968465A
:1019E000FEF72AFD1F480125CDE906051E4808908F
:1019F0002803099006231D4A06A96846FFF704FE3E
:101A000008B1FFF7CDFD00F0C9FCFFF7EBFE18A011
:101A1000FFF73AF9214E304600F044F8114CA41E6D
:101A200020BF20780028FBD0207A802101EB4010D5
:101A30008DF804000A48012301AA6821083800959E
:101A400000F054F9A068401CA0600428E8DB0020E6
:101A5000A06013A0FFF718F9304600F023F8DFE785
:101A6000102900000200002024000020E9260000C8
:101A70000A0D4661626F2023323236204772696454
:101A80004579652C2339205368696E6F626920534C
:101A9000616D706C65436F64650D0A0020A10700DD
:101AA0000A0D000000283ED01F49204A096800BFE7
:101AB00000BF00BF00BF00BF00BF00BF00BF91421A
:101AC0002FD000BF00BF00BF00BF00BF00BF00BFDE
:101AD00000BF00BF00BF00BF00BF00BF00BF00BF0E
:101AE00000BF00BF00BF00BF00BF00BF00BF00BFFE
:101AF00000BF00BF00BF00BF00BF00BF00BF00BFEE
:101B000000BF00BF00BF00BF00BF00BF00BF00BFDD
:101B100000BF00BF00BF00BF00BF00BF00BF00BFCD
:101B200000BF0138C3D17047200000200024F4001A
:101B300000283ED01F49204A096800BF00BF00BFEF
:101B400000BF00BF00BF00BF00BF91422FD000BF49
:101B500000BF00BF00BF00BF00BF00BF00BF00BF8D
:101B600000BF00BF00BF00BF00BF00BF00BF00BF7D
:101B700000BF00BF00BF00BF00BF00BF00BF00BF6D
:101B800000BF00BF00BF00BF00BF00BF00BF00BF5D
:101B900000BF00BF00BF00BF00BF00BF00BF00BF4D
:101BA00000BF00BF00BF00BF00BF00BF00BF0138C3
:101BB000C3D17047200000200024F4004907090E1B
:101BC000002806DA00F00F0202F1E02282F8141D6C
:101BD00003E000F1E02282F8001400F01F0201216E
:101BE00091404009800000F1E020C0F88012C0F868
:101BF00000117047000B40B270470121B1EB507FDC
:101C000001D101207047002070470121B1EB507FC6
:101C100001D1012070470020704700000179064A79
:101C200001EB8101006802EBC1010622C0F800252A
:101C3000022081F8220070476411002070B506462A
:101C40000D4600791F4900EB800001EBC00494F8B9
:101C5000220008B1082070BD0020C4E90023A06064
:101C600084F8250084F82400A87B84F82700687B8A
:101C700010B1284600F0C8FA296840F20C608900CB
:101C800001F1A041C1F800076968890001F1A04194
:101C9000C1F80007D5E900123068C0F80815C0F88F
:101CA0000C25A968C0F82415206828B13068297B64
:101CB000000B40B2FFF782FF012084F822000020D1
:101CC00070BD0000641100203EB5074D2C68AD6862
:101CD00000948DF80110019202958DF802300022D7
:101CE000694600F015F83EBD382900003EB50025D4
:101CF0000095069C8DF8011002958DF80230019236
:101D00000CB1202200E00022694600F001F83EBD3F
:101D100030B40379064C03EB830304EBC30400687F
:101D200013460A460146204630BC00F04FBB000077
:101D3000641100202DE9F04105460079164F9046C8
:101D400007EB40140E46E07E10B10820BDE8F0819C
:101D5000707F20772846FFF7CFFC5FEA08006060BD
:101D60003169216003D0317F2846FFF751FD287982
:101D700007EB4010007F0028286801D0082100E010
:101D80000421C0F800150020E0752076A07501211F
:101D9000E176A076DAE70000441100202DE9F04159
:101DA00005460079284E904606EB40140F46207FEA
:101DB00018B10846FFF721FF80B1626800234FF495
:101DC00004704FF4017172B12A7906EB4212127F4E
:101DD000002A2A6805D0C2F8080304E01020BDE8F4
:101DE000F081C2F80813E27DB2B1227E7AB1626856
:101DF0005AB12A7906EB4212127F1AB12968C1F84A
:101E0000040302E02868C0F804131120E7E7276103
:101E1000012384F8188005E084F817800020E7602B
:101E2000607620762879424606EB40103946007FDE
:101E30000028284603D0BDE8F04100F073B8BDE8A3
:101E4000F04100F01BB800004411002070B50446BA
:101E50000079094D05EB4010017F00290AD1807EF1
:101E6000002807D1204600F0BFF92179012005EBB9
:101E70004111887670BD0000441100202DE9F05F0B
:101E800004460079264901EB4015A87E184302D18B
:101E9000204600F0A9F968680028206806D04FF4B1
:101EA0000171C0F804130020BDE8F09F4FF4A27642
:101EB000314600F05DF9B1464FF4927A4FF4847BDD
:101EC0005146206800F04FF906465946206800F058
:101ED0004AF980464946206800F045F9074648EA35
:101EE00007003043ECD056EA070007D129462068A6
:101EF00000F055F9E87D697E8842E1D80020E87558
:101F00000EB10320D0E70FB10F20CDE7A97E01204D
:101F10000029216801D00860C5E74860C3E70000D8
:101F2000441100202DE9F05F894604464FF488757E
:101F30009A46904600260068294600F02AF94FF498
:101F4000A2773946206800F024F92068C0F834955B
:101F5000C0F838852068BAF1000F14D0D0F800120C
:101F600041F02001C0F800122179DFF8648008EB0D
:101F70004110406850B120684FF40471C0F8041358
:101F80003046BDE8F09F01210160EDE7AA46B94661
:101F90004FF4927B5146206800F0F6F80746494618
:101FA000206800F0F1F805465946206800F0ECF88A
:101FB000014647EA05000843ECD02379002208EBEC
:101FC0004310C27501B10326002DD9D00F26D7E7E3
:101FD000441100202DE9F047054600793F4E904618
:101FE00006EB40140F46207F18B10846FFF705FEA8
:101FF00030B1284600F074F820B11120BDE8F08718
:102000001020FBE784F81680A7600027A7822879B4
:102010004FF0010806EB40143E46207F0028286858
:1020200025D04FF49079494600F0B3F84FF4AC7ADC
:102030005146286800F0ADF82868A17DA268C0F874
:102040004425C0F848152868C0F808806068F0B9D1
:102050004946286800F098F880465146286800F004
:1020600093F858EA0001F3D058BBA7750FE04FF47E
:102070008E7A514600F07CF82868C0F80880214626
:10208000286800F0C3FA61684FF4807089B1304667
:10209000B4E75146286800F066F810B9A08A4845B0
:1020A000F7D1A08A484505D02146286800F0AEFA4D
:1020B00000E08146A08AA17D8842EAD3A08A4845F3
:1020C00001D10F26D1E75146286800F04CF80028CE
:1020D000F9D02868C0F80C80C7E700004411002040
:1020E0000079044901EB4010807D002800D00120D8
:1020F000704700004411002070B541EA4201DDE95B
:1021000004564FF0A04441EA830141EA052104EB63
:10211000800041EA0641C0F8001770BD1CB50022DE
:102120000B46009211460192FFF7E6FF1CBD1CB55D
:10213000002100910B46012201911146FFF7DCFFBF
:102140001CBD4FF0A04201218140C2F80815704724
:102150004058002800D00120704708B500224250A6
:102160004058009008BD4058002800D0012070471A
:1021700008B5002242504058009008BDD0F8040332
:10218000084000D0012070474058002800D00120AE
:10219000704708B5002242504058009008BD70B505
:1021A0000546C87D0C4600284FF4847128460AD0A5
:1021B000FFF7DEFFD5F81805627EE1688854607E7F
:1021C000401C607670BDFFF7D3FFD5F8180570BDD1
:1021D0001FB501238DF800308DF808100192D0E969
:1021E0000012684690471FBD10B5044600684FF4C2
:1021F0009271FFF7BDFF4FF484712068FFF7B8FFBD
:1022000020680121016010BD2DE9F041044640F233
:102210000C602168890001F1A041C1F800076168E4
:10222000890001F1A041C1F800072068FFF789FF8C
:102230006068FFF786FF216840F20D60890001F1B8
:10224000A041C1F800076168890001F1A041C1F80F
:1022500000070420FFF76CFC00274FF0A046012583
:102260002179D6F81005C84010F0010F02D0002FD8
:102270001DD010E0217805FA01F0C6F80C05042005
:10228000FFF756FC2068FFF75CFF0420FFF750FCC7
:102290007F1C092FE4DB20798540C6F80C5504200B
:1022A000FFF746FC6068BDE8F041FFF74ABFBDE8B4
:1022B000F08100002DE9F0412DED028B017800291D
:1022C00004D101792D4C012021B12070BDEC028B8D
:1022D000BDE8F0816178E9B3002727702023284A00
:1022E00068212848FFF7F0FC254B054600204FF4F5
:1022F000006C03F120061A18195C527802F00F02E4
:1023000041EA0221614501DBA1F58051A288801CD0
:1023100080B246F82210521CA2802028EBD390B243
:102320003F2820D9A7809FED188B002456F8240061
:10233000FEF706F953EC182BFEF790F841EC100B62
:1023400013A053EC102BFEF79FFC6007B0F1604F19
:1023500003D005E0FFE76070B8E70FA0FEF794FC3C
:10236000641C402CE2DB0CA0FEF78EFC2800ADD0F4
:10237000BDEC028BBDE8F041FFF712B90000002070
:102380002410002008290000000000000000D03FB9
:10239000252E32662C0000000A0D00001FB5094BE7
:1023A0000FCB8DE80F0007480023074A6946203805
:1023B000FFF744FC08B1FFF7F3F802482038FFF7B5
:1023C0002DFC1FBD28290000B52200002DE9F05F7B
:1023D00006461F4615460C464FF0000A4FF0080B04
:1023E0004FF482795068FFF710FC00287ED04FF040
:1023F000FF30C4F8080396F8240028B1B068C4F888
:1024000004031120BDE8F09F780703D4F80601D437
:10241000012000E0002086F8240095E8070006F17E
:102420000C0383E80700C7F3001086F825006878DE
:10243000C4F888054FF482712046FFF78EFE4FF4F2
:1024400092712046FFF789FEF8074FF0010800D08F
:102450004046C4F85005B80701D5404600E00020CA
:10246000C4F84005287800286CD001287DD00228C7
:102470004ED0032814D04FF0070A380704D4287828
:10248000032801D044F80B80306800286ED078070C
:1024900002D54FF40070B060B068C4F80403B0E037
:1024A000A868FFF7B2FB08B34FF48070C4F80002CD
:1024B000A9786868C4F84405C4F848154FF4A871B1
:1024C0002046FFF74AFE4FF4B0712046FFF745FE65
:1024D0004FF4A4712046FFF740FEC4F82080C4F8F2
:1024E000088000BF4FF4A871204600E028E0FFF705
:1024F0002FFE0028F6D04FF4A8712046FFF72DFEDE
:10250000E878A968C4F84415C4F848053E4815E0C1
:10251000A8786968C4F84415C4F84805A868FFF7A6
:1025200074FB68B1E878A968C4F83415C4F83805B4
:102530004FF48450C4F8000240F20220B0609CE7DF
:1025400010205FE7A8786968C4F84415C4F8480506
:10255000B8060FD54FF48070C4F800022A48B06066
:102560004FF4A4794946204601E00CE01BE0FFF758
:10257000F4FD05E04FF40070C4F80002801CB06068
:10258000C4F8208079E7A8786968C4F83415C4F8DD
:1025900038054FF48050C4F8000240F20220B060C9
:1025A0004FF0000BECE745464FF482774FF49278FA
:1025B0000BE041462046FFF7CBFD30B141462046B7
:1025C000FFF7CBFD25626561B94649462046FFF716
:1025D000BFFD0028EDD0D4F8C404C4F8C404002121
:1025E00086F8241068B10321C20701D04FF40241DC
:1025F000820701D548F20121400701D548F20221A6
:102600008A465046FEE600000002040070B50C4603
:1026100005464FF48E71FFF7ABFDA18AA068415CBF
:10262000A08A401CA082C5F81C1570BD1FB50022F1
:102630008DF800208DF80810816801918275D0E92D
:102640000012684690471FBD7CB50178244D81B3C8
:1026500001290BD002292BD18DF80010C068691C0C
:1026600001900122C81DFFF799FB2EE04068017818
:102670001C48FEF7BBFF1B4C012618B18DF800600B
:10268000019006E0A068E168814205D000208DF845
:102690000000696868468847A068E168081AA18850
:1026A000884207D80E490122491CC81DFFF776FB56
:1026B0007CBD01E0AE70FBE70A4809491030FEF727
:1026C0007AFF30B103208DF80000696868468847BA
:1026D000EEE70349012201F10800FFF77BFCE7E781
:1026E0000C0000208C1100200178012901D0022962
:1026F00002D14068FEF754BF70472DE9FF470C46F2
:1027000005464FF40071FFF739FD01274FF40178BA
:10271000002618B34FF4927949462846FFF723FD67
:10272000E0B149462846FFF723FDC5F80883A07E9F
:1027300000B96F6002208DF80000D5F88004C5F85C
:1027400080040390E07D8DF80800E0680190E67554
:102750002676D4E900126846904727E004212846EF
:10276000FFF70CFD10B34FF484712846FFF7FBFC14
:10277000E0B121462846FFF712FDE07D617E8842E8
:1027800014D1207E38B1617EE268E0752069E06096
:102790002676667607E0A07E00B96F60C5F80883EC
:1027A000E675617EE2682046FFF712FD4FF48E78F1
:1027B00041462846FFF7D7FC88B1A08AA17D884210
:1027C00004D221462846FFF721FF08E0414628466B
:1027D000FFF7CEFCA17D11B12046FFF727FF4FF494
:1027E000A27841462846FFF7BEFC002812D0414699
:1027F0002846FFF7BDFCA07E00B12F60E07D0028D9
:1028000008D0E675617EE26804B02046BDE8F04776
:10281000FFF7DEBCBDE8FF872DE9FF410C464FF412
:10282000927705463946FFF7AFFC0026C0B139461E
:102830002846FFF7AEFC02208DF80000D5F8800492
:10284000C5F880040390D5F83C058DF80800E068D1
:102850000190E6752676D4E900126846904724E098
:102860004FF4887739462846FFF78EFCE8B13946A1
:102870002846FFF78EFCD5F83C05C1B2E07D8842C2
:1028800013D1207E60B1E268D5F8000220F020006C
:10289000C5F80002207EE0752069E060267601E040
:1028A000E675E2682046FFF793FC4FF4A2773946BD
:1028B0002846FFF769FC68B139462846FFF769FCEE
:1028C000E07D38B1E675D5F83C05E268C1B2204636
:1028D000FFF77EFC4FF4907631462846FFF754FC14
:1028E00000280FD031462846FFF753FCA07D002872
:1028F00008D0D5F84C0504B0C1B22046BDE8F0417F
:10290000FFF794BEBDE8FF810030004000010000E9
:10291000080000000600000005000000070000009D
:102920000000000000E0D7011B0000001A000000BA
:1029300000009801020000000100000000000000FB
:1029400000000000FFFFFFFFFFFFFFFFFFFFFFFF93
:10295000FFFFFFFF00000000000000000000D601A4
:10296000070100008429000000000020240000006E
:10297000A80C0000A8290000240000208C310000D1
:10298000B80C000001000000000000000000000082
:1029900000000000000000000020004000000000D7
:0829A000000000000090D003CC
:0400000500000401F2
:00000001FF
