:020000040000FA
:1000000000250020150400001D0400001F0400004E
:10001000210400002304000025040000000000006B
:1000200000000000000000000000000027040000A5
:1000300029040000000000002B0400002D04000033
:10004000390600002F040000850900002F0400007D
:100050002F0400002F040000810400002F04000082
:100060002F0400002F0400002F0400002F040000C4
:100070002F0400002F0400002F0400002F040000B4
:100080002F040000C10600002F0400002F04000010
:10009000E50600002F0400002F0400002F040000DC
:1000A0002F0400002F0400002F0400002F04000084
:1000B000910600002F040000000000000000000076
:1000C0002F040000A1060000B10600002F0400006C
:1000D0002F0400002F0400002F0400000000000087
:1000E0000000000000000000000000000000000010
:1000F0000000000000000000000000000000000000
:1001000000000000000000000000000000000000EF
:1001100000000000000000000000000000000000DF
:10040000DFF80CD000F02AF800480047850F000004
:10041000002500200648804706480047FEE7FEE723
:10042000FEE7FEE7FEE7FEE7FEE7FEE7FEE7FEE7A4
:10043000E90600000104000040EA01039B0703D025
:1004400009E008C9121F08C0042AFAD203E011F813
:10045000013B00F8013B521EF9D27047064C074D94
:1004600006E0E06840F0010394E807009847103484
:10047000AC42F6D3FFF7C8FFCC1C0000EC1C000018
:100480002DE9F04700268CB0DFF86091B0464FF4BC
:100490008075012437460696284601F003F838B1E6
:1004A000D9F80403204203D0284600F0F1FF264388
:1004B0002D1D64007F1CADB2082FEDD34FF4BE7428
:1004C000204600F0EFFF48B1204600F0E1FF46F083
:1004D000004606AA0121002000F0C6FF444D16F098
:1004E000FF0F15D00127002437420DD009EB8401FE
:1004F000D1F81005D1F81015C0F3042055F82420C8
:10050000C1F3014102B190477F00641C082CEBD37A
:10051000002E67DA4FF0FF30CDE908800026344620
:10052000281910F8507F90F9000027F0C008401CEF
:1005300044D009A9404600F085FD58B34FEA971909
:10054000404600F01DFB55F820701FB1B9F1030FB4
:1005500003D00FE0B9F1030F30D108A84FEAD80259
:1005600008F00703815C4FF0010C0CFA03FC41EA30
:100570000C0181544FF0A04101EB8800D0F8000736
:1005800006A9C0F3014A404600F05CFD18B1BAF17B
:10059000020F03D012E0BAF1030F0FD1B9F1030F2C
:1005A00008D1BAF1020F1BD00221404600F04AFFE9
:1005B000761CF6B217B149464046B847641C042C75
:1005C000AED3002E0ED06A460121002000F04CFF71
:1005D00006990098884205D00690089809909DE7F2
:1005E0000321E2E70CB0BDE8F087000000600040A6
:1005F0005800002000F01F020121914040098000B6
:1006000000F1E020C0F88012704700F01F020121C5
:1006100091404009800000F1E020C0F800117047CF
:1006200000F01F02012191404009800000F1E0200C
:10063000C0F80012704700002DE9F0414FF48077B8
:10064000384600F007FD0124104EA50748B1384692
:1006500000F007FD0120C5F808037470002000F0C9
:1006600097FA4FF48277384600F0F4FC00280BD05C
:10067000384600F0F6FC0220C5F80803B470BDE867
:10068000F041012000F084BABDE8F0814400002070
:100690000149024800F076BBB000002000C00140D4
:1006A0000149024800F06EBBB80000200010024073
:1006B0000149024800F066BBC00000200020024053
:1006C00007480021C0F84011C0F84411C0F8481193
:1006D000C0F84C11C0F80011C0F8041101F04EB977
:1006E0000010014001F0E6B8F0B598480023021D63
:1006F00001780125101D4FF08056062907D1147886
:10070000240704D10478C4F30314032C02D006296F
:1007100004D00FE08F4F8E4C7C670EE014782407D6
:1007200008D10478C4F30314032C06D0042C04D09D
:10073000052C02D0062907D00EE0D6F84442864F99
:10074000C4F342343C6002E01478240704D10478F6
:10075000C4F30314032C02D0062906D011E07F4C09
:10076000276827F0807727600EE01478240708D1E7
:100770000478C4F30314032C06D0042C04D0052CF5
:1007800002D006290AD011E04FF08044C4F80C31A1
:10079000C4F81031704C241F236002E01478240741
:1007A00004D10478C4F30314032C02D0062905D025
:1007B0000CE0694F032464373C600AE01478240796
:1007C00004D10478C4F30314032C02D006290DD0FD
:1007D00014E0634F05243C60614C78342560604C24
:1007E000083423603F243F1D3C6002E01478240756
:1007F00004D10478C4F30314052C02D0062957D081
:1008000068E058490968584A11605649091D096845
:10081000121D1160534908310968121D11605149B8
:100820000C310968121D11604E4910310968121D02
:1008300011604C4914310968121D11604949183181
:100840000968494A2032116046491C310968121D65
:100850001160444920310968121D11604149243159
:100860000968121D11603F4928310968121D116085
:100870003C492C310968121D11603A493031096830
:10088000394A40321160374934310968121D11600C
:10089000344938310968121D116032493C31096808
:1008A000121D11602F4940310968121D116002E0CC
:1008B000117809070ED10078C0F30310032803D084
:1008C000042801D0052805D1D6F85802274900F0A0
:1008D0004F00086021487438016841F470010160DC
:1008E000BFF34F8FBFF36F8F4FF01021D1F800028D
:1008F000002803DBD1F80402002822DA1C4A156024
:100900001C480468002CFCD01524C1F8004205687E
:10091000002DFCD0C1F8044201680029FCD013600E
:1009200001680029FCD0BFF34F8F0C48F0380168F4
:10093000114A01F4E06111430160BFF34F8F00BF22
:10094000FDE70F490D480860F0BD0000E00F00F022
:100950000DF0ADBA00C007403C050040FCED00E0E2
:10096000105600400404001020C50040E40E004072
:1009700004E5014000E401400400FA050090D003C2
:10098000400000200448017F04480029024901D0AA
:1009900001F0EBB801F05AB8C80000200020004078
:1009A00002E008C8121F08C1002AFAD17047704738
:1009B000002001E001C1121F002AFBD17047000096
:1009C0000BA1012000F04AFE00F0ACFD00F0AEFDEE
:1009D0000028FBD1BFF34F8F0B4801680B4A01F48D
:1009E000E06111430160BFF34F8F00BFFDE70000DE
:1009F0004150505F4552524F523A4552524F523A2F
:100A0000466174616C0D0A000CED00E00400FA050B
:100A10000EB500210091CDE901106A4644F20100B3
:100A2000FFF7CEFF0EBD00F003B800F009B80000DC
:100A300072B602480168491C016070472C00002012
:100A400003490868401E086000D162B67047000084
:100A50002C0000202DE9F041064608680C46411C98
:100A60004FF0A0474FF0010506D005FA00F1C7F896
:100A70000815206800F0DCFC6068411C02D00021F1
:100A800000F0CDFC3079204901EB4010A169007FD6
:100A900000283068C0F8241525D0607D227D31689B
:100AA0001043C1F86C05D4E900123068C0F80C1589
:100AB000C0F8142524E0A068411C02D0002100F0F9
:100AC000AEFCE068411C05D08540C7F80855E068D9
:100AD00000F0AEFCD4E902123068C0F80825C0F876
:100AE0001015BDE8F081607D217D32680843C2F8B1
:100AF0006C05D4E900123068C0F81425C0F80C1554
:100B0000207D0128D7D0ECE7C800002070B5461C36
:100B10000D4601240020FFF786FF114A1068286067
:100B2000D2E900109568081A2B1A701C5B1C9842B9
:100B30000FD963B10B480C4B294000681B6802EBCE
:100B4000810163F39F20C8601068401C106000247E
:100B500001E0881910600020FFF767FF204670BD94
:100B6000E80000209C1C00003C000020034803C853
:100B7000814201D10120704700207047E800002029
:100B80000249084490F930007047000058000020E6
:100B900070B5084C050009D010342168002907D031
:100BA00008682060496828468847F6E70834F4E773
:100BB00070BD0000440000202DE9F05F2648416828
:100BC000F1B3DFF898B00E688146DBF80040876823
:100BD0008078E11B21F07F45ED1CB0B9DFF8808003
:100BE0004FF48030C8F84403C8F804031120FFF71D
:100BF00001FD1120FFF709FD4FF0010AC8F800A020
:100C00002F2000F081FA89F802A0B54200D23546C3
:100C1000124BE8193C3320F07F401860DBF80010DD
:100C20005A46091B21F07F41001B20F07F40C91C60
:100C300081420FD9106818602F2000F065FA00E09B
:100C400004E0BDE8F05F1120FFF7EABCBDE8F05F0B
:100C500000F0A2BDBDE8F09F0C000020041501408B
:100C600000100140FFB5002301244FF0A0456E465F
:100C7000CA5CFF2A12D0D70922F0800246F823204E
:100C800004FA02F702D0C5F8087501E0C5F80C7542
:100C900005EB82020327C2F8007703E04FF0FF3232
:100CA00046F823205B1CDBB2042BE1D301683246FB
:100CB0005FF0000001EB800452F82030C4F860358A
:100CC000401CC0B20428F5D3FFBD00000E4910B58A
:100CD0000A784C780023A24212D0521CD2B20A7079
:100CE000022A00D10B70084A0B78183252F82320E0
:100CF00002608868104420F07F408860012010BDA9
:100D00000360002010BD00000C00002070B50E46EE
:100D10000446007918494FF4A27501EB4010017F99
:100D20002068A1B14FF4887100F0F4FC4FF4907189
:100D3000206800F0EFFC4FF49271206800F0EAFCAC
:100D40002946206800F0E6FC0C49206809E04FF4D1
:100D50008E7100F0CEFC2946206800F0CAFC0849DC
:100D60002068C0F80413206800F03BFA3146BDE863
:100D7000704000F01ABA0000C80000201003020002
:100D80008000020070B50C460546102100F097FC6B
:100D900068B14FF488763146284600F085FC30B1C2
:100DA0003146284600F085FC216801208847202133
:100DB000284600F084FC68B14FF48A763146284614
:100DC00000F072FC30B13146284600F072FC216818
:100DD000022088478021284600F071FC68B14FF45A
:100DE0008E763146284600F05FFC30B13146284609
:100DF00000F05FFC2168002088474FF4827631467E
:100E0000284600F051FC00280AD03146284600F060
:100E100050FC012020712168BDE870400320084784
:100E200070BD00002DE9F043264CA4F11009227892
:100E3000D9F8048099F80350404694F801C0D9F8D5
:100E4000086031E002EB42036168521C01EBC30110
:100E5000A378D2B2934200D100220B78022B02D0A9
:100E6000032B21D11DE003464F68194603E0B94228
:100E700003D00B46C969B9B1F9E7A9B18B4205D1D5
:100E8000C06918B9104E0125B56000260F68C96900
:100E9000D96149B10B683B440B6005E00174C0693E
:100EA00000E000210028F9D19445CBD1C9E9010621
:100EB00089F80350404502D00120BDE8F0830020AE
:100EC000FBE700001C000020001001402DE9F0416C
:100ED0002A4F0446002607F11005D7F804803EE0AB
:100EE00002D02046E4691DE02878696800EB4002E2
:100EF000401CC0B201EBC2012870AA78904200D118
:100F00002E700A784868012A2BD1027C4ABB8A6875
:100F10004260CA6882600A69C26049698161F97881
:100F200001B146604368BA68DFF854C0991A21F0ED
:100F30007F41614502D28268114406E0D11A82687D
:100F400021F07F418A4202D9511A016000E0066017
:100F50004660012186600174C66100F0F1FC002C3E
:100F6000BED1287869788842BED17968414502D0DF
:100F70000120BDE8F0810020FBE700000C0000200C
:100F8000FFFF7F0040F6EE6440F64D5540F6D9363F
:100F900040F62F3740F6F7184FF40E694FF4FD6A0C
:100FA00040F2777B204600F03BFCC82000F061F85F
:100FB000234800F0A1F9284600F032FCC82000F0D8
:100FC00058F81F4800F098F9304600F029FCC82076
:100FD00000F04FF81A4800F08FF9384600F020FC76
:100FE000C82000F046F8164800F086F9404600F0A8
:100FF00017FCC82000F03DF8114800F07DF9484684
:1010000000F00EFCC82000F034F80D4800F074F930
:10101000504600F005FCC82000F02BF8084800F00E
:101020006BF9584600F0FCFBC82000F022F8044899
:1010300000F062F94FF47A7000F01BF8B2E700009C
:1010400004000020C20800F007030120895C9840DA
:101050000840704700F180400068002800D001205F
:10106000704708B500F180400021016000680090E1
:1010700008BD4FF47A714843AFF3008000283ED09A
:101080001F49204A096800BF00BF00BF00BF00BF62
:1010900000BF00BF00BF91422FD000BF00BF00BF04
:1010A00000BF00BF00BF00BF00BF00BF00BF00BF48
:1010B00000BF00BF00BF00BF00BF00BF00BF00BF38
:1010C00000BF00BF00BF00BF00BF00BF00BF00BF28
:1010D00000BF00BF00BF00BF00BF00BF00BF00BF18
:1010E00000BF00BF00BF00BF00BF00BF00BF00BF08
:1010F00000BF00BF00BF00BF00BF0138C3D17047B1
:10110000400000200024F40000283ED01F49204A5F
:10111000096800BF00BF00BF00BF00BF00BF00BF25
:1011200000BF91422FD000BF00BF00BF00BF00BF73
:1011300000BF00BF00BF00BF00BF00BF00BF00BFB7
:1011400000BF00BF00BF00BF00BF00BF00BF00BFA7
:1011500000BF00BF00BF00BF00BF00BF00BF00BF97
:1011600000BF00BF00BF00BF00BF00BF00BF00BF87
:1011700000BF00BF00BF00BF00BF00BF00BF00BF77
:1011800000BF00BF00BF0138C3D17047400000203E
:101190000024F40000F01F0201219140400980006A
:1011A00000F1E020C0F8801170474907090E0028BF
:1011B00006DA00F00F0202F1E02282F8141D03E0CB
:1011C00000F1E02282F8001400F01F02012191409A
:1011D0004009800000F1E020C0F88012C0F8001142
:1011E0007047000B40B270472DE9F0410D460446B0
:1011F0000079244901EBC006307910B10820BDE820
:10120000F081294620463260FFF72CFD2068012737
:10121000C0F8007520686B79AA792989C0F80C3567
:10122000C0F80425C0F80815AA7AE87A216842EACD
:101230000020C1F8100520680021C0F800122068C5
:10124000C0F800134FF48E71206800F032FA4FF4AA
:101250008871206800F02DFA4FF48A71206800F040
:1012600028FA4FF48271206800F023FA306828B120
:1012700020682979000B40B2FFF797FF37710020F3
:10128000BDE70000B00000202DE9F0410F46044604
:1012900000791849164601EBC0081D463A46002160
:1012A000206800F012FA3A460121206800F00DFA99
:1012B000206806F0010101EB5602C0F81425E8078A
:1012C00001D0102007E0A80704D509B1082002E0EA
:1012D000042000E000202268C2F8000209B10C23BB
:1012E00000E00823EAB241462046BDE8F04100F0A4
:1012F000C1BA0000B000002010B501790A4A0123EC
:1013000002EBC1020168090B49B201F01F04A340BE
:101310004909890001F1E021C1F88031006800210C
:10132000C0F80015117110BDB00000202DE9F0418A
:1013300005460079164F904607EB40140E46E07EB6
:1013400010B10820BDE8F081707F20772846FFF7B4
:1013500081FB5FEA080060603169216003D0317F62
:101360002846FFF7D3FC287907EB4010007F0028C0
:10137000286801D0082100E00421C0F800150020F1
:10138000E0752076A0750121E176A076DAE700000D
:10139000C800002070B5044600791149002601EB11
:1013A000401520682A7FC0F80065686888B12079F8
:1013B00001EB4010007F0028206801D0094901E0BE
:1013C00008498C39C0F808132068FFF70AFFFFF7B7
:1013D000E1FE204600F0A4F9EE766E6070BD0000DC
:1013E000C80000201003020070B541EA4201DDE9A7
:1013F00004564FF0A04441EA830141EA052104EB81
:10140000800041EA0641C0F8001770BD1CB50021FC
:1014100000910B4601220191FFF7E6FF1CBD1CB5B0
:1014200000220B46009211460192FFF7DDFF1CBD22
:101430001CB5002100910B46012201911146FFF7D6
:10144000D3FF1CBD4FF0A04202EB8000D0F8002774
:1014500022F44032C0F80027D0F8002742EA0141C8
:10146000C0F800177047000018B5084B6C460144DF
:101470001B68009306E000BF54F82030D3F8103505
:10148000401C08C28142F7D818BD0000781C00003B
:10149000034908B50844002101600068009008BDB8
:1014A0000060004002494058012800D000207047E9
:1014B0000060004030B5184C054689B0207828B14E
:1014C0006078854202D1002009B030BD2022134946
:1014D0006846FEF7B1FF00208DF81400062000904A
:1014E0000820019005200390072002904FF0EB7038
:1014F00006900948001DFFF74DFF0DB1002200E0E6
:10150000074A05486946001DFFF710FF0028DBD198
:10151000012020706570D6E7300000207C1C0000A0
:101520003D1A00000120FFF7C5BF00002DE9F04F74
:1015300087B0FFF71BFB18B1002007B0BDE8F08FA4
:10154000454ED6E9014704EA070006EB8000A146B4
:10155000641CC5680CE000BFC5F3891000EB955012
:10156000044404EA070006EB8000A146C568641C39
:10157000A807F1D005F003004FF0000B022805D0BA
:10158000AA0A01A8C5F38313002153E004EA070067
:1015900006EB800004F1010A0AEA0704C268381B5E
:1015A00080004FEA9558001DC5F38913804521D965
:1015B00029490C3138B106EB840400F0FF0CA8EB8C
:1015C00000000C3404E00C46002108F0FF0C084633
:1015D000C0B2CDE90210CDE9004CD6F81444C5F3F1
:1015E000C2005946A047404511D108F103080AEB53
:1015F00098042AE0002106EB84000C300090CDE92D
:1016000001810391C5F3C200D6F81444EAE760F300
:101610008F1509EA070006EB8000C56016E000BFE1
:1016200004EA070C06EB8C0C491CDCF80CC040F8F3
:1016300004CB641C9942F3D3C5F3C2000093D6F8DF
:10164000105401AB5946A84700B17460FFF78EFAF9
:1016500080F0010071E70000E80000202DE9F84368
:101660000F4F88460446002569462846BE68FFF7A6
:101670004DFA002812D00B480021406861F3820027
:10168000009964F3C50001EA060265F3891007EBCF
:10169000820268F39F20491CD0600091BDE8F88366
:1016A000E80000209C1C00004058002800D00120C9
:1016B000704708B5002242504058009008BDD0F84D
:1016C0000403084000D00120704700EB411013686C
:1016D000C0F820359188C0F824159168C0F8281505
:1016E000D168C0F82C1570474058002800D0012060
:1016F000704708B5002242504058009008BDD0F80D
:101700000403084000D0012070474058002800D052
:101710000120704708B5002242504058009008BD93
:1017200070B5034600791B4901EB40101968027F30
:101730004FF0FF30002AD1F80C25D1F81465D1F80C
:101740000855D1F8104504D0C1F80C05C1F81405AE
:1017500003E0C1F81405C1F80C051968C1F80805C3
:10176000C1F81005501C02D01046FFF74FFE701C48
:1017700002D03046FFF74AFE601C02D02046FFF739
:1017800045FE681C04D02846BDE87040FFF73EBE09
:1017900070BD0000C800002070B5012670044FF035
:1017A000E0210025C1F88001084C4010C4F848032E
:1017B000C4F8080366602F20FFF7A6FCA660044C5F
:1017C0002F20A560FFF7A0FCA57070BD00100140A0
:1017D0000C00002070B50546C87D0C4600284FF46B
:1017E000847128460AD0FFF784FFD5F81805627E79
:1017F000E1688854607E401C607670BDFFF779FF19
:10180000D5F8180570BD1FB501238DF800308DF88F
:1018100008100192D0E90012684690471FBD0000F1
:1018200030B5124D044687B095E8070004AB83E855
:101830000700ADF81840002204A90D48FFF7D4FCBA
:1018400008B1FFF7E5F80C3595E80F008DE80F00BB
:10185000074904EBD470091F4008088002230122C5
:1018600069460348FFF710FD07B030BD5C1C00005F
:101870000400002070B5044602201D460871086867
:1018800070B18221500700D59221100701D541F097
:101890002001D00601D521F080012068C0F8001396
:1018A0004FF482712068FFF704FF20680121415145
:1018B00070BD00002DE9F84F204C00256846D4E9A2
:1018C00001B6FFF703FA8046FFF7ACFA0746A946D0
:1018D000B8F1000F25D00023009ACC46606819E0CB
:1018E00007680146974202D9BA1A026014E0C1F8AB
:1018F00000C0D1F80C80D21BC8693B448A46B8F1BD
:10190000000F07D0F71827F07F47C1E90178CAF820
:101910001C500D460028E3D160602846FFF7D6FA38
:1019200004E02846FFF7D2FA00B917B15846FFF78E
:1019300043F984F80390BDE8F88F00000C00002004
:101940000D4B10B5596831B102680C68A24204D839
:10195000A21A0A60C161586010BD0B4603E00B4635
:10196000C969121B21B10C689442F8D3A41A0C6007
:101970000260C161D86110BD0C0000202DE9F0416A
:101980001D4D6C68002C35D01C4800270068A968E4
:10199000B846401A20F07F462068B04215D822464B
:1019A000361A0744E469107C68B182F81080EB684D
:1019B00033B1D2E90501984728B1FFF729F802E0D1
:1019C000D2E905108847002CE6D129786878814251
:1019D00006D1401CC0B26870022801D185F8018090
:1019E00005486978183040F82170BDE8F0411420AE
:1019F000FEF716BEBDE8F0810C0000200415014082
:101A000070B50C4605464FF48E71FFF772FEA18A41
:101A1000A068415CA08A401CA082C5F81C1570BD5E
:101A20001FB500228DF800208DF808108168019103
:101A30008275D0E90012684690471FBD00780128E2
:101A400001D1014988707047300000202DE9FF471F
:101A50000C4605464FF40071FFF751FE01274FF485
:101A60000178002618B34FF4927949462846FFF7CB
:101A70003BFEE0B149462846FFF73BFEC5F8088328
:101A8000A07E00B96F6002208DF80000D5F88004B8
:101A9000C5F880040390E07D8DF80800E0680190AF
:101AA000E6752676D4E900126846904727E00421BF
:101AB0002846FFF724FE10B34FF484712846FFF741
:101AC00013FEE0B121462846FFF784FEE07D617EEB
:101AD000884214D1207E38B1617EE268E0752069C9
:101AE000E0602676667607E0A07E00B96F60C5F8F4
:101AF0000883E675617EE2682046FFF784FE4FF4B6
:101B00008E7841462846FFF7EFFD88B1A08AA17D77
:101B1000884204D221462846FFF772FF08E041467A
:101B20002846FFF7E6FDA17D11B12046FFF778FFBB
:101B30004FF4A27841462846FFF7D6FD002812D080
:101B400041462846FFF7D5FDA07E00B12F60E07D1D
:101B5000002808D0E675617EE26804B02046BDE842
:101B6000F047FFF750BEBDE8FF872DE9FF410C4667
:101B70004FF4927705463946FFF7C7FD0026C0B1FE
:101B800039462846FFF7C6FD02208DF80000D5F83B
:101B90008004C5F880040390D5F83C058DF8080052
:101BA000E0680190E6752676D4E900126846904711
:101BB00024E04FF4887739462846FFF7A6FDE8B1C0
:101BC00039462846FFF7A6FDD5F83C05C1B2E07DB1
:101BD000884213D1207E60B1E268D5F8000220F07F
:101BE0002000C5F80002207EE0752069E0602676BE
:101BF00001E0E675E2682046FFF705FE4FF4A277A4
:101C000039462846FFF781FD68B139462846FFF777
:101C100081FDE07D38B1E675D5F83C05E268C1B2DA
:101C20002046FFF7F0FD4FF4907631462846FFF747
:101C30006CFD00280FD031462846FFF76BFDA07DD4
:101C4000002808D0D5F84C0504B0C1B22046BDE844
:101C5000F041FFF7E5BEBDE8FF8100008300000012
:101C60000704000000000000000000200200000047
:101C7000640000000000000000000050FFFFFFFFB4
:101C8000FFFFFFFFFFFFFFFFFFFFFFFF0000000060
:101C9000000000000000D60107010000290000003C
:101CA0000100000001000000010000000100000030
:101CB000010000000100000001000000020000001F
:101CC0004F766572666C6F770D0A0000EC1C0000A1
:101CD0000000002044000000A0090000301D0000AA
:101CE00044000020BC240000B009000000000000F7
:101CF00000C00140000000000000000000000000E3
:101D000000000000000000000000000000000000D3
:101D100000000000000000000000000000000000C3
:101D20000020004000000000C01C00000090D00314
:0400000500000401F2
:00000001FF
