:020000040000FA
:1000000090250020150400001D0400001F040000BE
:10001000210400002304000025040000000000006B
:1000200000000000000000000000000027040000A5
:1000300029040000000000002B0400002D04000033
:100040002F0400002F040000C10D0000150B00005C
:100050002F0400002F0400002F0400002F040000D4
:100060002F0400002F0400002F0400002F040000C4
:100070002F0400002F0400002F0400002F040000B4
:100080002F0400002F0400002F0400002F040000A4
:100090002F0400002F0400002F0400002F04000094
:1000A0002F0400002F0400002F0400002F04000084
:1000B0002F0400002F0400000000000000000000DA
:1000C0002F0400002F0400002F0400002F04000064
:1000D0002F0400002F0400002F0400000000000087
:1000E0000000000000000000000000000000000010
:1000F0000000000000000000000000000000000000
:1001000000000000000000000000000000000000EF
:1001100000000000000000000000000000000000DF
:10040000DFF80CD000F0F2FA004800478924000021
:10041000902500200648804706480047FEE7FEE793
:10042000FEE7FEE7FEE7FEE7FEE7FEE7FEE7FEE7A4
:10043000250B000001040000004870478C3B0000C1
:1004400040EA01039B0703D009E008C9121F08C056
:10045000042AFAD203E011F8013B00F8013B521ED6
:10046000F9D27047421C10F8011B0029FBD1801AF9
:1004700070472DE9F04D81EA030404F0004B21F0B0
:10048000004514464FF0000A23F0004150EA0502EF
:1004900020D054EA01021DD0C5F30A570246C5F325
:1004A0001303C1F31300C1F30A5640F4801543F45B
:1004B0008013A7EB0608101BD64608F2FD3873EB35
:1004C000050002D308F1010801E092185B41B8F180
:1004D000000F03DA00200146BDE8F08D00204FF444
:1004E0008011064684460EE0171B73EB050705D303
:1004F000121B63EB050306434CEA010C49084FEA63
:10050000300092185B4150EA0107EDD152EA030036
:1005100012D082EA040083EA0501084305D0101BCB
:10052000AB4106D20122002306E000224FF0004337
:1005300002E06FF0010253101AEB06004CEB085179
:1005400010EB0A0041EB0B01BDE8F04D00F097B84D
:1005500000F0004230F000400AD0C10D01F560719A
:10056000C0F3160042EA0151C20840071143704728
:1005700000200146704701F0004330B421F00041F3
:1005800050EA010206D00A0DA2F56072C1F3130110
:10059000002A02DC30BC00207047440F44EAC1044A
:1005A000C100E01830BC00EBC25000F031B82DE9BA
:1005B000F05F0546002092469B46884606468146E7
:1005C00040241BE0284641464746224600F02FFAC9
:1005D00053465A46C01A914110D311461846224636
:1005E00000F016FA2D1A67EB01084F46224601204B
:1005F000002100F00DFA17EB00094E41201EA4F176
:100600000104DFDC484631462A464346BDE8F09FF8
:100610000029A8BF7047401C490008BF20F0010016
:10062000704710B4B0FA80FC00FA0CF050EA0104F4
:1006300004BF10BC704749B1CCF1200421FA04F486
:1006400011FA0CF118BF012121430843A3EB0C015F
:10065000CB1D4FEA00614FEA102042BF002010BCC2
:10066000704700EBC35010440029A4BF10BC704772
:10067000401C490008BF20F0010010BC704710B5B5
:10068000141E73F1000408DA401C41F100019218B5
:100690005B411A4301D120F0010010BD2DE9F04D5E
:1006A00092469B4611B1B1FA81F202E0B0FA80F2B3
:1006B0002032904600F0ACF904460F4640EA0A00AA
:1006C00041EA0B0153465A46084313D0114653EAF8
:1006D000010019D0C8F14002504600F0A8F90546C3
:1006E0000E4650465946424600F092F9084305D05E
:1006F000012004E020463946BDE8F08D0020054386
:1007000046EAE0762C4337430A986305E40AA0EBF7
:1007100008000022FD0A44EA47540A3002D50020AE
:100720000146E9E7010510196941DDE908450019AD
:100730006941BDE8F04DA2E72DE9FE4F804681EA10
:100740000300C00F0C46009021F0004123F000454B
:10075000B8EB0200A94105D24046214690461C460E
:100760000B46024623F00040104347D0270DC7F345
:100770000A00C3F30A510290401A019040286BDA34
:10078000C3F3130040F4801B0098924620B100236D
:10079000D2EB030A63EB0B0B01985946C0F1400200
:1007A000504600F035F906460D4650465946019A26
:1007B00000F04DF910EB08006141002487EA115266
:1007C00084EAE7731A4340D0009A62B3019A012A7F
:1007D0004FEA075215DC001B61EB02014FF00042AB
:1007E00002EA0752CDE90042001C41F58011324671
:1007F0002B46FFF753FF03B0BDE8F08F404621467C
:10080000F9E7001B61EB0201001C41F580130018A1
:100810005B412018A2F5001747EB030140EAD570B1
:10082000B6196D4111E06D084FEA360645EAC0750C
:100830004FEA0752001B61EB0201001C41F58011D9
:1008400049084FEA30000019514132462B4603B0A7
:10085000BDE8F04FFFF713BF0098012240000023CE
:10086000D0EB020263EBE073009821464FEAE0749C
:10087000B8EB000061EB0401E9E783F000435BE7BC
:1008800081F0004158E72DE9FE4F81EA030404F0AE
:10089000004421F0004100944FF0000B23F000438E
:1008A00050EA01045ED052EA03045BD0C3F30A5459
:1008B000C1F30A552C44A4F2F3340194A0FB025472
:1008C000C1F3130141F48011C3F3130343F4801304
:1008D00001FB024400FB034E840A970A44EA815458
:1008E00047EA8357A4FB076802958D0A05FB078535
:1008F0004FEA932C04FB0C542705029D4FEA06583F
:1009000047EA1637B5EB08056EEB070C870E920E1B
:1009100047EA811742EA8312A7FB0201B6EB0B01FB
:1009200064EB00042B0D43EA0C335E1844EB1C50BF
:10093000DA465146E7FB0201C5F313044FEA0B33D5
:1009400043EA14534FEA0432019C43EA0603A4F13C
:100950000C040294009CCDE900B4FFF79FFE03B0A5
:10096000BDE8F08F00200146F9E770B521F00043A3
:1009700003430CD0C1F30A550024D5EB040564EB06
:100980000403D617AD1AB34102DB0020014670BD47
:10099000201841EB025170BD0EB5C10F80EAE07026
:1009A0000844CA07002140F233438DE80E000A468E
:1009B0000B46FFF773FE03B000BD000030B5041E08
:1009C00071F1000404DB4FF00044404264EB01018C
:1009D000141E73F1000405DB1C464FF00043524225
:1009E00063EB0403994208BF904230BD064C074DAB
:1009F00006E0E06840F0010394E8070098471034EF
:100A0000AC42F6D3FFF700FDA43B0000C43B00005E
:100A1000202A04DB203A00FA02F1002070479140BE
:100A2000C2F1200320FA03F3194390407047202AB3
:100A300004DB203A21FA02F00021704721FA02F388
:100A4000D040C2F120029140084319467047202A45
:100A500006DBCB17203A41FA02F043EAE07306E0E6
:100A600041FA02F3D040C2F12002914008431946F6
:100A700070472DE9F04D00231A461B1A8A4103DB0B
:100A800000200146BDE8F08DC1F30A52C1F3130105
:100A900041F480154FF0000BD10702D100186D41D1
:100AA000521E0027044640F2FF11384601EB620A4D
:100AB0003E468046024600204FF48011FFF7B7FF04
:100AC000C2197141BB1846EB0100B4EB030C75EB86
:100AD000000C04D3E41A65EB000517460E462419F2
:100AE00008F101006D4180463428E3DDF91946EB39
:100AF0000600091BA84103D24FF0FF32134601E064
:100B0000002213461BEB070046EB0A51BDE8F04DEF
:100B1000FFF7B5BD0149024801F00EBC30000020CE
:100B200000300040F0B598480023021D01780125EF
:100B3000101D4FF08056062907D11478240704D1E0
:100B40000478C4F30314032C02D0062904D00FE068
:100B50008F4F8E4C7C670EE01478240708D1047800
:100B6000C4F30314032C06D0042C04D0052C02D0AB
:100B7000062907D00EE0D6F84442864FC4F342342B
:100B80003C6002E01478240704D10478C4F3031411
:100B9000032C02D0062906D011E07F4C276827F0ED
:100BA000807727600EE01478240708D10478C4F316
:100BB0000314032C06D0042C04D0052C02D00629E3
:100BC0000AD011E04FF08044C4F80C31C4F8103161
:100BD000704C241F236002E01478240704D10478A9
:100BE000C4F30314032C02D0062905D00CE0694F8E
:100BF000032464373C600AE01478240704D10478A5
:100C0000C4F30314032C02D006290DD014E0634F63
:100C100005243C60614C78342560604C08342360C6
:100C20003F243F1D3C6002E01478240704D104787F
:100C3000C4F30314052C02D0062957D068E05849A4
:100C40000968584A11605649091D0968121D11604A
:100C5000534908310968121D116051490C31096866
:100C6000121D11604E4910310968121D11604C4966
:100C700014310968121D1160494918310968494A3F
:100C80002032116046491C310968121D1160444927
:100C900020310968121D1160414924310968121D73
:100CA00011603F4928310968121D11603C492C31FF
:100CB0000968121D11603A4930310968394A4032D9
:100CC0001160374934310968121D116034493831D7
:100CD0000968121D116032493C310968121D11600A
:100CE0002F4940310968121D116002E0117809078F
:100CF0000ED10078C0F30310032803D0042801D0DC
:100D0000052805D1D6F85802274900F04F000860A1
:100D100021487438016841F470010160BFF34F8FBE
:100D2000BFF36F8F4FF01021D1F80002002803DBD2
:100D3000D1F80402002822DA1C4A15601C48046815
:100D4000002CFCD01524C1F800420568002DFCD011
:100D5000C1F8044201680029FCD013600168002931
:100D6000FCD0BFF34F8F0C48F0380168114A01F4F2
:100D7000E06111430160BFF34F8F00BFFDE70F49F2
:100D80000D480860F0BD0000E00F00F00DF0ADBAB6
:100D900000C007403C050040FCED00E0105600405C
:100DA0000404001020C50040E40E004004E50140AA
:100DB00000E401400400FA050090D0032800002060
:100DC0000448017F04480029024901D002F08FBD88
:100DD00002F0FEBC58000020002000400FB41CB5FB
:100DE0000246002007AC00290BD0491ECDE90021A6
:100DF000054B6A462146069800F030FF009A002114
:100E000011701CBC5DF814FBBF20000003B40198F6
:100E10004100009850EAC12018BF04204A0D18BFB5
:100E200040F0010040F2FF72B2EB515F08BF40F0AA
:100E30000200012808BF052002B070470000000032
:100E40002DE9F04D2DED040B2DED0E8B96B0DDE967
:100E50002550279CDDF890A025F0004624F000489E
:100E6000BAF1000F14BF0121002101EB4502FC493A
:100E700053184A1093422AD3002814BF0123002399
:100E800003EB44030B44F7498B4220D358EA00019B
:100E90009FEDF59B76D0DFF8D8B35D4503D1BAF16D
:100EA000000F05D188E0BAF1000F08BF002100D083
:100EB000012101EB450111F5001F08D8002814BFDE
:100EC0000121002101EB440111F5001F0BD99DED1B
:100ED000261B9DED240B16B0BDEC0E8B04B0BDE8B7
:100EE000F04D00F069BE0027002DBCBFE1498845E8
:100EF00021DAE1498845A8BF02271CDAC3451ADC7C
:100F0000DE4901EB2851142908DDC1F1340220FA31
:100F100002F101FA02F282420DD108E058B9C1F1A2
:100F2000140228FA02F101FA02F2424503D101F05B
:100F30000101C1F1020756EA0A0124D1002C22DA8C
:100F4000002D18BF022F01D0012F0AD0022000F07F
:100F50007FFE16B0BDEC0E8B04B0BDE8F04D00F086
:100F600013BE022000F074FE00F00EFE51EC100BD8
:100F700081F0004141EC100B16B0BDEC0E8B04B0BB
:100F8000BDE8F08D18E09FEDBEAB9FEDBF8B002854
:100F900071D1B848804522D105F1804010F580100C
:100FA00008BFBAF1000F07D0B3450ADC002CA8BF78
:100FB0009DED260BE0DA0DE0B0EE490AF0EE690A8D
:100FC000DAE7002C06DA9DED260B51EC100B81F0D0
:100FD00000416FE0AE48784490ED000BCCE7D84577
:100FE0004DD1002C48DA2EB186423AD1BAF1000F29
:100FF00042D126E0BAF1000F13D0022000F028FE03
:1010000000F0F6FD8DED020B9DED240B8DED000B38
:1010100010EE900A039961F31E0003909DED020B00
:10102000AAE78DED02AB9DED240B1AEE901A10EE9F
:10103000900A8DED000B61F31E0003909DED020BF5
:101040009AE78DED028B9DED240B18EE901A10EEB1
:10105000900A8DED000B61F31E0003909DED020BD5
:101060008AE709DA9DED240B51EC190B53EC102B98
:10107000FFF7FFF91EE020E09DED240B7CE78642A0
:101080001BDAB4F1804F0DD0A4F10050B0F1FF5045
:1010900013D1002D11DB9DED240B51EC100B02F050
:1010A00087F907E09DED240B53EC102B51EC100B4E
:1010B00000F0C2BC41EC100B5EE79DED240B51EC3F
:1010C000100B01F0F1F8BAF1000FCDE90E0142D199
:1010D0009FED710B46B3A6F1E040B0F17F600CD0FC
:1010E0005E4538D1002D00DAA7B3022F0CBF0120D6
:1010F0004FF0FF30FFF750FCDCE7002D01DD002C46
:101100000DDA002D01DD002C1FDB002D16DA002C7E
:1011100014DB012F08BF9FED620B3FF42DAFB0EE43
:101120004A0AF0EE6A0A27E7022F18BF002D0CD0FA
:10113000012F0AD1002DFFF61FAF06E0002DB8BF2A
:10114000002C08DA012F3FF417AFB0EE480AF0EE9A
:10115000680A11E71BE0012000EBE57050EA070187
:1011600015D0791EB0EE498AF0EE698A084308BFAF
:101170009FED4D8B4E480025804570DD4D494E4812
:10118000884514DDB0420DDB002C19DB2FE0012077
:1011900000F05EFD16B0BDEC0E8B04B0BDE8F04D66
:1011A00000F016BDB34502DC002C09DC1FE08642CE
:1011B00002DA002C1BDA03E05E452BDD002C16DD85
:1011C000022000F045FD00F013FD8DED020B53EC05
:1011D0001A2B51EC180BFFF756FBCDE900010399D0
:1011E000019861F31E0003909DED020BC4E60220FE
:1011F00000F02EFD00F00CFD10EE901A18EE900A93
:101200008DED020B8DED008B61F31E0003909DEDC3
:10121000020BB1E69DED0E0B53EC192B51EC100BAC
:10122000FFF72BFB9FED260BCDE9080153EC102BAC
:101230009DED080B51EC100BFFF725FB9FED221BDA
:1012400053EC112BFFF71CFB9DED081B53EC112BEE
:10125000FFF719FB9FED1E1B53EC112B3CE08CE0BC
:10126000FFFF1F00FFFF0F00000000000000F03F25
:101270000000F03F0000F07F0000404301FCFFFF52
:10128000000000000000F07F0000000000000000EF
:10129000B62B0000000000000000000000000080ED
:1012A000000000000000F0FF000000000000F0BFA0
:1012B0000000E0410000F043FFFFEF3F00000000AE
:1012C000000000000000D03F555555555555D53FFD
:1012D000000000000000E03FFFF7D2FA9DED080B90
:1012E00041EC1A0B53EC102B51EC100BFFF7CBFA1F
:1012F00053EC1A2BFFF7C7FA41EC1A0B9FEDFE0BCC
:1013000053EC102B9DED080B51EC100BFFF7BBFAC3
:1013100041EC1B0B9FEDFA0B51EC1A0B53EC102B0D
:10132000FFF7B1FA41EC1A0B9FEDF70B53EC102BC2
:101330009DED080B51EC100BFFF7A5FA53EC1A2B9F
:10134000FFF79BFA41EC1A0B51EC1B0B53EC1A2BD9
:10135000FFF7F2F90690CDE906519DED060B53EC2F
:101360001B2B51EC100BFFF788FA53EC1A2BFFF7ED
:1013700087FA41EC100B00F0A1B90020B6F5801FF0
:101380000EDA9FEDE30B53EC102B9DED0E0B51ECA1
:10139000100BFFF778FACDE90E016FF034000E461E
:1013A00000EB2650A0F2FF37C6F31300DA4940F0F5
:1013B0007F6646F040568842D8BF002408DDD749F2
:1013C0008142C8BF012403DC0024A6F580167F1CDF
:1013D000D348784400EBC4000F9690ED00CB9DED10
:1013E0000E0B53EC1C2B51EC100BFFF746FA9DED46
:1013F0000E0B41EC1B0B53EC1C2B51EC100BFFF7AD
:101400009BF941EC100B51EC190B53EC102BFFF72F
:1014100030F841EC1D0B51EC1B0B53EC1D2BFFF76F
:1014200032FA41EC1A0BBF488DED10AB78441095A1
:1014300090ED000B4FF0005040EA660000EB844056
:101440008DED080B00F5002009909DED080B53EC85
:101450001C2B51EC100BFFF710FA9DED0E1B53ECFB
:10146000112BFFF70DFA41EC100B53EC102B9DEDF7
:10147000100B51EC100BFFF706FA9DED080B41EC39
:101480001C0B53EC102B9DED100B51EC100BFFF7C8
:10149000FAF953EC1B2BFFF7F3F953EC1C2BFFF776
:1014A000ECF953EC1D2BFFF7EEF941EC1C0B53EC60
:1014B0001A2B51EC1A0BFFF7E6F941EC1B0B9A487B
:1014C0000621B0EE4B0AF0EE6B0A784400F0E0FA29
:1014D000B0EE401AF0EE601AB0EE41DAF0EE61DAEA
:1014E00053EC1B2B51EC1B0BFFF7CDF953EC1D2BD1
:1014F000FFF7C9F99DED100B41EC1B0B53EC1A2BB8
:1015000051EC100BFFF718F953EC1C2BFFF7BBF94C
:1015100053EC1B2BFFF710F99DED100B41EC1B0B4F
:1015200053EC102B51EC100BFFF7ADF941EC1D0BF8
:101530009FED7FEB53EC1E2BFFF7FEF853EC1B2BBC
:10154000FFF7FAF80890CDE908519DED080B53EC30
:101550001E2B51EC100BFFF790F953EC1D2BFFF7EE
:101560008CF953EC1B2BFFF78BF99DED080B41EC2D
:101570001D0B53EC102B9DED100B51EC100BFFF7D6
:1015800082F941EC1B0B53EC1A2B51EC1D0BFFF7AE
:101590007AF99DED080B41EC1A0B53EC102B51EC32
:1015A0001C0BFFF770F953EC1A2BFFF7C5F841EC51
:1015B0001A0B51EC1B0B53EC1A2BFFF7BDF80C90D8
:1015C000CDE90C519DED0C0B53EC1B2B51EC100B8A
:1015D000FFF753F953EC1A2BFFF752F941EC1B0BB1
:1015E0009FED550B53EC102B9DED0C0B51EC100B9C
:1015F000FFF749F941EC1A0B9FED510B51EC1B0B16
:1016000053EC102BFFF73FF941EC1B0B9FED4E0BFA
:1016100053EC102B9DED0C0B51EC100BFFF733F935
:1016200053EC1B2BFFF788F841EC100B484878442B
:1016300000EBC40090ED001B51EC100B53EC112B90
:10164000FFF77AF841EC1B0B3846FFF7A5F9CDE917
:10165000080153EC1B2B51EC1A0BFFF76DF841EC12
:10166000100B3C48784400EBC40090ED00CB51ECEB
:10167000100B53EC1C2BFFF75FF89DED081B53EC90
:10168000112BFFF759F80690CDE906519DED080B97
:1016900053EC102B9DED060B51EC100BFFF7EDF802
:1016A00053EC1C2BFFF7E9F853EC1A2BFFF7E5F886
:1016B00053EC1B2BFFF7E4F841EC100B9DED261BC0
:1016C00053EC102B8DED001B00959DED260B51EC7E
:1016D000100BFFF7D8F89DED000B41EC1A0B53EC03
:1016E000102B9DED260B51EC100BFFF7C6F89DED6E
:1016F000061B53EC112B2FE0000000604715F73F4D
:10170000FE822B654715F73F44DF5DF80BAE543E74
:1017100000000000000040438E9803007AB60B00E2
:10172000AA26000060270000E2250000000000005B
:101730000000000000000840000000E009C7EE3F84
:10174000FD033ADC09C7EE3FF5015B14E02F3EBE16
:101750006E24000028240000FFF795F853EC1A2BA4
:10176000FEF7EAFF9DED060B41EC1A0B53EC102B34
:101770009DED000B51EC100BFFF785F8CDE90C0146
:101780009DED0C0B51EC1A0B53EC102BFEF7D4FF14
:10179000CDE902010C46AA498C422FDB611A0843AD
:1017A00018D19DED0C0B53EC102B9DED020B51EC61
:1017B000100BFFF762F841EC1B0B9FEDA30B51ECF4
:1017C0001A0B53EC102BFEF7B7FF53EC1B2BFFF754
:1017D000F5F82DD2022000F03BFA00F009FA10EEE5
:1017E000901A18EE900A8DED020B8DED008B61F3CF
:1017F0001E0003909DED020BFFF7BEBB944A24F040
:101800000041914214D39349214408437FF4EFAC43
:101810009DED0C0B53EC102B9DED020B51EC100BBE
:10182000FFF72BF853EC1A2BFFF7C8F87FF6DFAC65
:1018300024F000408849894A002601EB2051824269
:101840002BDA481C4FF4801121FA00F02044844A1E
:10185000C0F30A517A44A1F2FF3192ED000B814AA4
:101860008DED080BCA4020EA0202C0F3130040F4D9
:101870008010C1F1140120FA01F60992002CB8BFC2
:1018800076429DED080B53EC102B9DED0C0B51ECAB
:10189000100BFEF7F2FFCDE90C019DED0C0B51ECA6
:1018A0001A0B53EC102BFEF747FF9FED6F0B0890C0
:1018B000CDE9085153EC102B9DED080B51EC100BAA
:1018C000FEF7E1FF41EC1B0B9FED690B53EC102B76
:1018D0009DED080B51EC100BFEF7D5FF9DED0C0BA9
:1018E00041EC1C0B53EC102B9DED080B51EC100B35
:1018F000FEF7C3FF53EC1A2BFEF7C2FF9FED5E1BF2
:1019000053EC112BFEF7BFFF53EC1C2BFEF714FF1B
:1019100041EC1A0B51EC1B0B53EC1A2BFEF70CFF8E
:10192000CDE902019DED020B53EC1B2B51EC100B8A
:10193000FEF7A3FF53EC1A2BFEF7A2FF9DED020B5F
:1019400041EC1A0B53EC102B51EC100BFEF79BFFE4
:10195000CDE908014A489DED080B0521784400F0C7
:1019600097F89DED081B51EC100B53EC112BFEF773
:101970008AFF9DED021B53EC112BFEF781FFCDE991
:1019800006019DED020B53EC1A2B51EC100BFEF7E8
:101990007AFF53EC1A2BFEF7CFFE9FED3B0B41EC89
:1019A0001A0B53EC102B9DED060B51EC100BFEF7B0
:1019B00064FF9DED060B41EC1B0B53EC102B9DEDD2
:1019C000020B51EC100BFEF75EFF53EC1B2BFEF7E6
:1019D00050FD53EC1A2BFEF750FF9DED021B53EC0C
:1019E000112BFEF74AFF53EC192BFEF749FFCDE907
:1019F000020101EB065001150029C8BF039015DC58
:101A00009DED020B324651EC100BFEF7AEFFFFF7D7
:101A1000FDF9042808BF00F0FBF832469DED020BEB
:101A200051EC100BFEF7A1FFCDE902019DED020B79
:101A300051EC180B53EC102BFEF725FFFFF73ABBC8
:101A40000000904000000000FE822B654715973C87
:101A500000CC904000346F3F01FCFFFF0000E03FEE
:101A600038230000FFFF0F0000000000432EE63F78
:101A7000396CA80C615C20BEEF39FAFE422EE63FBD
:101A80008021000000000000000000000000004075
:101A900070B504462DED028B4D1E00EBC500B0EE77
:101AA000408AF0EE608A90ED000B35F0060017D00A
:101AB00053EC182B51EC100BFEF7E5FE41EC100B2C
:101AC0006D1E04EBC50090ED001B51EC100B53ECA8
:101AD000112BFEF731FE41EC100B35F00600E7D17B
:101AE000022D36D0042D1CD0062D1CBFBDEC028B60
:101AF00070BD53EC182B51EC100BFEF7C4FE94EDA7
:101B00000A1B53EC112BFEF717FE53EC182BFEF7B4
:101B1000BAFE94ED081B53EC112BFEF70DFE41ECC1
:101B2000100B53EC182B51EC100BFEF7ACFE94EDA0
:101B3000061B53EC112BFEF7FFFD53EC182BFEF7A1
:101B4000A2FE94ED040B53EC102BFEF7F5FD41ECD7
:101B5000100B53EC182B51EC100BFEF794FE94ED88
:101B6000021B53EC112BFEF7E7FD53EC182BFEF78D
:101B70008AFE94ED001B53EC112BFEF7DDFDBDEC4E
:101B8000028B41EC100B70BD9FED070B10B553ECB1
:101B9000102B9FED070B51EC100BFEF76AFC41EC8C
:101BA000100B10BD0000000000000000000000004D
:101BB000000000000000F03F10B553EC112B51EC79
:101BC000100BFEF7B9FD41EC100B10BD000000003A
:101BD0009FED050B10B553EC102B51EC100BFEF7DD
:101BE00048FC41EC100B10BD00000000000000009C
:101BF0009FED050B10B553EC102B51EC100BFEF7BD
:101C000042FE41EC100B10BD00000000000000700F
:101C10009FED050B10B553EC102B51EC100BFEF79C
:101C200032FE41EC100B10BD00000000000000105F
:101C300002E008C8121F08C1002AFAD17047704795
:101C4000002001E001C1121F002AFBD170470000F3
:101C500001490860704700002C0000202DE9FF4F6B
:101C60008DB00F460546002606E025280BD0DDE99D
:101C70000F1290476D1C761C28780028F5D111B002
:101C80003046BDE8F08F0024A246A1460122EC496F
:101C900000E0044315F8013F203B02FA03F008423C
:101CA000F7D128782A2810D06FF02F022878A0F1D9
:101CB0003001092914D80AEB8A0102EB410144F0F2
:101CC000020400EB010A6D1CF0E701CF5FEA000A95
:101CD00003D544F40054CAF1000A44F002046D1C18
:101CE00028782E2817D115F8010F44F004042A286B
:101CF0000ED06FF02F022878A0F1300109290AD800
:101D000009EB890102EB410100EB01096D1CF2E7CF
:101D100057F8049B6D1C28786C280FD006DC4C28E3
:101D200017D068280DD06A2814D104E0742810D088
:101D30007A280FD10DE044F400140AE044F4801432
:101D400001E044F440146978814202D104F5801422
:101D50006D1C6D1C2A786E2A1FD00CDC632A31D0D2
:101D600004DC002A8BD0582A11D1A3E0642A68D061
:101D7000692A0CD165E0732A2ED004DC6F2A73D057
:101D8000702A04D19BE0752A6FD0782A6ED0104655
:101D9000DDE90F129047761C50E1C4F3025002288F
:101DA00006D0032809D0042801CF09D0066045E1F8
:101DB00001CFF117C0E9006140E101CF06803DE1AC
:101DC00006703BE117F8040B8DF8000000208DF839
:101DD0000100EB46012003E057F804BB4FF0FF3051
:101DE00061074FF0000102D40DE008F101018846BF
:101DF00049450FDA8045F8DB1BF808100029F4D1BB
:101E000008E008F1010188468142FADB1BF808105E
:101E10000029F6D1DDE90F23AAEB0800814621460F
:101E200000F036F9304400EB080604E0DDE90F125B
:101E30001BF8010B9047B8F10108F7D2214648463C
:101E4000F7E00A21C4F302534FF0000B0891022B74
:101E500004D001CFC117032B09D00AE0FF1D27F0E2
:101E60000707F7E8020108E032E01FE020E000B2D7
:101E7000C117042B01D140B2C117031E71F1000339
:101E800007DA4FF0000CD0EB0C006CEB01012D23B6
:101E900002E0230504D52B238DF82430012303E031
:101EA000E30701D02023F7E7984658E00A2110E025
:101EB00010210EE010204FF0000B08900CE01021D4
:101EC0004FF0000B44F004044FF00809089103E0C0
:101ED00008214FF0000B0891C4F30253022B04D0E9
:101EE00001CF0021032B06D006E0FF1D27F00707D6
:101EF000F7E8020103E080B2042B00D1C0B24FF03A
:101F0000000823072BD5702A07D0DDF820C08CF0FD
:101F1000100C5CEA0B0C05D00EE040238DF8243049
:101F2000012308E050EA010306D030238DF8243065
:101F30008DF8252002239846DDF820C08CF0080C8F
:101F40005CEA0B0C0BD150EA010301D1630706D503
:101F500030238DF824304FF00108A9F10109582AE7
:101F600004D038A20B9208AA0A920BE03AA2F9E731
:101F70005B46089AFEF71BFB0B9B9B5C0A9A521E62
:101F80000A92137050EA0102F2D10A98ADEB0000F8
:101F900000F1200B600702D524F4803401E04FF0FB
:101FA0000109D94502DDA9EB0B0000E0002000EBA0
:101FB0000B0141440890AAEB010AE00306D4DDE9D5
:101FC0000F232146504600F063F806444FF0000905
:101FD00008E009A911F80900DDE90F12904709F19D
:101FE0000109761CC145F4DBE0030CD5DDE90F23C4
:101FF0002146504600F04CF8064404E0DDE90F129B
:1020000030209047761C0899481E08900029F5DC7E
:1020100008E00A980A990078491C0A91DDE90F1234
:102020009047761CBBF10001ABF1010BF1DC2146BE
:102030005046DDE90F2300F019F806446D1C1BE63D
:10204000092801003031323334353637383961628E
:102050006364656600000000303132333435363752
:102060003839414243444546000000002DE9F04123
:10207000044600251E461746880404D405E0394668
:102080002020B0476D1C641EF9D52846BDE8F081BC
:102090002DE9F041044600251E469046C80301D5AF
:1020A000302700E02027880404D505E04146384663
:1020B000B0476D1C641EF9D52846BDE8F0814A681A
:1020C000002A06D00A68531C0B6010704868401E36
:1020D000486070470BA1012000F03EFF00F096FE23
:1020E00000F098FE0028FBD1BFF34F8F0B4801682A
:1020F0000B4A01F4E06111430160BFF34F8F00BF51
:10210000FDE700004150505F4552524F523A455250
:10211000524F523A466174616C0D0A000CED00E0BA
:102120000400FA050EB500210091CDE901106A46C0
:1021300044F20100FFF7CEFF0EBD00F003B800F03F
:1021400009B8000072B602480168491C0160704776
:102150001400002003490868401E086000D162B6E0
:1021600070470000140000202DE9F0410646086881
:102170000C46411C4FF0A0474FF0010506D005FA70
:1021800000F1C7F80815206800F0CCFC6068411C1D
:1021900002D0002100F0BDFC3079204901EB401055
:1021A000A169007F00283068C0F8241525D0607D23
:1021B000227D31681043C1F86C05D4E90012306803
:1021C000C0F80C15C0F8142524E0A068411C02D00A
:1021D000002100F09EFCE068411C05D08540C7F856
:1021E0000855E06800F09EFCD4E902123068C0F89F
:1021F0000825C0F81015BDE8F081607D217D3268AA
:102200000843C2F86C05D4E900123068C0F8142500
:10221000C0F80C15207D0128D7D0ECE7580000202D
:10222000002901DA00207047026811440160012092
:102230007047000070B5461C0D4601240020FFF7D2
:102240007CFF114A10682860D2E900109568081ACE
:102250002B1A701C5B1C98420FD963B10B480C4BB6
:10226000294000681B6802EB810163F39F20C8606E
:102270001068401C1060002401E0881910600020E4
:10228000FFF75DFF204670BD78010020583A00003E
:1022900024000020034803C8814201D10120704777
:1022A000002070477801002082B0CDE9000121F0C4
:1022B000004001909DED000B02B051EC100B7047F7
:1022C00070B50E460446007918494FF4A27501EB2B
:1022D0004010017F2068A1B14FF4887100F0D1FE59
:1022E0004FF49071206800F0CCFE4FF4927120689A
:1022F00000F0C7FE2946206800F0C3FE0C492068A4
:1023000009E04FF48E7100F0ABFE2946206800F022
:10231000A7FE08492068C0F80413206800F04FFAAF
:102320003146BDE8704000F02EBA00005800002091
:1023300010030200800002002DE9FF470D464FF414
:1023400092770446394600F07BFE4FF002094FF0C9
:1023500001084FF4827640B13946204600F075FE00
:102360003146204600F06CFEB0B3B24631462046FE
:1023700000F066FE4FF0FF36002770B3514620464E
:1023800000F063FE05F10C0001AB07C883E807000D
:1023900095F8230078B1287B01282DD0D4F84C057E
:1023A000C0B28DF80600287B022828D0D4F84C054E
:1023B000C0B28DF807004FF4B071204600F045FE22
:1023C0004FF4AE71204600F040FE95F8250080B332
:1023D00095F8230068BB3CE000E013E0A868C4F86F
:1023E0000803C5F80890A868C4F80403C4F820805E
:1023F000C4F81480BDE8FF87D4F83C05D0E7D4F8D2
:102400003C05D5E74FF4A471204600F01EFE287B62
:1024100080B14FF40070C4F80002801CA860C4F8BA
:102420000863A868C4F80403C4F80880C4F82080CE
:10243000E0E708E005F10C0001AB07C883E80700FE
:1024400095F8250028B90020C4F80002AF60C4F850
:102450000863D4F8C404C4F8C404810702D58DF815
:10246000008006E0400702D58DF8009001E08DF86D
:10247000007095F8250008B985F82470D5E9002189
:1024800068469047B6E700002DED028B002000F073
:10249000C5FD08B1FFF746FE38A1032000F05CFD42
:1024A00000F0B8FC0028FBD101F034F840A1032073
:1024B00000F052FD00F0AEFC0028FBD10A2000F035
:1024C000C5F800F021FE0A2000F0C0F840A103206A
:1024D00000F042FD0A2000F0B9F8DFED458A9FEDDB
:1024E000458A4FF47A7400BF00F018FFB5EEC00AB9
:1024F000F1EE10FAFDEEC00AF8EEE00A02DD70EE31
:10250000600A01E070EEC00ABDEEC00A3AA10320E5
:1025100060EE880A10EE102AFDEEE00A10EE903A06
:1025200000F040FD642000F091F8B0EE680A00F081
:1025300097FEB5EEC00AF1EE10FAFDEEC00AF8EE15
:10254000E00A02DD70EE600A01E070EEC00ABDEE46
:10255000C00A34A1032060EE880A10EE102AFDEEB6
:10256000E00A10EE903A00F01DFD204600F06EF8F3
:1025700000F050FC0028FBD1B6E700004661426F36
:102580005F3230345F4261726F6D65746F723A49C9
:102590004E464F3A4661426F5F4261726F6D65749D
:1025A0006F725F3230342053616D706C650D0A00BC
:1025B0004661426F5F3230345F4261726F6D6574A5
:1025C0006F723A494E464F3A52455345540D0A00F0
:1025D0004661426F5F3230345F4261726F6D657485
:1025E0006F723A494E464F3A496E69742E0D0A0091
:1025F000000054430000C8424661426F5F323034ED
:102600005F4261726F6D65746F723A494E464F3A20
:1026100054656D703A81812025642E253032640D19
:102620000A0000004661426F5F3230345F426172DF
:102630006F6D65746F723A494E464F3A6850613A11
:102640002025642E253032640D0A00004FF47A7183
:10265000484300F001B8000000283ED01F49204A3E
:10266000096800BF00BF00BF00BF00BF00BF00BFC0
:1026700000BF91422FD000BF00BF00BF00BF00BF0E
:1026800000BF00BF00BF00BF00BF00BF00BF00BF52
:1026900000BF00BF00BF00BF00BF00BF00BF00BF42
:1026A00000BF00BF00BF00BF00BF00BF00BF00BF32
:1026B00000BF00BF00BF00BF00BF00BF00BF00BF22
:1026C00000BF00BF00BF00BF00BF00BF00BF00BF12
:1026D00000BF00BF00BF0138C3D1704728000020F1
:1026E0000024F40000283ED01F49204A096800BF9A
:1026F00000BF00BF00BF00BF00BF00BF00BF9142CE
:102700002FD000BF00BF00BF00BF00BF00BF00BF91
:1027100000BF00BF00BF00BF00BF00BF00BF00BFC1
:1027200000BF00BF00BF00BF00BF00BF00BF00BFB1
:1027300000BF00BF00BF00BF00BF00BF00BF00BFA1
:1027400000BF00BF00BF00BF00BF00BF00BF00BF91
:1027500000BF00BF00BF00BF00BF00BF00BF00BF81
:1027600000BF0138C3D17047280000200024F400C6
:1027700000F01F02012191404009800000F1E0209B
:10278000C0F8801170474907090E002806DA00F0EA
:102790000F0202F1E02282F8141D03E000F1E022B2
:1027A00082F8001400F01F020121914040098000CE
:1027B00000F1E020C0F88012C0F800117047000B53
:1027C00040B270470121B1EB507F01D10120704729
:1027D000002070470121B1EB507F01D101207047EB
:1027E000002070470179064A01EB8101006802EB85
:1027F000C1010622C0F80025022081F8220070479E
:102800003000002070B506460D4600791F4900EBE8
:10281000800001EBC00494F8220008B1082070BDCC
:102820000020C4E90023A06084F8250084F8240077
:10283000A87B84F82700687B10B1284600F00AFEC8
:10284000296840F20C60890001F1A041C1F800073D
:102850006968890001F1A041C1F80007D5E90012BB
:102860003068C0F80815C0F80C25A968C0F8241510
:10287000206828B13068297B000B40B2FFF783FF46
:10288000012084F82200002070BD000030000020EC
:102890003EB5074D2C68AD6800948DF8011001928B
:1028A00002958DF802300022694600F015F83EBD11
:1028B0002C3A00003EB500250095069C8DF80110CD
:1028C00002958DF8023001920CB1202200E0002226
:1028D000694600F001F83EBD30B40379064C03EBC5
:1028E000830304EBC304006813460A4601462046EE
:1028F00030BC00F027BE0000300000202DE9F04180
:1029000005460079164F904607EB40140E46E07ED0
:1029100010B10820BDE8F081707F20772846FFF7CE
:1029200023FC5FEA080060603169216003D0317FD9
:102930002846FFF7C5FC287907EB4010007F0028E8
:10294000286801D0082100E00421C0F8001500200B
:10295000E0752076A0750121E176A076DAE7000027
:10296000580000202DE9F047054600793F4E90467B
:1029700006EB40140F46207F18B10846FFF72AFFE8
:1029800030B1284600F074F820B11120BDE8F0877E
:102990001020FBE784F81680A7600027A78228791B
:1029A0004FF0010806EB40143E46207F00282868BF
:1029B00025D04FF49079494600F063FB4FF4AC7A90
:1029C0005146286800F05DFB2868A17DA268C0F828
:1029D0004425C0F848152868C0F808806068F0B938
:1029E0004946286800F048FB80465146286800F0B8
:1029F00043FB58EA0001F3D058BBA7750FE04FF432
:102A00008E7A514600F02CFB2868C0F808802146D9
:102A1000286800F0B7FE61684FF4807089B13046D5
:102A2000B4E75146286800F016FB10B9A08A484563
:102A3000F7D1A08A484505D02146286800F0A2FEBB
:102A400000E08146A08AA17D8842EAD3A08A484559
:102A500001D10F26D1E75146286800F0FCFA002882
:102A6000F9D02868C0F80C80C7E7000058000020A3
:102A70000079044901EB4010807D002800D001203E
:102A8000704700005800002070B5044600791149D5
:102A9000002601EB401520682A7FC0F800656868B1
:102AA00088B1207901EB4010007F0028206801D018
:102AB000094901E008498C39C0F808132068FFF77C
:102AC0007EFEFFF755FE204600F0E2FAEE766E60DD
:102AD00070BD0000580000201003020070B541EAEC
:102AE0004201DDE904564FF0A04441EA830141EA86
:102AF000052104EB800041EA0641C0F8001770BDD3
:102B00001CB5002100910B4601220191FFF7E6FF61
:102B10001CBD1CB500220B46009211460192FFF726
:102B2000DDFF1CBD1CB5002100910B460122019167
:102B30001146FFF7D3FF1CBD4FF0A0420121814099
:102B4000C2F808157047000000487047C12B00000C
:102B500030B5184C054689B0207828B16078854298
:102B600002D1002009B030BD202213496846FDF78C
:102B700067FC00208DF814000620009008200190CA
:102B800005200390072002904FF0EB700690094853
:102B9000001DFFF779FF0DB1002200E0074A05484C
:102BA0006946001DFFF7AAFE0028DBD10120207036
:102BB0006570D6E718000020383A0000C1370000E1
:102BC0002DE9F04FC1B00D004FF0000140914D983C
:102BD0004B991C46174601EB000B01D00A2000E080
:102BE0000020804600F0C8FB00287CD16E46BCB9AE
:102BF000409840AA3118284600F012FC002872D0F4
:102C00003846FDF72FFCC22800D9C220054640985F
:102C10002A4630443946FDF713FC4098284440903A
:102C20004FF0200A409901EB080231320DEB01050B
:102C30000DEB0206002002E005F801AB401C404508
:102C4000FAD300275C4508D305F801AB05F801ABC2
:102C500005F801AB06F801AB2DE04B98844202D297
:102C60004A98005D02E0211A4C98405C2B46814650
:102C700002460121880022FA00F000F00F00092826
:102C800001D9373000E03030C1F1010C491E03F8A2
:102C90000C00EFD29D1C05F801ABFDF7CDFB0168E0
:102CA00011F8090010F03E0F01D0484600E02E2038
:102CB00006F8010B641C7F1C102FC3D30D2030704D
:102CC0000A20707085F800A040996846414443315D
:102CD000409100F057FB30B100F04EFB18B90020D6
:102CE00040905C459ED341B02046BDE8F08F2DE971
:102CF000F043C7B000251C46904689464E9F459537
:102D000000F03AFB00287AD1459805AE311845AA63
:102D1000484600F085FB002835D0072F27D2DFE892
:102D200007F004121B35424F5D004046FDF79AFB49
:102D3000054645982918FF2919D830442A464146A6
:102D4000FDF77EFB13E045982368C0F580713044A1
:102D50004246FEF743F809E0606800904598236812
:102D6000C0F5807130444246FEF738F805462946E2
:102D700045A8FFF755FA459978B3B1F5807F3ED85D
:102D800005A800F0FFFA47B0BDE8F083D4E90101DF
:102D9000CDE9000145982368C0F580713044424672
:102DA000FEF71CF8E2E7201D07C88DE807004598EC
:102DB0002368C0F5807130444246FEF70FF8D5E72E
:102DC000201D0FC88DE80F0045982368C0F580715D
:102DD00030444246FEF702F8C8E710E004F108006C
:102DE00001AD0FC885E80F00606800904598236822
:102DF000C0F5807130444246FDF7F0FFB6E7002091
:102E0000C1E7000000487047EF2C00000120FFF7E9
:102E10009FBE00002DE9F04F87B0FFF73BFA18B1D5
:102E2000002007B0BDE8F08F454ED6E9014704EA1F
:102E3000070006EB8000A146641CC5680CE000BFDB
:102E4000C5F3891000EB9550044404EA070006EB33
:102E50008000A146C568641CA807F1D005F00300F6
:102E60004FF0000B022805D0AA0A01A8C5F383136E
:102E7000002153E004EA070006EB800004F1010A98
:102E80000AEA0704C268381B80004FEA9558001D03
:102E9000C5F38913804521D929490C3138B106EB96
:102EA000840400F0FF0CA8EB00000C3404E00C4696
:102EB000002108F0FF0C0846C0B2CDE90210CDE9B0
:102EC000004CD6F81444C5F3C2005946A04740450B
:102ED00011D108F103080AEB98042AE0002106EB5F
:102EE00084000C300090CDE901810391C5F3C2004C
:102EF000D6F81444EAE760F38F1509EA070006EBF9
:102F00008000C56016E000BF04EA070C06EB8C0CDD
:102F1000491CDCF80CC040F804CB641C9942F3D384
:102F2000C5F3C2000093D6F8105401AB5946A84728
:102F300000B17460FFF7AEF980F0010071E70000A6
:102F400078010020034AFF2393600023136053603D
:102F500000F05CB8780100202DE9F8430F4F884657
:102F60000446002569462846BE68FFF763F9002835
:102F700012D00B480021406861F38200009964F38D
:102F8000C50001EA060265F3891007EB820268F3C7
:102F90009F20491CD0600091BDE8F8837801002093
:102FA000583A00002DE9F84F164C8846064602278D
:102FB0009A46914669463846A568FFF73BF90028CE
:102FC0001ED01148C168002060F38201009866F3AA
:102FD000C50100EA050267F3891104EB820268F378
:102FE0009F21401CD16000EA050204EB8202401CD4
:102FF000C2F80C900090284004EB8000C0F80CA0B0
:10300000BDE8F88F78010020583A0000024A02F526
:10301000826203C2704700007801002070B5064646
:103020000020FFF795FD040008D1FFF78DFD054650
:10303000FFF7E8FE32462946FFF784FF204670BDC1
:103040004058002800D00120704708B500224250A7
:103050004058009008BD4058002800D0012070471B
:1030600008B5002242504058009008BDD0F8040333
:10307000084000D0012070474058002800D00120AF
:10308000704708B5002242504058009008BD00002B
:1030900070B5034600791B4901EB40101968027FA7
:1030A0004FF0FF30002AD1F80C25D1F81465D1F883
:1030B0000855D1F8104504D0C1F80C05C1F8140525
:1030C00003E0C1F81405C1F80C051968C1F808053A
:1030D000C1F81005501C02D01046FFF711FD701CFE
:1030E00002D03046FFF70CFD601C02D02046FFF7EF
:1030F00007FD681C04D02846BDE87040FFF700BDFE
:1031000070BD0000580000201CB56A46082104204C
:1031100000F0DCF84FF47A70FFF798FA9DF80100A0
:103120009DF80210F4EE000A00EB012000EE100AF8
:103130001A48B8EE400A20EE200ADFED190A80EDA9
:10314000010A9DF8032002EB012100EE101AB8EEEF
:10315000400A20EE200ADFED130A80ED020A9DF8F6
:1031600005109DF8042001EB022100EE101AB8EEC4
:10317000400A20EE200ADFED0C0A80ED030A9DF8DC
:1031800007109DF8062001EB022100EE101AB8EEA0
:10319000400A20EE200A80ED040A1CBD0000002039
:1031A00000000039000080380000803338B50C463C
:1031B00005460121122000F013FC0320FFF746FA18
:1031C0006A460421002000F081F80A20FFF73EFA49
:1031D000BDF8000040BA8109BDF8020040BA82097A
:1031E0001A4800EE102AD0ED020AB8EE400A90ED1F
:1031F000041A41EE000A00EE101AB8EE401A90EDE3
:10320000010A00EE810A00EE902A90ED031AF8EE12
:10321000600A01EE200A9FED0E1ADFED0E0A40EE65
:10322000010A00EE102A9FED0D1AB8EE400AC5ED16
:10323000000ADFED090A70EE600A80EE810AF3EE03
:10324000090A30EEC00A84ED000A38BD00000020F3
:10325000AAA8223F0000FA43000000443333AB40E9
:1032600000B52DED028B83B0B0EE408A01A968460F
:10327000FFF79CFFDFED120A88EE200AF7EE000A46
:1032800030EEC00A10EE100AFDF762F941EC100BA7
:103290009FED0C1BFDF7D4FDB0EE408AF0EE608A86
:1032A0000098FDF755F953EC182BFDF7E2F8FDF700
:1032B00062F903B000EE100ABDEC028B00BD000005
:1032C000002A2D47000000C01E0515407CB515469C
:1032D0008DF804008DF805100024022301AA602156
:1032E0000C480094FFF7E6FA08B1FEF71BFF0A4E00
:1032F00030780028FCD00A20FFF7A8F934700423A6
:103300002A4660210348FFF7C3FA002801D0FEF7E0
:1033100009FF7CBD143A0000000000201CB569467E
:1033200001A8FFF743FF9DED000A1CBD70B50546DF
:10333000C87D0C4600284FF4847128460AD0FFF758
:103340008FFED5F81805627EE1688854607E401CC7
:10335000607670BDFFF784FED5F8180570BD1FB507
:1033600001238DF800308DF808100192D0E9001289
:10337000684690471FBD00000148FFF779BB000079
:103380001C00002070B50D460A460146012406487F
:10339000FDF756F8EAB204490448FFF7E3FA00B132
:1033A0000024204670BD0000780000201C00002092
:1033B00000B52DED048B83B041EC190BFDF759FBE3
:1033C00041EC180B18EE100A18EE901A8DED008BD8
:1033D000002818BF0120084320F00040C0F17F60A2
:1033E00000F1E040C00F14D019EE101A19EE900A47
:1033F0008DED009B002918BF0121084320F00040FB
:10340000C0F17F6000F1E040C00F04BF0120FEF773
:103410001FFC51EC180B03B0BDEC048B00BD000089
:1034200010B5144602004FF001000CD00846136896
:1034300006A24FF48071FDF7D1FC01462046BDE89D
:103440001040FEF7EDBE0021216010BD5B25303835
:10345000645D00002DE9F041044640F20C602168F3
:10346000890001F1A041C1F800076168890001F1FC
:10347000A041C1F800072068FFF75EFB6068FFF716
:103480005BFB216840F20D60890001F1A041C1F8A9
:1034900000076168890001F1A041C1F8000704201C
:1034A000FFF720F900274FF0A04601252179D6F833
:1034B0001005C84010F0010F02D0002F1DD010E001
:1034C000217805FA01F0C6F80C050420FFF70AF987
:1034D0002068FFF731FB0420FFF704F97F1C092F58
:1034E000E4DB20798540C6F80C550420FFF7FAF894
:1034F0006068BDE8F041FFF71FBBBDE8F081000048
:103500000078002802D102490120087070470000AD
:10351000000000201FB5094B0FCB8DE80F000748B6
:103520000023074A69460838FFF76CF908B1FEF72F
:10353000F9FD02480838FFF755F91FBD1C3A000095
:10354000013500002DE9F05F06461F4615460C4682
:103550004FF0000A4FF0080B4FF482795068FFF7E4
:1035600031F900287ED04FF0FF30C4F8080396F8F8
:10357000240028B1B068C4F804031120BDE8F09F0E
:10358000780703D4F80601D4012000E0002086F873
:10359000240095E8070006F10C0383E80700C7F351
:1035A000001086F825006878C4F888054FF4827109
:1035B0002046FFF74AFD4FF492712046FFF745FD84
:1035C000F8074FF0010800D04046C4F85005B8078E
:1035D00001D5404600E00020C4F8400528780028C6
:1035E0006CD001287DD002284ED0032814D04FF093
:1035F000070A380704D42878032801D044F80B8040
:10360000306800286ED0780702D54FF40070B060A3
:10361000B068C4F80403B0E0A868FFF7D3F808B3B3
:103620004FF48070C4F80002A9786868C4F84405B3
:10363000C4F848154FF4A8712046FFF706FD4FF473
:10364000B0712046FFF701FD4FF4A4712046FFF74B
:10365000FCFCC4F82080C4F8088000BF4FF4A871B7
:10366000204600E028E0FFF7EBFC0028F6D04FF4FE
:10367000A8712046FFF7E9FCE878A968C4F844156A
:10368000C4F848053E4815E0A8786968C4F84415B0
:10369000C4F84805A868FFF795F868B1E878A96804
:1036A000C4F83415C4F838054FF48450C4F8000247
:1036B00040F20220B0609CE710205FE7A8786968BC
:1036C000C4F84415C4F84805B8060FD54FF4807007
:1036D000C4F800022A48B0604FF4A4794946204655
:1036E00001E00CE01BE0FFF7B0FC05E04FF40070D8
:1036F000C4F80002801CB060C4F8208079E7A87884
:103700006968C4F83415C4F838054FF48050C4F81B
:10371000000240F20220B0604FF0000BECE745469B
:103720004FF482774FF492780BE041462046FFF742
:1037300087FC30B141462046FFF787FC2562656172
:10374000B94649462046FFF77BFC0028EDD0D4F867
:10375000C404C4F8C404002186F8241068B103210D
:10376000C20701D04FF40241820701D548F201217E
:10377000400701D548F202218A465046FEE6000085
:103780000002040070B50C4605464FF48E71FFF739
:1037900067FCA18AA068415CA08A401CA082C5F891
:1037A0001C1570BD1FB500228DF800208DF8081083
:1037B000816801918275D0E90012684690471FBD6B
:1037C0000078012801D10149887070471800002055
:1037D0002DE9FF470C4605464FF40071FFF746FC04
:1037E00001274FF40178002618B34FF49279494627
:1037F0002846FFF730FCE0B149462846FFF730FC89
:10380000C5F80883A07E00B96F6002208DF8000023
:10381000D5F88004C5F880040390E07D8DF8080099
:10382000E0680190E6752676D4E900126846904774
:1038300027E004212846FFF719FC10B34FF48471E8
:103840002846FFF708FCE0B121462846FFF76EFD49
:10385000E07D617E884214D1207E38B1617EE268CD
:10386000E0752069E0602676667607E0A07E00B904
:103870006F60C5F80883E675617EE2682046FFF751
:103880006EFD4FF48E7841462846FFF7E4FB88B181
:10389000A08AA17D884204D221462846FFF772FF04
:1038A00008E041462846FFF7DBFBA17D11B1204629
:1038B000FFF778FF4FF4A27841462846FFF7CBFB8D
:1038C000002812D041462846FFF7CAFBA07E00B16F
:1038D0002F60E07D002808D0E675617EE26804B0C4
:1038E0002046BDE8F047FFF73ABDBDE8FF872DE968
:1038F000FF410C464FF4927705463946FFF7BCFB73
:103900000026C0B139462846FFF7BBFB02208DF8E0
:103910000000D5F88004C5F880040390D5F83C0574
:103920008DF80800E0680190E6752676D4E900126B
:103930006846904724E04FF4887739462846FFF7D9
:103940009BFBE8B139462846FFF79BFBD5F83C05C1
:10395000C1B2E07D884213D1207E60B1E268D5F823
:10396000000220F02000C5F80002207EE0752069EA
:10397000E060267601E0E675E2682046FFF7EFFC9E
:103980004FF4A27739462846FFF776FB68B13946EF
:103990002846FFF776FBE07D38B1E675D5F83C05A3
:1039A000E268C1B22046FFF7DAFC4FF49076314668
:1039B0002846FFF761FB00280FD031462846FFF765
:1039C00060FBA07D002808D0D5F84C0504B0C1B23A
:1039D0002046BDE8F041FFF7E5BEBDE8FF810000ED
:1039E0001CB502238DF8040000208DF8051000900E
:1039F00001AA60210548FEF75DFF08B1FEF792FBC2
:103A0000034801780029FCD01CBD0000143A0000D6
:103A10000000002000300040000100001B000000FA
:103A20001A000000000098010200000001000000E0
:103A30000000000000000000FFFFFFFFFFFFFFFF8E
:103A4000FFFFFFFFFFFFFFFF00000000000000007E
:103A50000000D6010701000029000000010000005D
:103A60000100000001000000010000000100000052
:103A70000100000001000000020000000000000042
:103A8000000000000000F03F000000000000F83FD0
:103A900000000000000000000000004003B8E23F0A
:103AA000000000000000000006D0CF43EBFD4C3EBC
:103AB000033333333333E33FFFAB6FDBB66DDB3FB1
:103AC0004D268F515555D53F01411DA96074D13FF9
:103AD00065DBC9934A86CD3FEF4E454A287ECA3FF3
:103AE0003E5555555555C53F93BDBE166CC166BF75
:103AF0002CDE25AF6A56113FF16BD2C541BDBBBE6E
:103B0000D0A4BE726937663E00404040404040400D
:103B100040404141414141404040404040404040A0
:103B20004040404040404040400502020202020244
:103B30000202020202020202022020202020202093
:103B400020202002020202020202909090909090A7
:103B50001010101010101010101010101010101065
:103B600010101010020202020202888888888888D9
:103B700008080808080808080808080808080808C5
:103B8000080808080202020240000000093B000089
:103B900000000000000000004F766572666C6F77D1
:103BA0000D0A0000C43B00000000002030000000AF
:103BB000301C0000F43B00003000002060250000B5
:103BC000401C000000000000000000000000000099
:103BD00000000000000000000000000000000000E5
:103BE0000020004000000000983B00000090D0033F
:043BF00000000000D1
:0400000500000401F2
:00000001FF
