:020000021000EC
:10F000000000012059F5010081F5010083F50100A0
:10F0100085F5010087F5010089F501000000000079
:10F020000000000000000000000000008BF501005F
:10F030008DF50100000000008FF5010091F5010041
:10F040000D2A020093F5010049700200CDC50200AF
:10F0500093F5010093F501002530020093F50100BE
:10F0600093F5010093F5010093F5010093F501007C
:10F0700093F5010093F5010093F5010093F501006C
:10F0800093F50100051E020093F5010093F50100C0
:10F09000C91E020093F501003D29020093F501000D
:10F0A00093F5010093F5010093F5010093F501003C
:10F0B00093F5010093F5010000000000000000003E
:10F0C00093F5010093F5010093F5010093F501001C
:10F0D00093F5010093F5010093F501000000000095
:10F0E0000000000000000000000000000000000020
:10F0F0000000000000000000000000000000000010
:10F1000000000000000000000000000000000000FF
:10F1100000000000000000000000000000000000EF
:10F4000010B5054C237833B9044B13B10448AFF35E
:10F4100000800123237010BDDC21002000000000CB
:10F42000B0D60200084B10B51BB108480849AFF32D
:10F4300000800848036803B910BD074B002BFBD0C0
:10F44000BDE81040184700BF00000000B0D6020021
:10F45000E0210020B821002000000000154B002B07
:10F4600008BF134B9D46A3F5803A00218B460F46FB
:10F470001348144A121A00F065F80F4B002B00D005
:10F4800098470E4B002B00D0984700200021040025
:10F490000D000D48002802D00C48AFF3008000F0AA
:10F4A0002BF82000290000F039FC00F011F800BF13
:10F4B0000000080000000120000000000000000023
:10F4C000DC2100206034002000000000000000006B
:10F4D00008B5074B044613B10021AFF30080054B7C
:10F4E0001868836A03B19847204600F033F800BFDC
:10F4F0000000000010D0020070B50E4B0E4CE41A54
:10F50000A41000251E46A54204D056F82530984781
:10F510000135F8E70DF06EFD084C094BE41AA41014
:10F5200000251E46A54204D056F8253098470135DF
:10F53000F8E770BDB0210020B0210020B4210020E8
:10F54000B021002002440346934202D003F8011B7D
:10F55000FAE77047FEE700BF0649074A074B9B1AC8
:10F5600003DD043BC858D050FBDC00F013F8FFF774
:10F5700075FF0000BCD6020028210020DC210020FD
:10F58000FEE7FEE7FEE7FEE7FEE7FEE7FEE7FEE753
:10F59000FEE7FEE7F0B5854B1B78062B0ED0844ABC
:10F5A000D2F8883043F47003C2F88830BFF34F8F2D
:10F5B000BFF36F8F7F4B804A1A60F0BD7F4B1B6893
:10F5C0001E07ECD17E4B1B6803F0F003302B60D09C
:10F5D0007B4B1B6803F0F002302A4BD003F0E003B2
:10F5E000402B47D0764B1B6803F0F003302B00F024
:10F5F000CD80734B1B6803F0F002302A28D003F053
:10F60000E003402B24D06E4B1B6803F0F003302B3B
:10F6100000F0AE806A4B1B6803F0F003302B00F063
:10F620008E80674B1B6803F0F003502B35D0644B82
:10F630001B6803F0F002302A03D003F0E003402BF4
:10F64000ADD1604B604A1B6803F04F031360A6E71F
:10F65000564B1B784FF080420021062BC2F80C114C
:10F66000C2F81011C2F8381599D1544B1B6818070D
:10F6700095D1C8E7554B4D4A1B6812785449C3F3DE
:10F680004233062A0B608AD14C4B1B681D0786D17A
:10F69000A8E7504B504A1A609AE74FF080524F4B00
:10F6A000D2F80414C3F82015D2F80814C3F82415AE
:10F6B000D2F80C14C3F82815D2F81014C3F82C157E
:10F6C000D2F81414C3F83015D2F81814C3F834154E
:10F6D000D2F81C14C3F84015D2F82014C3F844150E
:10F6E000D2F82414C3F84815D2F82814C3F84C15DE
:10F6F000D2F82C14C3F85015D2F83014C3F85415AE
:10F70000D2F83414C3F86015D2F83814C3F864156D
:10F71000D2F83C14C3F86815D2F84014C3F86C153D
:10F72000D2F84424C3F87025204B1B78062B7FF4B5
:10F7300036AF224B1B681B077FF431AF77E71B4BBB
:10F74000274F1A78274D2848284B4FF0050E0126E1
:10F7500000243F21062AC7F800E02E6004601960EB
:10F760007FF41DAF154B1B681A077FF418AF58E7DD
:10F770000E4B1F4A1B780321062B11607FF40FAF3D
:10F780000E4B1B6819077FF40AAF43E7194A074974
:10F79000D368097823F080730629D360C4D1074B5E
:10F7A0001B681C077FF4FBAE23E700BFE00F00F0EF
:10F7B00000ED00E08C2100200090D003E40F00F069
:10F7C000E80F00F058020010E40E00404402001060
:10F7D0003C05004074C007400DF0ADBA00C00040C9
:10F7E00010560040885600401856004014560040FD
:10F7F000A0050040F0ED00E03DDF704777DF704787
:10F80000037813B9014B01221A7070478822002037
:10F810002DE9F04F914CA04287B033D0904B9842E5
:10F8200002D007B0BDE8F08F8E4B1D78002DF8D1C7
:10F8300003208D4902F022F98C4B1A78002AF0D06F
:10F840002A4603208A491D7002F070F90320894975
:10F8500002F014F901F0ACFA874B93F82730002B33
:10F8600040F0E9807E4802F05FFF002840F0F3801E
:10F87000002005F0BDF90028D3D007B0BDE8F04F57
:10F8800001F002BD7C4B7D4FDFF800925A8D3C8821
:10F890007B4B99F80010DA700020120A250A9A7042
:10F8A0005C711D71997118705870032939D8DFE89F
:10F8B00001F0A68A6302734A92F8306092F83150E0
:10F8C00092F8324092F8330092F83410DE7192F8D8
:10F8D00035B01D7292F836A05C7292F8378098723B
:10F8E00092F838C0D97292F839E092F83A6092F8FA
:10F8F0003B5092F83C4092F83D0092F83E1092F84E
:10F900003F2083F80CB083F80DA083F80E8083F8B5
:10F910000FC083F810E05E749D74DC74187559751F
:10F920009A75594E01F0D6FA06F1100506F1080055
:10F93000534917220CF01CFF0FCD4FF000086C4606
:10F94000CDF814800FC42B68238096E80F0001F0D7
:10F950004FFA01F0ABFA99F800303A884B4901337D
:10F96000DBB2032B02F101023A8094BF0B7081F8E5
:10F97000008007B0BDE8F08F424A92F8206092F80C
:10F98000215092F8224092F8230092F82410DE7160
:10F9900092F825B01D7292F826A05C7292F827802A
:10F9A000987292F828C0D97292F829E092F82A60E9
:10F9B00092F82B5092F82C4092F82D0092F82E10CD
:10F9C00092F82F209DE72F4A167C557C947CD07CA2
:10F9D000117DDE7192F815B01D7292F816A05C725E
:10F9E00092F81780987292F818C0D97292F819E0BC
:10F9F000967ED57E147F507F917FD27F81E7214A0A
:10FA0000167855789478D0781179DE7192F805B02F
:10FA10001D7292F806A05C7292F80780987292F8B4
:10FA200008C0D97292F809E0967AD57A147B507B97
:10FA3000917BD27B65E70320154902F01FF8204631
:10FA4000224640F63D2102F017FE00283FF40AAF9F
:10FA500001F01AFC06E701F017FC09E76423002017
:10FA60008C220020242300202CD002004A230020D6
:10FA700040D0020060D002003C220020F82100208B
:10FA80004C230020FC210020282300206323002099
:10FA900088D0020010B5012982B00C4601D002B016
:10FAA00010BD10282FD103201C4901F0E7FF1C4B8B
:10FAB0001A78002AF3D1032022461A491C7002F05A
:10FAC00035F8194802F030FE20BB0320174901F039
:10FAD000D5FF01F0FFF9164B186859686B4603C350
:10FAE000684601F023F96420002101F03DF9114836
:10FAF0004FF4A021024602F0BFFD40B9022005F0FC
:10FB000077F80028CBD001F0BFFB02B010BD01F0A8
:10FB1000BBFBF3E701F0B8FBD7E700BFB4D00200AE
:10FB20004A23002040D0020064230020C8D00200F5
:10FB300014D002008C22002038B5044601F04AF9A6
:10FB4000204607F087FE204600F000FE2388102B99
:10FB500018D0112B1DD12A4C2A4B002220461A7096
:10FB600001F082FA94F82830274AD056FFF746FE73
:10FB700080BB264B1A788AB921484C21BDE8384011
:10FB800001F056BB1F4B012207201A7005F030F818
:10FB900000B938BDBDE8384001F076BB00252A46E3
:10FBA00003201B491D7001F0C1FF0320194901F01A
:10FBB00065FF01F0FDF894F8273073B9164802F09C
:10FBC000B3FDC8B9002005F013F80028D4D001F027
:10FBD0005BFBD1E701F058FBCBE703200F4901F0B5
:10FBE0004DFF0F4840F63D21024602F045FD00283A
:10FBF000E4D001F049FBE1E701F046FBE2E700BF9A
:10FC00003C2200202423002020D002004A23002090
:10FC100040D0020060D002008C22002088D0020078
:10FC20006423002044F20103984210B514461ED00C
:10FC300044F2020398420FD101201F4901F01EFF38
:10FC400022881E4992B2012001F070FF63681C49AE
:10FC50001A78012001F06AFF01F09EFE01F0CCFF4E
:10FC60000028FBD1174B1B68DB0718D5FFDE0120EE
:10FC7000154901F003FF2288104992B2012001F0DA
:10FC800055FF606801F08CFE10490246012001F02A
:10FC90004DFFA2680E49012001F048FFDCE7BFF3E9
:10FCA0004F8F0C490C4BCA6802F4E0621343CB60DF
:10FCB000BFF34F8F00BFFDE7F0D0020008D1020074
:10FCC0001CD10200F0ED00E030D1020044D102006E
:10FCD00058D1020000ED00E00400FA05F0B585B04F
:10FCE000002103910B461B271A264FF0CC750224E6
:10FCF0000848094A00976946019602958DF80C401C
:10FD00000CF0EAF908B101F0BFFA02480CF088FBE8
:10FD100005B0F0BD04D3020001F801002DE9F04167
:10FD2000002092B001F020FE08B101F0ADFA0320EE
:10FD30008B4901F0A3FE002003460521894A02F009
:10FD4000A5FB08B101F0A0FA8748884A012102F01A
:10FD500081FC08B101F098FA8548844A002102F03C
:10FD600079FC08B101F090FA824801F03BF90120DA
:10FD7000FFF742FD012040F6CD41002205F074F866
:10FD800008B101F081FA01F039FA7B48012140F213
:10FD9000666202F041FF08B101F076FA02F094FFCA
:10FDA00008B101F071FA002002F0A4FF002800F071
:10FDB000F582724E7249032001F060FE01F028FACC
:10FDC000304600F0A3FB012001F0CEF96B4801F0B2
:10FDD0004BF901F063F903206A4901F04FFE40221C
:10FDE000002102A8FFF7AEFB02A8674903F082FAE0
:10FDF0009DF844309DF84520012161F3030302F092
:10FE0000F00261F307136FF3071202A88DF8443074
:10FE10008DF8452005F020F908B101F035FA5B496D
:10FE2000032001F02BFE554800F0B0FB0320584999
:10FE300001F024FE5749032001F020FE564A96F8AF
:10FE40002830D056FFF7DAFC54490446032001F06D
:10FE500015FE14B1204601F017FA022004F0C8FE86
:10FE60004F490446032001F009FE14B1204601F079
:10FE70000BFA4C4B4C49DD79002405F0FC0503F1ED
:10FE800008001722C82764F382059F80DD711C805B
:10FE90005C809C710CF06CFC444B1A78002A00F0DA
:10FEA0004C8203204249434F434D002401F0E6FDBC
:10FEB000FFF714FF4FF0240E02AA009464210223DE
:10FEC0003E488DF808408DF809E00CF0B9FA4FF47F
:10FED0007A733A6800BF00BF00BF00BF00BF00BF19
:10FEE00000BF00BFAA422FD000BF00BF00BF00BFAD
:10FEF00000BF00BF00BF00BF00BF00BF00BF00BF0A
:10FF000000BF00BF00BF00BF00BF00BF00BF00BFF9
:10FF100000BF00BF00BF00BF00BF00BF00BF00BFE9
:10FF200000BF00BF00BF00BF00BF00BF00BF00BFD9
:10FF300000BF00BF00BF00BF00BF00BF00BF00BFC9
:10FF400000BF00BF00BF00BF013BC3D1632102AAB5
:10FF50000094022319480CF073FA194B3A6831E007
:10FF60006CD10200AC2200201CD0020011F801006C
:10FF700000D3020039FB0100902100203C22002028
:10FF800088D10200B0D10200CCD10200D8D1020049
:10FF9000F8D1020018D2020020D0020034D20200B0
:10FFA00054D20200282300204C2300204A230020A2
:10FFB00070D202008C2100200024F40004D302003F
:10FFC00040420F0000BF00BF00BF00BF00BF00BF26
:10FFD00000BF00BFAA422FD000BF00BF00BF00BFBC
:10FFE00000BF00BF00BF00BF00BF00BF00BF00BF19
:10FFF00000BF00BF00BF00BF00BF00BF00BF00BF09
:020000022000DC
:1000000000BF00BF00BF00BF00BF00BF00BF00BFF8
:1000100000BF00BF00BF00BF00BF00BF00BF00BFE8
:1000200000BF00BF00BF00BF00BF00BF00BF00BFD8
:1000300000BF00BF00BF00BF013BC3D16A4C20BF5F
:100040002378002BFBD00320684996F82A2001F082
:100050006DFD01F0D1FD0028FBD196F82A30032B6D
:10006000EDD8DFE813F0CF00B5005F0004000320F7
:100070005F4901F003FD01F0BFFD05460028FAD1FC
:10008000512300908DF8093002AA642102235948B7
:10009000DFF86C810CF0D4F94FF47A733A6800BF42
:1000A00000BF00BF00BF00BF00BF00BF00BF424590
:1000B0002FD000BF00BF00BF00BF00BF00BF00BF08
:1000C00000BF00BF00BF00BF00BF00BF00BF00BF38
:1000D00000BF00BF00BF00BF00BF00BF00BF00BF28
:1000E00000BF00BF00BF00BF00BF00BF00BF00BF18
:1000F00000BF00BF00BF00BF00BF00BF00BF00BF08
:1001000000BF00BF00BF00BF00BF00BF00BF00BFF7
:1001100000BF013BC3D15223009502AA35488DF898
:100120000930C6E00320344901F0A8FC01F064FD69
:1001300005460028FAD1522300908DF8093002AA12
:10014000642102232B48DFF8B8800CF079F94FF4D2
:100150007A733A6800BF00BF00BF00BF00BF00BF96
:1001600000BF00BF42452FD000BF00BF00BF00BF8F
:1001700000BF00BF00BF00BF00BF00BF00BF00BF87
:1001800000BF00BF00BF00BF00BF00BF00BF00BF77
:1001900000BF00BF00BF00BF00BF00BF00BF00BF67
:1001A00000BF00BF00BF00BF00BF00BF00BF00BF57
:1001B00000BF00BF00BF00BF00BF00BF00BF00BF47
:1001C00000BF00BF00BF00BF013BC3D15123A3E765
:1001D00003200A4901F052FC01F00EFD05460028FB
:1001E000FAD10090512318E0882200208CD202001E
:1001F000E8D2020004D30200D4D20200BCD2020032
:100200000024F40003206F4901F038FC01F0F4FCF5
:1002100005460028FAD1009052238DF8093002AA31
:10022000642102236848DFF8C0810CF009F94FF41B
:100230007A733A6800BF00BF00BF00BF00BF00BFB5
:1002400000BF00BF42452FD000BF00BF00BF00BFAE
:1002500000BF00BF00BF00BF00BF00BF00BF00BFA6
:1002600000BF00BF00BF00BF00BF00BF00BF00BF96
:1002700000BF00BF00BF00BF00BF00BF00BF00BF86
:1002800000BF00BF00BF00BF00BF00BF00BF00BF76
:1002900000BF00BF00BF00BF00BF00BF00BF00BF66
:1002A00000BF00BF00BF00BF013BC3D1464800955F
:1002B00002AA632102230CF0C3F842F210733A68D9
:1002C00000BF00BF00BF00BF00BF00BF00BF00BF36
:1002D00042452FD000BF00BF00BF00BF00BF00BF1E
:1002E00000BF00BF00BF00BF00BF00BF00BF00BF16
:1002F00000BF00BF00BF00BF00BF00BF00BF00BF06
:1003000000BF00BF00BF00BF00BF00BF00BF00BFF5
:1003100000BF00BF00BF00BF00BF00BF00BF00BFE5
:1003200000BF00BF00BF00BF00BF00BF00BF00BFD5
:1003300000BF00BF013BC3D181E601240320224658
:1003400022491C7001F0F2FB214802F0EDF908B1DE
:1003500000F09AFF03201F4901F090FB00F0BAFD66
:100360001D4B1868596802AB03C302A800F0DEFCFD
:100370006420002100F0F8FC18484FF4A021024648
:1003800002F07AF908B100F07FFF022004F030FC9F
:1003900000283FF486AD00F077FF82E5104E11494A
:1003A000032001F06BFB30464C2100F065FF96F80E
:1003B0002630032B02D0304600F0A8F8002000F0D1
:1003C000D3FE03E5A0D2020004D3020040D0020015
:1003D00064230020C8D0020014D002008C22002028
:1003E0003C2200209CD102000024F400A0DF7047D2
:1003F000A2DF7047A4DF7047A8DF704763DF704754
:10040000013808B5082853D8DFE800F0131A222A6B
:10041000323A424A0500284B284918680122273001
:100420000CF0A6F9254800211422BDE808400CF084
:100430009FB9214B2149186814220CF099F9F1E772
:100440001D4B1E491868102232300CF091F9E9E773
:10045000194B1A49186802222A300CF089F9E1E791
:10046000154B1649186802222C300CF081F9D9E797
:10047000114B12491868012228300CF079F9D1E7A4
:100480000D4B0E49186802222E300CF071F9C9E7A5
:10049000094B0A491868012230300CF069F9C1E7AC
:1004A000054B06491868012231300CF061F9B9E7B3
:1004B000034B00221A70B5E78C2300209023002004
:1004C000A423002070B588B00B4603AD002401467C
:1004D000164628461A4603940494059406940794F5
:1004E0000CF046F9084BADF8064019880295142324
:1004F000304601AAADF80430FFF77CFF08B100F0E8
:10050000C3FE08B070BD00BFA823002030B5002195
:10051000044685B04C22FFF715F80322012384F826
:10052000262084F82730204616490CF05FF904F1A4
:10053000140015490CF05AF994F8292094F8311058
:10054000002302F0FE0201F0FC0163F3820142F09D
:1005500002020725642084F82920E08584F8311000
:1005600084F828506385A38584F8303004F1320084
:100570006946102200930193029303930CF0F8F85C
:1005800005B030BD0CD3020030D202002DE9F0419D
:10059000694B90B018600DF10A016848FFF72EFF13
:1005A000002840F0C68010A94AF6444321F8383D9F
:1005B00001200223624A8DF80A30FFF717FF08B1C5
:1005C00000F062FE002108225E485D4FFEF7BAFF90
:1005D00000211C2209A8FEF7B5FF9DF82430002455
:1005E00001AD03F0FD0343F0080321464FF002087C
:1005F0004BF27956032228468DF82430ADF80C6072
:100600000A940C940D940E940F948DF80E80FEF7BE
:1006100099FF9DF806309DF805609DF804E00122E1
:1006200062F3420303F0F70362F3030643F010039F
:100630000EF0F00E64F3000364F3071E68F3071670
:100640002146142204A88DF805608DF806308DF837
:1006500004E003AEFEF776FF4FF0140E09A904AADA
:100660003888384B0595ADF81A400496ADF818E077
:10067000ADF81CE0FFF7BCFE08B100F005FE00215C
:1006800008223148FEF75EFF00211C2209A8FEF770
:1006900059FF9DF82430002443F00A0321464FF00F
:1006A00002084BF2087E032228468DF824300A9473
:1006B0000C940D940E940F94ADF80CE08DF80E8010
:1006C000FEF740FF9DF806309DF804C09DF805E058
:1006D000012262F3420303F0F70362F3030C62F3B7
:1006E000030E43F0100364F30003214668F3071C74
:1006F00068F3071E142204A88DF806308DF804C094
:100700008DF805E0FEF71EFFADF81A4038880E4B55
:100710000496142409A904AA0595ADF81840ADF86B
:100720001C40FFF765FE08B100F0AEFD10B0BDE85B
:10073000F08100F0A9FD36E78C2300202CD30200C5
:10074000B023002084230020A82300202DE9F047B7
:100750000388502B92B0044628D0512B0AD0102B7E
:1007600002D012B0BDE8F087A84B00221A7012B078
:10077000BDE8F0878379002BF3D0837B012BF0D188
:1007800004AD102228460021A788FEF7DBFEA04A10
:10079000238912889A4200F02E819E4E32889A4216
:1007A00000F03982E37B002BDBD013E004AD102294
:1007B00028460021A788FEF7C5FE954AE3881288DF
:1007C0009A4219D0934E32889A4200F0E380637BBC
:1007D000002BC6D09DF81630022243F001033846A4
:1007E00029468DF816308DF81020FFF705FE0028F9
:1007F000B7D000F049FDB4E7A27C013A042A00F228
:10080000D080DFE802F0250388786B00228A00267A
:10081000013A04F113010DA80D960E960F9610964D
:10082000ADF844608DF846600BF0A2FF7A4B196872
:100830000DA8143112220BF08BFF002800F0E98183
:1008400040F20313ADF81430704AE3881670B9E72C
:100850007249704E08A80BF0C9FF6F4B9DF833200A
:100860001B68012009218DF831008DF8321093F8B2
:10087000291061F300028DF8332093F829305FFAD4
:1008800082FEC3F340030DF134094FF0000863F317
:10089000410E08A9142248468DF833E0CDF8348083
:1008A000CDF83880CDF83C80CDF84080CDF844803C
:1008B0000BF05EFF14233188ADF80A80384602AA97
:1008C000CDF80C90ADF80830FFF794FD08B100F0BA
:1008D000DBFC4E4AE3880021117074E7DFF82C81BD
:1008E00098F80020002A40F09D8140F20312ADF8F4
:1008F0001420484E67E7484A126892F8292090076A
:1009000003D5424A1278002AEFD0E07C414EFFF72F
:1009100077FDE38857E7404A106890F82920D6070A
:1009200003D53A4A1278002ADFD0E27C013A082A3D
:1009300000F2C281DFE802F0271F1D1B19110F0D05
:100940000500273001213A46FFF7BCFD314EE38810
:1009500039E73130F6E73030F4E72E3002213A46FD
:10096000FFF7B0FD2B4EE3882DE72830EAE72C3067
:10097000F4E72A30F2E7323010213A46FFF7A2FDC1
:10098000244EE3881FE714213A46FFF79BFD214ED2
:10099000E38818E7228A224804F112010BF0E8FEEE
:1009A00015E70DF13408002308A91422194E089305
:1009B000404609930A930B930C930D930E930F9358
:1009C0001093119301930BF0D3FE019BADF80A3005
:1009D0003188CDF80C801423384602AAADF80830CF
:1009E000FFF708FD08B100F04FFC4FF48072E38878
:1009F000ADF81420E7E6227D013A042A00F23281A4
:100A0000DFE802F066442D1D100000BFA423002083
:100A100084230020A82300208C2300201CD3020064
:100A200090230020DFF8F09299F80020002A40F08F
:100A30004A8140F20312ADF81420B54EAEE6B54A35
:100A4000126892F82920920703D5B34A1278002A37
:100A5000EFD0607DAE4EFFF7D3FC23899EE6AD4A12
:100A6000D2F8008098F82920D10703D5AA4A127835
:100A7000002ADED0627D013A082A00F24381DFE8D5
:100A800002F0BAB1A3827F766DC5C200628A0026E9
:100A9000013A04F115010DA80D960E960F961096C9
:100AA000ADF844608DF846600BF062FE994B196812
:100AB0000DA8143112220BF04BFE002800F001812A
:100AC00040F20313ADF81430934A2389167064E69C
:100AD00092498F4E08A80BF089FE8E4B9DF833206B
:100AE0001B68012009218DF831008DF8321093F830
:100AF000291061F300028DF8332093F829305FFA52
:100B000082FEC3F340030DF134094FF0000863F394
:100B1000410E08A9142248468DF833E0CDF8348000
:100B2000CDF83880CDF83C80CDF84080CDF84480B9
:100B30000BF01EFE14233188ADF80A80384602AA55
:100B4000CDF80C90ADF80830FFF754FC08B100F078
:100B50009BFB714A2389002111701FE608F13000C8
:100B600001213A46FFF7AEFC694E238916E608F1EB
:100B70002E0002213A46FFF7A5FC654E23890DE6BB
:100B800008F12800ECE70DF134094FF0140A0021B8
:100B9000484652465E4EFEF7D5FC484608F12C0109
:100BA00002220BF0E5FD3188ADF820A00023384685
:100BB00008AACDF82490ADF82230FFF71BFC0028DE
:100BC000D3D000F061FBD0E70DF134094FF0140AE7
:100BD000002148465246FEF7B5FC4D4E484608F106
:100BE0002A01DDE708F1320010213A46FFF76AFCDE
:100BF000474E2389D2E5404614213A46FFF762FC6E
:100C0000434E2389CAE508F12700A9E708F131001E
:100C1000A6E7012618E6628A414804F114010BF0A8
:100C2000A7FDBFE5DFF8EC90394ED9F8000004F1DC
:100C30001301012229300BF09BFDD9F8000000219F
:100C400012221430FEF77EFCD9F80000228A1430FC
:100C5000023A04F114010BF08BFD002388F80030F8
:100C6000E388B0E50DF13408002308A91422284ECA
:100C70000893404609930A930B930C930D930E939C
:100C80000F931093119301930BF072FD019BADF83C
:100C90000A303188CDF80C801423384602AAADF80A
:100CA0000830FFF7A7FB08B100F0EEFA4FF48072AE
:100CB0002389ADF8142071E5174A154E00211170F3
:100CC00081E5012600E7DFF84C80114ED8F80000DE
:100CD00004F11501012229300BF04AFDD8F800007B
:100CE000002112221430FEF72DFCD8F80000628A91
:100CF0001430023A04F116010BF03AFD002389F892
:100D0000003032E7044A024E0021117046E500BF70
:100D1000A82300208C230020A42300201CD3020041
:100D20009023002073DF704774DF704770B590B078
:100D3000064600213C2201A8FEF704FC0023022500
:100D40000624012201A8194606968DF806308DF872
:100D500004508DF80740ADF8142003F0ADFB08B146
:100D600000F092FA10B070BD70B5104B1C7884B0D2
:100D70000CB104B070BD0D46684601262146102214
:100D80001E70FEF7DFFBA02368468DF8004001943B
:100D90008DF80840ADF80C50ADF80A30FFF7C2FFEF
:100DA0000028E6D000F070FA04B070BDB223002035
:100DB00008B5074B1A7802B908BD00221A70FFF770
:100DC000B3FF0028F8D0BDE8084000F05DBA00BFCE
:100DD000B22300200388102B02D1024B00221A708C
:100DE000704700BFB223002073DF704774DF704785
:100DF00084B070B598B003AD1CAC84E80F0000243B
:100E0000BDF89430ADF800301EA91722284603948F
:100E1000049405940694079408940BF0A9FC1823F5
:100E2000214609A83C22ADF804300295FEF78AFB62
:100E3000062309A821468DF824408DF82730CDF8E7
:100E400048D003F039FB08B100F01EFA154C164DDE
:100E5000002120461022FEF775FB9DF87700A37B4A
:100E6000BDF874204FF47A71C0F3400660F30003BC
:100E700001FB02F285FB025166F34103C0F38000DF
:100E8000D217C2EB21220325002160F382032570D3
:100E90006281A37361602172A18118B0BDE87040C6
:100EA00004B07047B4230020AD8BDB6810B5074C4D
:100EB000237803B110BD0648FFF796FF10B9012350
:100EC000237010BD00F0E0F9F9E700BFB323002064
:100ED000B423002010B5064C237803B910BDFFF7EA
:100EE00085FF10B90023237010BD00F0CDF9F9E79C
:100EF000B323002076DF7047A8DF7047ADDF70476F
:100F000067DF704702F008BF10B5044684B002F0F6
:100F1000FBF9204602F028FD2D4B1B680BB1204643
:100F200098472388112B4CD007D9512B0FD0552B24
:100F300040D03B2B2AD004B010BD022B2ED0102B5A
:100F4000F9D10320234900F099FD04B010BD03201E
:100F5000214900F093FDA279A37B002AEBD0043B4A
:100F6000022BE8D8022A0CBF022201224FF4C173DF
:100F7000A0888DF800206946ADF80430FFF7BCFF6B
:100F80000028D8D000F080F904B010BDA08813214B
:100F9000FFF7B0FF0028F5D104B010BD03200F49C2
:100FA00000F06CFDA0880021FFF7AAFF0028E9D11E
:100FB00004B010BDA0881721FFF7A0FF0028BAD009
:100FC000E0E70320064900F059FD04B010BD00BF62
:100FD000C423002058D3020090D302006CD3020037
:100FE00040D3020000B5194A194B106089B0186847
:100FF0000090184968465022002301F03FFC10BBC6
:1010000001AA0020012101F0B1FCC8B9172301A8F1
:10101000ADF8143001F0C2FC78B90F4801F07AFC49
:1010200040B90E4801F080FC08B100F02DF909B07C
:101030005DF804FB00F028F9F3E700F025F9ECE790
:1010400000F022F9E2E700F01FF9D9E7C4230020FD
:101050003CD30200C8230020090F0200050F020044
:101060007ADF70477CDF704730B583B001229DF88E
:10107000043002AC62F3030362F3071304F8043D87
:1010800005460BF0BBFB294682B22046FFF7EAFF7C
:1010900008B100F0F9F803B030BD00BF10B582B060
:1010A000002108226846FEF74DFA4FF4C8744FF449
:1010B000487100224FF4FA736846ADF80040ADF86D
:1010C0000210ADF80420ADF80630FFF7C9FF08B1F3
:1010D00000F0DAF802B010BD00B5037883B00E2B33
:1010E0000BD8DFE803F0150A151F2C340D0A3D0A52
:1010F0000D0A0D0A080006F039FC03B05DF804FB88
:1011000080680028F9D000F0BFF803B05DF804FB58
:10111000808806F05BFC1128EFD00028F3D103B0E3
:101120005DF804FB428941F206039A42E5D140880A
:10113000012106F00FFC30F00803DED0E3E702A93E
:10114000002301F8043D408806F00EFCD5E705F0C9
:10115000C7FB0E280346D0D033F00803CDD0D2E72A
:10116000002000F091F8C8E730B583B0044606F0DF
:1011700083FB80BB9CBB002105226846FEF7E2F999
:101180009DF800309DF803109DF8042043F0010302
:10119000032003F0F10360F306136FF3C71341F06C
:1011A000030142F003020725102468468DF8003041
:1011B0008DF803108DF804208DF801508DF8024051
:1011C00006F0BEFB90B90B4806F09EFB08B100F09C
:1011D0005BF803B030BD00F057F8002CCBD006F020
:1011E000CDFB0028C7D000F04FF8C4E700F04CF862
:1011F000E9E700BFD9100200704700BF08B502F050
:101200009DFC00B908BDBDE8084000F03DB800BF36
:1012100008B5064801220168002302F035FD00B937
:1012200008BDBDE8084000F02FB800BFBC21002079
:1012300070B5104D82B006460C462846296801223A
:10124000002302F021FD08B100F01EF8231EB8BFF4
:10125000033300200090296806483246C3F38F0309
:1012600002F0C8FC08B902B070BD02B0BDE8704021
:1012700000F00AB8BC210020024B0A4619680BF0A6
:1012800077BA00BFBC21002000B585B000230390D1
:10129000194644F2010001AAADF804300293FEF7AA
:1012A000C1FC05B05DF804FB2DE9F84F43001F18A1
:1012B000DFF880B1FF000BEB07048846E16A0129E3
:1012C000164644D034D302293CD1013000EB400013
:1012D000656A0BEBC0094FF0000A1DE0126A641B3F
:1012E000B4422346A2EB050428BF33469C42D9F8FA
:1012F000040028BF1C462246284441460BF038FA19
:101300000BEB070325441A6A954208BF0025361BDC
:10131000A244A0445D6217D00BEB0702936AAB4274
:1013200003F1FF34DAD8126A1344013B5C1BD7E7A0
:10133000A16A626A91429CBF246A091901398A1A1A
:10134000964238D94FF0000A5046BDE8F88FA16A9E
:10135000656AA94229D90139226AC5EB010A034409
:101360000BEBC30B0BF1200BDBF80450314BB245F8
:1013700028BFB246561B0130B24500EB40003FD3B8
:1013800003EBC0044146606832462844C6EB0A05B8
:101390000BF0EEF9606808EB06012A460BF0E8F95D
:1013A000CBF804505046BDE8F88F226A8C18013CF7
:1013B000C5EB040AD3E703440BEBC30B0BF1200787
:1013C000DBF82040D7F804901A4BC9EB0404013035
:1013D000A64200EB40001FD303EBC00541466868FE
:1013E00022464844C4EB06090BF0C2F9686808EBD2
:1013F00004014A460BF0BCF9B246C7F80490A3E7D3
:1014000003EBC003414658685246284455440BF04C
:10141000AFF9CBF8045097E703EBC0034146586897
:10142000324648440BF0A4F906EB09037B60B24650
:101430008AE700BFD8330020F8B5134C23780BBBE4
:10144000124ADFF858C0124FA3624FF4007E1026F4
:101450006362E362A365E365636502250D49A261EA
:10146000A264C4F81CC0C4F820E0E01DE76426654F
:10147000256165610BF0BAF9204607490BF0B6F912
:101480002023A371F8BD00BFD8330020BCD30200D5
:1014900018240020C8D30200CCD302002824002046
:1014A0000378012B04BF014A1370704728270020DE
:1014B0002DE9F0416248C6B00C4690461F4605F043
:1014C000B7FDA8B9D4B106AE23685E4A30464FF4E2
:1014D00080710BF059F900280ADB4C9B0546062B5E
:1014E00000F2AC80DFE803F04F5F6A778697160062
:1014F0004FF00008404646B0BDE8F0814C9B062BFB
:1015000000F29A80DFE803F03E4D586574850400D0
:10151000002506AE07F10C017A683B68D7F808C0D1
:1015200092C970190092029103944246CDF804C00A
:101530000497C5F580710BF027F90446002CD7DB22
:101540002C44B4F5807FD3D806AE314622463E48BF
:101550000BF00EF93A483C49E2B205F0AFFC0A271D
:10156000B0FA80F800254FEA581871192246002079
:10157000FFF79AFE0544241A08B9013FBAD0002C9F
:10158000F3D1B7E7002540460BF038F94319FF2B9C
:101590000446D3D806AB4146581922460BF0E8F86A
:1015A000CCE7002506AE701942463B68C5F5807150
:1015B0000BF0EAF80446C1E7002506AE7A683B68FE
:1015C000009270194246C5F580710BF0DDF80446B3
:1015D000B4E7002506AE7A68B9683B6800920191CD
:1015E00070194246C5F580710BF0CEF80446A5E7A8
:1015F000002506AE7A68BC68F9683B6800920194E1
:10160000029170194246C5F580710BF0BDF8044691
:1016100094E7002506AE07F108017A683B6892C995
:10162000701900920191029442460397C5F58071AA
:101630000BF0AAF8044681E7002485E700247FE741
:1016400098210020F4D30200282600202DE9F04F35
:10165000C5B01C469B48002914BF0A230023174627
:101660000D46019305F0E4FC002840F0FB80002CBF
:1016700000F0FC80014604AE4F9B519A202503EBFD
:10168000020B08460199431803933133F318029370
:101690003318002960D05A4202F003028A4228BF60
:1016A0000A46062900F20081019A3554012A03F105
:1016B000010100F0F780022A5D7003F1020100F0E1
:1016C000F180032A9D7003F1030100F0EB80042AEE
:1016D000DD7003F1040100F0E580062A1D7103F1BD
:1016E000050140F0E8805D71991D9446019F974285
:1016F00030D0C2EB0709A9F1040E07F1FF3A4FEA17
:101700009E0EC2EB0A0A0EF1010EBAF1020F4FEA69
:101710008E0813D90244BEF1010F4FF0203006EBC2
:10172000020AB05006D0BEF1020FCAF8040001D080
:10173000CAF80800C8454144C4440BD0019F0D704D
:101740000CF10102BA4205D20CF1020C67454D7052
:1017500000D98D70019A13445B4A0299D2F8008037
:101760004F9FDDF84091DA1C481C03F1330C0CE06C
:1017700002F8035C02F8025C02F8015C0332624585
:1017800000F8015C00F1010033D0A345F0D9A74275
:1017900095BFE11B4E9919F80110095D02F8015C33
:1017A0004FEA211E5FFA8EFABEF1090F01F00F0E0B
:1017B000D4BF0AF1300A0AF1370ABEF1090F02F864
:1017C00003AC94BF0EF1300E0EF1370E08EB010A98
:1017D00002F802EC9AF801E003321EF0970F08BFFE
:1017E0002E21624500F8011C04F1010400F1010002
:1017F000CBD1039A4F97029F344802F1430A0D213F
:101800004FF00A083974524687F81180314683F840
:1018100030500AF0ADFF5FFA8AF22A482B4905F0F2
:101820004DFB23464F9F029054464FF000099A46C5
:1018300006EB090122460020FFF736FD8144241AF9
:1018400010B9B8F1010801D0002CF1D14F97029FD7
:1018500054463FB91B4805F0EBFB18B9D345384651
:101860003FF610AF204645B0BDE8F08F35B304AE6B
:101870002B68174A30464FF480710AF085FF002824
:10188000F0DB054638460AF0B9FFC22828BFC2205F
:1018900080463946024670190AF06AFF08EB0503D4
:1018A0001946E9E6944621E7002A7FF4FEAE194680
:1018B0009446019F1DE74FF0050C17E7254604AE3F
:1018C000E0E700BF98210020AC210020282600205E
:1018D000F4D30200F0B51B4F3B7889B006461BB12C
:1018E000194B1B7883422AD0184DFFF7A5FD0FCD69
:1018F0006C460FC495E80F004FF0000E84E80F000F
:101900000625052107224FF0EB73114803910824A7
:1019100002928DF814E000950194069305F048FAC0
:10192000002E0C4A0A4818BF0022694605F052F9F9
:1019300018B9054A012316703B7009B0F0BD0020AC
:1019400009B0F0BD2A27002029270020D4D30200A7
:1019500098210020A114020000487047B114020031
:10196000004870474D16020038B50020FFF7B2FF5F
:10197000044668B9FFF7F0FF0546FFF7F1FF054B96
:10198000FF22C3F810541C605C60C3F814049A6012
:10199000204638BD2C2700200120FFF79BBF00BF49
:1019A0002DE9F04F344E85B08346D6F808A00AF0F2
:1019B00025FF074604A84FF0000900F8019D00F03C
:1019C000B9F93568B16807F104084FEA980821EAC7
:1019D000050208F10103541CA34207F1010724D8B2
:1019E00072682B446C1C0A440C40D21A06EB840427
:1019F0000132336004F10C0438D09DF80F0000F080
:101A0000C1F94A4605EA0A05002362F38F1306EB83
:101A1000850668F39F5359463A462046F3600AF01C
:101A2000A7FE204605B0BDE8F08F706800EA010E01
:101A3000734511D205F1FF3E744423440144C91A91
:101A40000131336012D09DF80F00019206F10C04B1
:101A500000F098F9019AD5E701444D1B013505D0F6
:101A60009DF80F0000F08EF94846DBE79DF80F0067
:101A700000F088F90020D5E72C2700202DE9F0435D
:101A800083B002AB4FF0000903F8019D254C0746D7
:101A900018460E46A56800F04DF9A2686368D4F8B0
:101AA000008013440133C8EB0303012B07D80BBBA1
:101AB0009DF8070000F066F903B0BDE8F08308F177
:101AC00001039DF80700236000F05CF90122002368
:101AD00062F3010369F3820308EA050567F3C503AE
:101AE00004EB850469F3891366F39F23E36003B075
:101AF000BDE8F08301214B4661F3010369F38203E2
:101B0000052161F3C50302EA0802074904EB8202DA
:101B100069F3891308F1010561F39F232560D36000
:101B2000C6E700BF2C270020FCD302002DE9F047B8
:101B300082B002AB4FF0000903F8019DDFF8B480DA
:101B40000746184615460E46D8F8084000F0F2F849
:101B5000D8F80820D8F80430D8F800A0134401338E
:101B6000CAEB0303022B07D853BB9DF8070000F014
:101B700009F902B0BDE8F0870AF102039DF80700F9
:101B8000C8F8003000F0FEF80122002362F30103E0
:101B90000AEB020169F3820367F3C5030AEA040A48
:101BA0000C4008EB8A0A62F3891308EB840866F399
:101BB0009F23CAF80C30C8F80C5002B0BDE8F0877B
:101BC00001214B4661F3010369F38203052161F3AF
:101BD000C50302EA0A02064808EB820269F3891388
:101BE0000AF1010160F39F23C8F80010D360BCE73D
:101BF000FCD302002C2700202DE9F0474C4E96E83C
:101C00000C0093428AB070D0B06804E0C4F389122B
:101C100002EB9452134400EA0305023506EB8502F9
:101C20000133546814F00302F0D0022A28D0C4F320
:101C30008312C4F3952C002A75D00DF1100E754651
:101C40009F1803EA000106EB81010133C96845F8DA
:101C5000041BBB42F5D10092C4F3C2006246734636
:101C6000D6F81044324D0021A04738B17760306873
:101C7000C01B18BF01200AB0BDE8F0876F68F6E707
:101C800003F1010A20EA0A010340013106EB830354
:101C900089004FEA94588845DA68DFF894E0C4F385
:101CA000891326D9A9B30AEA000C5FFA81F90EEB71
:101CB0008C0CC9EB08010CF10C0C0EF10C00C9B234
:101CC00002900391CDF800C0CDF80490C4F3C20097
:101CD0000021D6F81474B847404520D006EB85059E
:101CE00060F38F146C607768C1E700200AB0BDE82C
:101CF000F08700EA0A000EEB80000C308DE801014D
:101D00000021DEF814C402910391C4F3C200E0473D
:101D1000E2E70EF10C0C08465FFA88F9D0E70330D1
:101D20000AEB9007A2E71F460DF1100E93E700BFE4
:101D30002C270020F0B4EFF3108472B60E4B9A6893
:101D4000B2B90E4901259D60D1F880700C4D2E4628
:101D50003D401D60C1F88060D1F884505D604FF057
:101D6000FF33C1F88430027004B962B6F0BC70472A
:101D700001230370F8E700BF5034002000E100E0C9
:101D8000FC06FFBC094B9A6872B168B910B4EFF356
:101D9000108272B606491C680C605C684C609860E2
:101DA00002B962B65DF8044B704700BF50340020A2
:101DB00000E100E0002810B418DB00F1604303F5F7
:101DC00061434901C9B283F80013C3B240098000DE
:101DD00000F1604000F5614003F01F0201239340D1
:101DE000C0F8803103605DF8044B7047C3B2044A09
:101DF00003F00F0449012244C9B21176E6E700BF9F
:101E0000FCEC00E02DE9F041274A284B0025C2F800
:101E10004051C2F84451C2F84851C2F84C51C2F87E
:101E20000051C2F804511B681BB32149D2F80425A4
:101E30000C68204F141B1A6824F07F44A242A84665
:101E400009D8197CDE69A41A1544A1B91EB133461C
:101E50001A68A242F5D9184B18491A780B789A4299
:101E60001BD01749174A41F823504FF48013C2F88A
:101E70000031BDE8F081D3F814C083F810803A68CF
:101E80009B69604619462AB190470028DED0FFF7CB
:101E9000FBF9DBE71846E047D8E7531CDBB2022B1F
:101EA00008BF00230B70DCE700100140482B002026
:101EB000442B00204C2B0020502B0020512B0020C5
:101EC0005C2B002000E100E02DE9F04F894A8A49AF
:101ED000137809788948994287B0D0F8009000F0CB
:101EE00016820133DBB2022B08BF00231370844A31
:101EF00052F82370814A07EB090323F07F431360F4
:101F00004FF0010A7F4BCDF80C90D3F800807E4B48
:101F100019785B7801931E467B4B5C6893F802E06E
:101F20007A4B93F800B0754B1B68029342464346C8
:101F30000020BC46B14217D001EB4105013114F835
:101F40003570C9B2714508BF0021022F04EBC505E9
:101F500077D0032FEED1002BECD0DA69187413463A
:101F6000002AFAD1B142E7D1664902980A60634972
:101F7000DDF80C9008606549674681F800B0BAF159
:101F8000000F40F0A481B8EB030218BF01220592B4
:101F9000039355461E46594BDFF87491D3F800C0A1
:101FA000584BD3F800A0584BD3F804B09B78029359
:101FB000554B93F800E0554B1B78049300274FF0E6
:101FC000010835B36968A8682C46ED69CCEB0102BD
:101FD00022F07F424A4556D8131823606760A760F5
:101FE00084F81080E761002E7FD0316899425CD27E
:101FF000304603E0116899425ED21046C2695B1A0E
:10200000002AF7D12360E2613346C4611E46002DE9
:10201000D8D1019B9E457DD00EEB4E020BEBC20347
:102020000EF1010E1BF8322002995C685FFA8EFEF9
:102030008E4508BF4FF0000E012A44D033461E469D
:10204000E5E7D5F80490002B3FF474AF4B4500F062
:1020500039811F4600E02F46FD69002D3FF46AAF2D
:10206000A945F8D1B946A9452F4600F02B81FD6955
:102070003F68C9F81C50002D3FF45CAF2B683B440F
:102080002B60134656E7C1EB0C0121F07F418142E2
:1020900002D2431A2360A1E727606760A76084F833
:1020A0001080E7610EB331680023CB1A33602346FA
:1020B000E661A2461E46AAE7C91A11602360E261E2
:1020C0003346C461A2E7227C002AB7D199686160D7
:1020D000D868A0601A69E2605B69A361049B002B69
:1020E0003FF474AF6560294670E72346A2461E465A
:1020F0008DE700BF502B0020512B0020442B0020E7
:102100005C2B0020482B0020542B0020522B002059
:10211000FEFF7F00854B83F800E0854BC3F800A0ED
:10212000039BB34200F0C480002E00F01181814C6B
:10213000814BD4F804051B68804DD6F800C029787F
:10214000C21A22F07F420332002952D17C4FDFF8BD
:10215000F491DFF8F4814FF480314FF4003E012612
:10216000C4F84413C4F80413C7F880E1C7F800E0CA
:1021700026602F21D9F8004000BF00BF00BF00BF7C
:1021800000BF00BF00BF00BF44452FD000BF00BF4D
:1021900000BF00BF00BF00BF00BF00BF00BF00BF47
:1021A00000BF00BF00BF00BF00BF00BF00BF00BF37
:1021B00000BF00BF00BF00BF00BF00BF00BF00BF27
:1021C00000BF00BF00BF00BF00BF00BF00BF00BF17
:1021D00000BF00BF00BF00BF00BF00BF00BF00BF07
:1021E00000BF00BF00BF00BF00BF00BF0139C3D1A7
:1021F0002E7062452CBF9A1803EB0C024D4922F059
:102200007F43C1F84035D1F80425121A1B1A22F079
:102210007F4223F07F4303329A424DD9D1F80435EF
:10222000484AC1F84035126847492F2300BF00BF14
:1022300000BF00BF00BF00BF00BF00BF8A422FD059
:1022400000BF00BF00BF00BF00BF00BF00BF00BF96
:1022500000BF00BF00BF00BF00BF00BF00BF00BF86
:1022600000BF00BF00BF00BF00BF00BF00BF00BF76
:1022700000BF00BF00BF00BF00BF00BF00BF00BF66
:1022800000BF00BF00BF00BF00BF00BF00BF00BF56
:1022900000BF00BF00BF00BF00BF00BF00BF00BF46
:1022A000013BC3D1264B4FF40032C3F8002103E0B9
:1022B000059B002B7FF438AF244A0023137007B02E
:1022C000BDE8F08FDA6942B313464F46CFE60025EA
:1022D00028462C46A3B11968B9421BD8DA681C609D
:1022E0007F1A0844D9693AB100EB090626F07F4607
:1022F000DD619A605E601D460B460A46002BEAD1FE
:102300000B49039301230A600593039E43E60027CC
:10231000BA46F7E5C91B1960F2E7064B01259D6037
:102320004F4613460292AB46A1E600BF542B002055
:10233000482B002000100140442B0020642B00207B
:1023400000E100E08C2100200024F400522B00204A
:10235000484A494B494D4A484FF480314FF40037C1
:102360000124C3F88070C2F848132F23C2F8081361
:10237000546029681D4600BF00BF00BF00BF00BFFA
:1023800000BF00BF00BF81422FD000BF00BF00BF11
:1023900000BF00BF00BF00BF00BF00BF00BF00BF45
:1023A00000BF00BF00BF00BF00BF00BF00BF00BF35
:1023B00000BF00BF00BF00BF00BF00BF00BF00BF25
:1023C00000BF00BF00BF00BF00BF00BF00BF00BF15
:1023D00000BF00BF00BF00BF00BF00BF00BF00BF05
:1023E00000BF00BF00BF00BF00BF013DC3D194606C
:1023F000244A166000BF00BF00BF00BF00BF00BF7F
:1024000000BF00BF81422FD000BF00BF00BF00BF90
:1024100000BF00BF00BF00BF00BF00BF00BF00BFC4
:1024200000BF00BF00BF00BF00BF00BF00BF00BFB4
:1024300000BF00BF00BF00BF00BF00BF00BF00BFA4
:1024400000BF00BF00BF00BF00BF00BF00BF00BF94
:1024500000BF00BF00BF00BF00BF00BF00BF00BF84
:1024600000BF00BF00BF00BF013BC3D1064B1E70C1
:1024700022E700BF0010014000E100E08C210020B5
:102480000024F400442B0020642B00202DE9F04FA1
:1024900012F0030402D00720BDE8F08F002AFAD022
:1024A000614D624EDFF88CC1DFF88C814FF4803EC5
:1024B0004FF400374FF00109C6F88070C5F848E3C3
:1024C0002F27C5F808E3C5F80490DCF800C0BE4625
:1024D00000BF00BF00BF00BF00BF00BF00BF00BF04
:1024E000C4452FD000BF00BF00BF00BF00BF00BF6A
:1024F00000BF00BF00BF00BF00BF00BF00BF00BFE4
:1025000000BF00BF00BF00BF00BF00BF00BF00BFD3
:1025100000BF00BF00BF00BF00BF00BF00BF00BFC3
:1025200000BF00BF00BF00BF00BF00BF00BF00BFB3
:1025300000BF00BF00BF00BF00BF00BF00BF00BFA3
:1025400000BF00BFBEF1010EC2D1DFF8F0E0C5F858
:102550000890CEF8004000BF00BF00BF00BF00BF22
:1025600000BF00BF00BFC4452FD000BF00BF00BFE9
:1025700000BF00BF00BF00BF00BF00BF00BF00BF63
:1025800000BF00BF00BF00BF00BF00BF00BF00BF53
:1025900000BF00BF00BF00BF00BF00BF00BF00BF43
:1025A00000BF00BF00BF00BF00BF00BF00BF00BF33
:1025B00000BF00BF00BF00BF00BF00BF00BF00BF23
:1025C00000BF00BF00BF00BF00BF013FC3D1DFF8A5
:1025D00070C0DFF870B0164FDFF86CA0DFF86C90B9
:1025E000DFF86C808CF80040CBF800304FF4801C92
:1025F000E023B9703C707C70CAF8004089F8004054
:1026000088F80040C6F880C186F81433C6F800C0C8
:10261000C5F8080586F81133D5F80435CEF8003032
:102620007A602046BDE8F08F0010014000E100E034
:10263000542B00208C2100200024F400442B002087
:10264000642B00204C2B0020482B0020502B002016
:10265000512B0020074B5B6823B12AB120B10368DE
:10266000187C18B1082070470720704759745A61C8
:10267000704700BF542B00202DE9F043274C6368BE
:1026800083B033B128B1042907D8072003B0BDE8CF
:10269000F083082003B0BDE8F0834369002BF8D035
:1026A000054602A86B7C0026012B00F8016D0CBFCB
:1026B0008946B14690460F46FFF73CFB6378A07809
:1026C00021785A1CD2B2904208BF324691421FD0A4
:1026D00003EB43036068DB00C11819D04FF0010E13
:1026E00000F803E00E4B4D60D3F804358B609DF885
:1026F0000700CF60C1F81090C1F814806270FFF736
:1027000041FB084B4FF480123046C3F80021C1E76B
:102710009DF80700FFF736FB0420BBE7542B002091
:102720000010014000E100E0F0B51C4D6B6883B083
:1027300053B348B343693BB3044602A8002600F8EC
:10274000016D2674FFF7F6FA6B78A87829785A1C81
:10275000D2B2904208BF3246914218D003EB4303F5
:102760006968DB00CF1812D00220C8547C609DF845
:1027700007006A70FFF706FB094B4FF480123046E2
:10278000C3F8002103B0F0BD082003B0F0BD9DF8F0
:102790000700FFF7F7FA0420F7E700BF542B0020EB
:1027A00000E100E048DF704710DF704760DF7047EE
:1027B00061DF7047FDF736BA2DE9F047DFF8A890E2
:1027C000264EDFF8A880264FD9F80040B4FA84F4EA
:1027D00082B0002564097DB93378DFF880A063B941
:1027E00001A8FFF7DFFF05280AD018B3FEF74CFD5C
:1027F0004CB101240025EFE7CCB102B0BDE8F08771
:10280000002CFAD101259AF80030002BF5D102A94D
:102810003C68B8F8003021F8043D2046FFF7C8FFB7
:10282000052816D080B1FEF72FFD0024D3E7DFF88E
:102830002CA0E8E7019800F02BF90A4B1B68002B4D
:10284000D6D001989847D3E72046D9F8003098476A
:10285000EBE7002DCDD002B0BDE8F087652B00205E
:102860006C2B0020702B0020742B0020682B002084
:10287000014B1878704700BF662B002011B111F092
:10288000030F01D007207047F8B51B4F1B4E1C4D9E
:102890001C4C396032802B602368DB0708D501258A
:1028A000C4F880501849FFF77FFF30B12560F8BDAC
:1028B0001549FFF779FF00B1F8BD144B01221A70DA
:1028C00000F0F8F80F4A92F816335B09991E0529B3
:1028D00009D8043B012B06D90D4B986830B94FF449
:1028E00080031360F8BD42F20200F8BD1A6842F49A
:1028F00080021A600020F8BD6C2B0020682B00209D
:10290000782B002000E100E0B5270200662B0020B4
:1029100050340020034618B1024A0020136070476B
:102920000E207047742B0020034618B1024A002085
:10293000136070470E207047702B002008B5094BBC
:102940001B6833B1984700B908BDBDE80840FEF7E1
:102950009BBC054B1B78002BF6D0BDE80840FFF769
:102960002BBF00BF782B0020662B002070B51446CB
:1029700005460E46104600211C22FCF7E3FD227D91
:102980002672002363F30002012165722275A361A0
:10299000218005B1A172002070BD00BF10B582B0CA
:1029A000164B019302A9019B41F8083DFFF7FEFE7B
:1029B000009A019B9A4204460BD110B9204602B0FE
:1029C00010BD01200E492246FFF7B0F8204602B0A4
:1029D00010BD02200B49FFF7A9F84FF08052009B71
:1029E000D2F80C210849C3EB822202F100520220E6
:1029F000FFF79CF8204602B010BD00BF2821002040
:102A0000F4D402007CD40200C0D4020010B51D4BE7
:102A10001A6882B0F2B91C4B1A680AB902B010BD2C
:102A200000221A601B6801934FF080430222174C6A
:102A30000199C3F8082323690122A270002BEDD06D
:102A40001A6822615B68012098472369002BF7D13F
:102A500002B010BD00221A601B6800934FF0804343
:102A600001220A4C0099C3F80823A3686270002B66
:102A7000D1D01A68A2605B6800209847A368002B39
:102A8000F7D1C8E700010040040100407C2B002082
:102A900000B1704710B5064CA3683BB11A68A2603C
:102AA0005B6800209847A368002BF7D110BD00BFDA
:102AB0007C2B002010B582B002A80023144C00F833
:102AC000013DFFF737F9237893B9124A6360E36059
:102AD0001068A36010F00100236114D0FFF7C8FE56
:102AE00020B94FF080430122C3F818250123237039
:102AF000E3689DF8070001330122E360A270FFF74D
:102B000041F902B010BD0721FFF754F9E6E700BF15
:102B10007C2B002000E100E02DE9F84F234B1A78D0
:102B20008AB3DFF88CB0DFF88C80DFF88C9000245B
:102B30004FF0010A03E00134E4B2944223D226B2FA
:102B4000D8F80050DBF8003015F836000AFA00F12A
:102B5000194205EBC607EED0154A23EA01031360BC
:102B600000F056FA15F83650D9F800300AFA05F197
:102B70000B4000FA05F18B4207D00C4B01341A7858
:102B8000E4B29442DBD3BDE8F88F79787B68A1F199
:102B90000101B1FA81F14909002BEED0091A28464A
:102BA000B1FA81F149099847E7E700BF982B002067
:102BB000C02B0020942B0020BC2B002070B50646B3
:102BC0001148FFF7B1FD40B9104D01242B68B44006
:102BD0001C4203D023EA04042C6070BD304600F090
:102BE00017FA0B4E326860B122432B6809493260F4
:102BF0001C432C60044809680022BDE87040FFF7C0
:102C00003BBD22EA0402F0E79C2B0020C02B0020F1
:102C1000BC2B0020902B0020F0B5042A85B017466D
:102C200002D8072005B0F0BD0191054600F0BAF8C2
:102C30000199002830D01C4CDFF888E01B481C4A62
:102C40001C4B256000264C1E07608EF80010166095
:102C50001E60E4B2032709B918E01C4623B205EB55
:102C6000C30215F833009378134A8DF80D3003A989
:102C70008DF80C708DF80E608DF80F6000F09CF8E8
:102C8000631E0028CED1DBB2002CE6D10B4A0C48E3
:102C90000021FFF7DFFCC5E7019100F041F8019941
:102CA0000028C8D0BEE700BF942B0020902B002046
:102CB000BC2B0020C02B0020BD2B0200192B0200D2
:102CC0001CD50200982B002070B5084D2B785BB105
:102CD000074E00243368012113F8340000F036F960
:102CE0002B780134A342F5D8002070BD982B00202A
:102CF000942B002010B5094B1B6803EBC00413F89C
:102D0000300000F085F96378A3F10103B3FA83F38F
:102D10005B09181AB0FA80F0400910BD942B00200E
:102D200030B51D4C94F8545083B015B1082003B051
:102D300030BD4FF0FF33FF2206200721236363637A
:102D4000A363E36323646364A364E3642360636055
:102D5000A360E36023616361A361E361236284F89C
:102D600050306362A36284F85230E36284F85330D7
:102D700084F85120FFF71EF8084B094A1D601B68B4
:102D8000019301984FF000430121284684F8541024
:102D9000C2F8043303B030BDC42B00207C61004076
:102DA00000600040034B93F85400003018BF01202E
:102DB000704700BFC42B0020F0B5634C251895F96F
:102DC0003030002B01DB0820F0BD91F803E0944681
:102DD000BEF1000F56D02368013300F0AD80082605
:102DE00000256B1C584F54F82320013251D0AB1CE6
:102DF0009E4245D957F8232001324AD0EB1C9E420F
:102E00003ED957F82320013243D02B1D9E4237D99B
:102E100057F8232001323CD06B1D9E4230D957F821
:102E20002370013735D0AB1D9E4229D954F8232099
:102E3000454F01322DD0EB1D9E4221D957F823205A
:102E4000013226D005F108039E4219D957F82320F4
:102E500001321ED005F109039E4211D957F82320F3
:102E6000013216D005F10A039E4209D957F82370A2
:102E700001370ED00B35AE4202D9E36A013307D0D9
:102E80000420F0BD236A01334ED00C260825A8E7A4
:102E90000B232618DDB244F823C086F83050BEF16B
:102EA000000F02D1234483F848008B78ABB94A78ED
:102EB0004FF0A04600F5E073920046F82320CB784F
:102EC000ABB96AB2083A1444097894F8502042EA3F
:102ED000811284F850201846F0BD830003F1A0430E
:102EE000D3F8002722F00202C3F80027E7E76BB20D
:102EF0009B0003F1804303F5C0430A78D3F8101513
:102F000021F4473121F44071C3F810151204000276
:102F100002F44031D3F8104500F4F8520A4322433A
:102F2000C3F810250020F0BD082685F83060334630
:102F3000C4F820C03546B5E7002385F83030C4F822
:102F400000C01D46B1E700BFC42B0020F0B42E4DD9
:102F50002E1882B096F8302053B2072B1CDD2B447C
:102F600093F848309B09032B40D0012B0CBF4FF442
:102F700000314FF44031800000F1A040D0F800272C
:102F800022F44032C0F80027D0F800370B43C0F8D5
:102F9000003702B0F0BC7047072AFAD8980000F159
:102FA000804000F5C04003F140029200D0F8104587
:102FB00092B202F18042002744F0010402F5C042BF
:102FC000C0F810450197019817600029E1D096F9E3
:102FD000302055F82220002ADBD001220B4902FACA
:102FE00003F3C1F8043302B0F0BC70474FF0A043C4
:102FF000D3F81035C34013F0010F14BF4FF4403124
:103000004FF40031B7E700BFC42B00200060004040
:103010004FF0A043D3F8103523FA00F000F0010080
:10302000704700BF2DE9F04786B00026A24B0196FD
:103030001A68012A00F03281A04B1A68012A00F0B8
:103040001F819F4B1A68012A00F00C819D4B1A6862
:10305000012A00F0F9809C4B1A68012A00F0E680F2
:103060009A4B1A68012A00F0D380994B1A68012AFA
:1030700000F0C080974B1A68012A00F0AD80964B93
:103080001A68012A00F09B8016F0FF0F1AD0934FA8
:1030900001250024A30003F18043354203F5C0431A
:1030A0004FEA45050BD0D3F8100557F82420D3F884
:1030B0001015C0F30420C1F3014102B1904701345F
:1030C000082CE7D1002E02DB06B0BDE8F087844D66
:1030D00000224FF0FF33A5F1530702920393814C76
:1030E0004FF00008012614F8011FFF292BD0C9B2A8
:1030F00021F0C00006AB4FEAD00E03EB0E0201F048
:10310000070312F80CCC06FA03F31CEA030F1AD0DB
:1031100007EB000C89099CF930C057F82CC0BCF1B2
:10312000000F3CD003293CD04FEA800E0EF1A04E98
:1031300012F8149CDEF8002719EA030FC2F30142CB
:1031400011D1032A36D0AC42CDD1B8F1000FBBD09B
:103150004FF0A043019AD3F810359342B4D0029AAD
:1031600001930392BBE7022AEDD1032904D0BCF1FD
:10317000000FE8D0E047E6E74FF44039DEF80027DB
:1031800022F44032CEF80027DEF8003708F10108BB
:1031900049EA03035FFA88F8CEF80037E7E7032926
:1031A000D1D10DF1080A1AF80E9049EA03090AF87C
:1031B0000E90B9E70329DAD14FF40039DEE7002297
:1031C0001A601B6805934FF0A043059AD3F8103599
:1031D000019346F0004657E7434AD2F8042312060B
:1031E0007FF54DAF00221A601B680493049B46F0E4
:1031F000800644E73C4AD2F8042351067FF53AAFF3
:1032000000221A601B680493049B46F0400631E7D5
:10321000354AD2F8042390067FF527AF00221A60C2
:103220001B680493049B46F020061EE72E4AD2F842
:103230000423D4067FF514AF00221A601B680493A0
:10324000049B46F010060BE7274AD2F80423150723
:103250007FF501AF00221A601B680493049B46F0BF
:103260000806F8E6204AD2F8042357077FF5EEAEA9
:1032700000221A601B680493049B46F00406E5E6EE
:10328000194AD2F8042392077FF5DBAE00221A60B8
:103290001B680493049B46F00206D2E61249D1F85B
:1032A000041311F0010105D01E601B680493049BF8
:1032B0001646C1E60E46BFE60061004004610040CC
:1032C000086100400C610040106100401461004042
:1032D000186100401C6100407C610040C42B00204C
:1032E000172C0020132C002000600040007800F014
:1032F0000100704738B5044608460D4609F07EFACD
:103300006560208038BD00BF0388112B02466FD056
:103310002DE9F0431A2B89B0064650D0102B02D06D
:1033200009B0BDE8F083DFF8E89099F8152099F826
:10333000143009F1040123EA020203A800F08AFA1A
:10334000039F87B10024A0460DF10E052F4835F8E4
:10335000023FCDF80080013400F110011D2200F081
:1033600043F9BC42F2D199F81400B788284CC04305
:10337000C0B200F0CDF84FF6FF7398423FD004EB97
:10338000400504F11501201D3A460123AF8000F0ED
:10339000E3F83A46201D04F11401012300F0DCF8A3
:1033A000F37BB288A3F10203201DB3FA83F304F187
:1033B00016015B0909B0BDE8F04300F0CDB8037A0F
:1033C000124892881F2B94BF0023012300F11301A0
:1033D00000F0C2F8337A0D48B2882F2B94BF002337
:1033E000012300F1140109B0BDE8F04300F0B4B8C6
:1033F0000648928800F11101002300F0ADB80420C6
:1034000009B0BDE8F043FDF73FBF00BF202C00200E
:103410001C2C002038B5094C05460246217D201D94
:1034200000F0EAF940B12A46201DA17D00F0E4F940
:10343000002814BF0220012038BD00BF1C2C002032
:10344000024B0246D97D181D00F0D6B91C2C002075
:10345000024B0246197E181D00F0CEB91C2C00202C
:1034600010B5044B0446191D1A7D00F0F3F92046EF
:1034700010BD00BF1C2C002030B40A4D0023296869
:10348000012401E0182B0AD004FA03F20A42D8B250
:1034900003F10103F6D10A432A6030BC7047184695
:1034A00030BC70471C2C002030B4084D01232C6820
:1034B0008B40024613EA040001D130BC7047294416
:1034C000281D497E30BC00F097B900BF1C2C00209D
:1034D000F0B4084D01242E688C40344201D1F0BC78
:1034E0007047074629441346281D3A461931F0BC57
:1034F00000F032B81C2C0020044901230A688340E4
:1035000013401ABF4018407E184670471C2C0020FC
:10351000C30710D4810710D4420710D4030710D476
:10352000C10610D4820610D4430610D4C30910D1AA
:103530004FF6FF707047002070470120704702204F
:10354000704703207047042070470520704706200D
:1035500070470720704700BFE8B1E1B110B404889C
:10356000944228D04488944229D0848894422AD016
:10357000C48894422BD0048994422CD0448994422C
:103580002DD08489944207D0C089904208BF07207B
:1035900003D05DF8044B704706202BB10A78012355
:1035A000834013430B70F4E70A780123834022EA37
:1035B00003030B70EDE70020002BF5D0EEE70120B0
:1035C000002BF1D0EAE70220002BEDD0E6E7032044
:1035D000002BE9D0E2E70420002BE5D0DEE7052050
:1035E000002BE1D0DAE700BF2DE9F0439DF81C4045
:1035F00008B301B3FAB105889D4200F0E480458824
:103600009D4200F0E68085889D4200F0E480C588F8
:103610009D4200F0E28005899D4200F0E0804589EE
:103620009D4200F0DE8085899D4206D0C089984287
:1036300008BF072002D0BDE8F083062001238340A5
:10364000484200F003009042DBB228BF1046002C35
:103650005BD1042A00F2AF8010460D78DC43E4B25F
:10366000254001280D7000F0B2804D78022805EA4F
:1036700004054D7000F0AB808D78042805EA040540
:103680008D7040F0B480CD782C40CC7004468242DE
:10369000D1D0C0EB020EAEF10406551EB6082D1AAD
:1036A0000136022D4FEA860C1AD9002563F307056F
:1036B00063F30F2563F31745084463F31F65ED4378
:1036C000A0F104094FF0000859F8047F08F101083F
:1036D0002F40B04540F8047BF6D3E6456444AAD0B9
:1036E0000D5DDB43D8B200EA0503651CAA420B5509
:1036F000A1D94E5DA31C9A4200EA06044C5578D924
:10370000CA5C1040C854BDE8F083042A57D810465C
:103710000C78012844EA03040C7056D04C78022837
:1037200044EA03044C7050D08C78042844EA030423
:103730008C705AD1CC781C43CC700546824252D052
:10374000C0EB020EAEF10406541EB608241A013670
:10375000022C4FEA86081AD94FF0000C63F3070CCD
:1037600063F30F2C084463F3174C63F31F6CA0F151
:103770000409002759F8044F01374CEA0404B74202
:1037800040F8044BF6D3C64545443FF454AF485D7A
:103790006C1C1843A24248557FF64DAF0E5DA81C25
:1037A000824243EA06050D557FF645AF0A5C134396
:1037B0000B54BDE8F08300283FF46BAF4DE705469E
:1037C0000028BDD0A4E7002038E70546B6E7044648
:1037D0005DE7012032E7022030E703202EE70420D6
:1037E0002CE705202AE7BDE8F0830325A6E703249C
:1037F0004DE7BDE8F08300BFD0B1038893421DD0F0
:10380000438893421CD0838893421BD0C388934241
:103810001AD00389934219D04389934218D08389DF
:10382000934206D0C389934208BF072302D00020E9
:1038300070470623194101F0010070470023F9E7A2
:103840000123F7E70223F5E70323F3E70423F1E776
:103850000523EFE700293AD012F0010330B402D07B
:103860000B8883800123950704D500EB43044D8822
:10387000A5800133540704D500EB43048D88A5804F
:103880000133150704D500EB4304CD88A58001332F
:10389000D40604D500EB43040D89A58001339506B9
:1038A00004D500EB43044D89A5800133540604D5AB
:1038B00000EB43048D89A5800133D20904D000EBCD
:1038C0004302C98991800133036030BC70470160B5
:1038D000704700BF70B51E4B1E4A5B881188994225
:1038E00082B00FD852889A420CD31B4B5B6923B12C
:1038F00002A8012200F8042D9847184C00232370D9
:1039000002B070BD154C227862B1134B5B69002B7D
:10391000F4D002A8002200F8042D98470023237059
:1039200002B070BD0C4D0E4869680678AB680D4852
:10393000002E18BF1946FEF79FFE0028DED0AB69A7
:10394000002BDBD098470023237002B070BD00BF6E
:10395000542C0020A02C0020602C0020502C002093
:103960005C2C00207C2C002070B50388112B27D004
:1039700012D9122B07D0502B47D1244CC288E3898F
:103980009A4230D070BD083003C8214B83E8030051
:10399000BDE87040FFF79EBF102B35D11D491B4C71
:1039A0001B4B1D4DE48900F110028088088092E8CD
:1039B0000300002283E803002A70002CE8D070BDC9
:1039C0001449154B15484FF6FF7400220C801A70ED
:1039D000FEF7AAFE0028D5D00C4B9B69002BD1D056
:1039E000BDE870401847038A022BCBD11230FFF795
:1039F0007DFC0028CCD10948FEF796FE0028C1D0F6
:103A0000A369002BECD1BDE770BD70BD602C002018
:103A1000542C00209C2C00205C2C00207C2C0020AE
:103A200029DF704728DF704770B50C4D696E042997
:103A300011D02B6E0B44032B88BF043B182202FBD2
:103A4000035406464B1C204600216B66FBF77AFDAB
:103A50003460012070BD002070BD00BFAC2C002080
:103A6000F0B5344B1D7815F0060F85B060D1324AA1
:103A70001C46516E176E45F002031646237000294E
:103A800056D0182303FB07231A7A012A05D0022AED
:103A900021D19889FFF7C6FF14E0D98A9A8A1823A2
:103AA00003FB0763083398685B68521AB2F5806FAE
:103AB0004FEA81010844B4BF92B24FF480621944C6
:103AC000FFF7AEFF112805D125F0020545F00405EA
:103AD00025702DE060B3002110226846FBF732FD0F
:103AE000182303FB076303F108011A7A012A0CD09B
:103AF000022A12D18B88CA88ADF80A309B1A01229B
:103B0000ADF808308DF8002007E09A8A89680291A4
:103B10000023ADF80C208DF80030182303FB07F7C5
:103B2000F219F3595268019268469B680921984737
:103B300005B0F0BDA82C0020AC2C00202DE9F043EE
:103B40004FF010235D696B1C49D0DFF8A48098F812
:103B500000C01CF0010F3FD1DFF890E02248CEEB0F
:103B60000000000934D00EEB0011734607461A68B6
:103B700012B15A6802B1013F10338B42F7D13FB303
:103B800000260022194B9146F4B206E0596839B17B
:103B90000132824203F110030ED019680029F5D1D9
:103BA000597B494588BFD4B202F1010288BF8946DA
:103BB000824203F11003F0D1240104EB0E0301361D
:103BC0001A7B5D60BE42A5EB023544F80E50D8D199
:103BD0004CF0010C88F800C00020BDE8F0834FF0E5
:103BE00080535D692D03B0E7DC210020BC2100205B
:103BF000A82C002030B5214C2578EC0787B012D5D1
:103C0000044610B11E48844202D2022007B030BDE3
:103C10001C488442F9D24AB141B142EA010080070E
:103C200006D00620F2E7012007B030BD0320EDE703
:103C30002068814201D20520E8E7656801EB830036
:103C40008542F8D30BB90420E0E705A8039302925C
:103C50000191FFF7E9FE01A90EC908B90720D5E7D0
:103C6000059D2C6005980A9C6C600124C26001616E
:103C700083820472FFF7F4FE0020C7E7A82C00201F
:103C8000BC210020DC21002030B5204C2578EC0739
:103C900087B010D5044610B11D48844202D20220DC
:103CA00007B030BD1B488442F9D261B1C1F30B00AB
:103CB00020B10620F4E7012007B030BD2068814222
:103CC00003D20520ECE70320EAE7656801EB023048
:103CD0008542F6D30AB90420E2E705A803930292CD
:103CE0000191FFF7A1FE01A90EC908B90720D7E786
:103CF000059D2C6005986B60090B0223818102826F
:103D00000372FFF7ADFE0020CAE700BFA82C002019
:103D1000BC210020DC2100202DE9F04FAB4FAC4C42
:103D20003B78256E990785B05BD5022865D00328BE
:103D300040F08480DFF89CE29EF800300133DBB273
:103D4000032B8EF8003079D94FF00008414610223D
:103D500068466E008EF80080FBF7F4FB731904EBE5
:103D6000C303E9461A7A012A03F1080100F0D7805B
:103D7000022A09D18B88CA88ADF80A309B1A012221
:103D8000ADF808308DF800203544ED006219635914
:103D9000526801929B68484608219847636E013B30
:103DA00063661BB93A7822F002023A70256E884A9F
:103DB0000135042D08BF002515667BB16E0073190F
:103DC00004EBC3031A7A012A3CD0022A5AD19889FB
:103DD000FFF728FE11284CD0002853D105B0BDE8CC
:103DE000F08F5A072AD5626E03F0FB033B70002A5E
:103DF000F4D043F002033B70E0E76E0006EB0508E9
:103E000004EBC808734A98F808304FF0000B012BF8
:103E100008F1080A82F800B064D0022B0ED1BAF87B
:103E20000630BAF80420BAF8081001339BB2013208
:103E30009942AAF80630AAF8042078D0636E002BC5
:103E4000BCD1CBE7D98A9A8A731904EBC303083330
:103E500098685B68521AB2F5806F4FEA8101B4BF6F
:103E600092B24FF4806208441944FFF7D9FD11283B
:103E7000B2D13B7823F0020343F004033B7005B05A
:103E8000BDE8F08F002110226846FBF75BFB731939
:103E900004EBC303E9461A7A012A03F1080118D09A
:103EA000022A09D18B88CA88ADF80A309B1A0122F0
:103EB000ADF808308DF800203544ED0062196359E3
:103EC0005268019248469B680921984705B0BDE8B1
:103ED000F08F9A8A896802910023ADF80C208DF842
:103EE0000030E9E7B8F81410B8F81630CA1AB2F57D
:103EF000806FB4BF92B24FF4806206EB050804EB0A
:103F0000C80813449BB208F1100A9942AAF8063077
:103F10002F4A2ED0536E002B7FF450AF5EE78A6895
:103F20009B8A0292ADF80C308DF800802CE7684631
:103F300059461022FBF706FB98F80830012BE9469A
:103F400030D0022B0BD1BAF80430BAF80620ADF805
:103F50000A309B1A0122ADF808308DF80020354454
:103F6000EB00E218E3585268019248469B68002132
:103F700013E7102268460021FBF7E4FA98F80820BE
:103F8000012AE94608F1080316D0022AE7D19A88E7
:103F9000DB88ADF80A20D21A0123ADF808208DF88D
:103FA0000030DCE7DAF80820B8F814300292ADF8F7
:103FB0000C308DF800B0D2E79B68BAF80420029369
:103FC0000023ADF80C208DF80030C8E7A82C0020A5
:103FD000AC2C0020142D00206DDF704772DF70477D
:103FE00079DF70477DDF704765DF7047F0B5048883
:103FF000012C83B007D0148804F1020E9E4505D928
:104000000C2003B0F0BD072003B0F0BD0578012DF2
:1040100004D1457802352544AB42F1D3023B0F462B
:104020001C1B02A9A4B2054621F8024D07EB0E00A5
:104030001646FFF7D7FF0028E3D12B78022B17D0C5
:10404000012B11D023460821FE2BD9D83288581CC9
:10405000B8543288013292B23280B9543288013277
:10406000134433800020CCE76B789C42EBD2E9E725
:10407000BDF806309C42E5D30921E5E72DE9F04F74
:1040800085B083460E9D00882C880194BDF83C9035
:1040900000284ED000278A46164698463C4604E043
:1040A000BBF800300134A34226DDDBF8043053F8BE
:1040B000240003900DF10B0103A80022FFF794FFE9
:1040C00018BB9DF80B30B342EAD10FB32A8893197D
:1040D0004B4519DC424403A80DF10B010127FFF702
:1040E00083FF90B92B889DF80B2013442B80BBF8DD
:1040F00000300134A342D8DCDFB12B88019A013BA8
:104100009B1A9BB2FF2B12D90C2005B0BDE8F08F93
:104110002B885A1C334402334B4592B2F4DC2A807C
:1041200008F802A02A88013292B22A80D2E708F861
:104130000230002005B0BDE8F08F00BF2DE9F04748
:1041400000231788138090F82D3086B0144605465A
:104150000E46002B40F0C880AA78002A40F0F0807C
:10416000EA78002A2CD1696899B1DA1CBA42097838
:1041700022D80222F254238801339BB20A222380E0
:10418000F254238801339BB22380F15423880133F6
:1041900023802B89002B40F0F7802B8A002B40F0E6
:1041A0000C812B8B002B40F021812B6A002B5CD0E3
:1041B0002288911DB94218D90C2006B0BDE8F087BD
:1041C000D91CB942F8D80221F154238801339BB29B
:1041D00001212380F15423880B449BB22380F254A5
:1041E00023880B449BB22380BDE71988052940F240
:1041F000C9806FF4486801EB080080B24FF27D3E41
:10420000704540F2BF805888052840F2BB806FF4AB
:10421000486C84441FFA8CFCF44540F2B3804FF69E
:10422000FF7E714504D0704502D0814200F2AA8021
:104230000521B1542288013292B212212280B15458
:104240002288013292B222801988B1543244090A7C
:1042500051702288023292B222805B88B354324479
:104260001B0A53702388023323806B6A002B2BD0E8
:10427000998820880A1D0244BA429DD88A1CFE2AC9
:104280009AD8033131542288013292B2FF21228020
:10429000B1542288013292B222801988B15432443A
:1042A000090A51702088023080B220809A885AB161
:1042B00099680393002965D0304408F059FA039BAC
:1042C00022889B881344238095F82C30002B40F0E3
:1042D000A680287800283FF470AF28463146224651
:1042E0003B46FFF783FE68E7082F7FF665AF04A81B
:1042F000FFF772FE00287FF460AF23880822F25493
:10430000238801339BB21B222380F2542088013082
:1043100080B22080062230440DF1110108F028FA05
:1043200023889DF8102006339BB212F0FE0218BFBE
:1043300001222380F254238801339BB223800BE7B0
:104340000433BB423FF638AF04A8FFF749FE00280C
:104350007FF433AF2388BDF810200321F154238864
:1043600001339BB219212380F154238801339BB27E
:10437000F1182380100AF2544870238802339BB24C
:104380002380EDE6072018E705F1080802218DE8F3
:10439000900040460A463346FFF770FE00287FF43F
:1043A0000CAF8DE890004046062110223346FFF7FF
:1043B00065FE00287FF401AFEFE605F110088DE8F7
:1043C00090004046032102223346FFF757FE0028A3
:1043D0007FF4F3AE8DE8900040460721102233466B
:1043E000FFF74CFE00287FF4E8AEDAE605F1180886
:1043F0008DE890004046142102223346FFF73EFE2E
:1044000000287FF4DAAE8DE8900040461521102296
:104410003346FFF733FE00287FF4CFAEC5E6D5F86C
:104420002880B8F1000FADD0B8F804200232FE2A7F
:104430003FF6C2AE23884FF000094FF0160A013252
:10444000F254238801339BB2238006F803A023880B
:1044500001339BB22380B8F80020F2543344120A8F
:104460005A70238802339BB22380B8F80410F018E6
:104470000A4661B1D8F808301946002B82D008F0FE
:1044800077F9B8F80430228813449BB2238009F1ED
:10449000010995F82C205FFA89F94A4509EB49088A
:1044A0007FF617AFAA6A02EB8808B8F80420023238
:1044B000FE2AC4D980E600BF2DE9F04794B01F233F
:1044C0000D46ADF80E30044600285AD0C278530786
:1044D00053D590F82D300021ADF80C10002B6BD186
:1044E0008378002B40F0AB801846032114AE5F1C8C
:1044F0000233304416FA87F716FA83F64FF0020EAD
:104500008BB2012100F840ECADF80C3007F8401CEC
:1045100006F8402C6268B2B1D91C1F29167828D839
:1045200014AF581C9A1C17FA80F03B4417FA82F219
:104530004FF0020E0A2703F840ECADF80C1000F81B
:10454000407C02F8406C2389002B40F08581238A4F
:10455000002B40F09F81238B002B40F0B981236A10
:10456000002B00F0D880BDF80C20911D1F2940F2CF
:104570008F800C2014B0BDE8F087072014B0BDE890
:10458000F087ADF80C00002D00F00481EB78002BD3
:10459000F3D128460CA90DF10E02FFF7CFFD00283C
:1045A000ECD19DF80E300CAA20469DF80C10FFF7B8
:1045B00015FD14B0BDE8F0870CAF3846FFF70CFDD1
:1045C0000028DBD1BDF80C3014AA03F1010C12FA5B
:1045D0008CFC03F1020E13441FFA8EFE04AE4FF062
:1045E00008094FF01B0803F8409C0DF13101062229
:1045F00006EB0E000CF8408CADF80CE008F0B8F8B3
:10460000BDF80C209DF83010931D11F0FE019BB2F7
:1046100040F07C8114A8034403F8401CD31DA27809
:104620009BB2ADF80C30002A40F01181E278002AEC
:104630003FF470AFD91C1F2918469AD856E70CAF23
:104640003846FFF7CDFC002898D1BDF80C30BDF8F6
:104650003070E278991C0DF1500E581C89B204AEEE
:104660000EEB03091EFA80F0043306EB010E4FF047
:10467000030A4FF019089BB24FEA172C09F840AC17
:10468000ADF80C3000F8408C77548EF801C0CEE7BE
:10469000188805287FF671AF6FF4486C00EB0C06A4
:1046A000B6B24FF27D37BE427FF667AF5E88052E09
:1046B0007FF663AF6FF4486EB6441FFA8EFEBE45B8
:1046C0007FF65BAF4FF6FF77B84204D0BE4202D010
:1046D000B0423FF652AF14A8561C10FA86F600EB13
:1046E000020E901C80B212274FF0050C0EF840CC41
:1046F000ADF80C0006F8407C1F88ADF80C1004AE35
:104700003118375404323F0A4F7092B25B88B35469
:1047100032441B0A5370676A9FB3B888BDF80C30E7
:10472000811C9A1C56181F2E3FF623AFFE293FF618
:1047300020AF14AE591C06EB030E16FA81F192B2AB
:104740000330FF260EF8400CADF80C2001F8406C49
:10475000398804AEB018B154090A41700433BA88DC
:1047600098B2ADF80C0062B1B96800293FF405AF0A
:10477000304407F0FDFFBDF80C30BA881344ADF8A3
:104780000C3094F82C3053B904AE2378002B53D15D
:104790003446F8E62B46ADF80E502A4604E7A76AE1
:1047A000002F3FF4EAAEB9880231FE293FF6E1AEB0
:1047B0009E46BDF80C304FF0000804AE4FF01609CD
:1047C00014AA581C02EB030C12FA80F09A1C92B245
:1047D00001310CF8401CADF80C2000F8409C3988E1
:1047E000B1543244090A51700433B9889BB20A4665
:1047F000F018ADF80C3079B1BB681946002B3FF4C6
:10480000BCAE07F0B5FFBDF80C30BA8894F82CE0C8
:1048100013449BB2ADF80C3008F101085FFA88F838
:10482000F04508EB4802B0D2A76A07EB8207B988C7
:104830000231FE29C4D99CE62046314603AA1F2333
:10484000FFF7D4FB00287FF499AE34469BE604338F
:104850001F2B3FF68EAEF3E603AA04F1080704AE61
:104860004FF01F0802218DE80401384633460A46FE
:10487000FFF704FC00287FF481AE03AB8DE808014C
:104880003846334606211022FFF7F8FB00287FF454
:1048900075AE5CE603AA04F1100704AE4FF01F08E2
:1048A0008DE804013846334603210222FFF7E6FB78
:1048B00000287FF463AE03AB8DE808013846334629
:1048C00007211022FFF7DAFB00287FF457AE42E6FB
:1048D00003AA04F1180704AE4FF01F088DE8040185
:1048E0003846334614210222FFF7C8FB00287FF424
:1048F00045AE03AB8DE8080138463346152110223A
:10490000FFF7BCFB00287FF439AE28E614A90B445E
:10491000012103F8401C81E6022000F01FBB00BF0C
:104920002DE9F0410C46054600F030FBB8B9012CEA
:1049300019D00BD3022C14D1164B5C787CB1164BDA
:104940001B6863B12046BDE8F04118471348FDF7E6
:10495000EBFE104B124A9B7814789C42EED0BDE8D7
:10496000F081BDE8F0810B4E737834781BB90C4BA5
:10497000B2781A70E2E70B4B0B4F1968074801EB4E
:10498000810149003A46FDF777FE0028EFD13D70DE
:10499000EDE700BF8C2D0020442D0020482D002085
:1049A0003C2D0020402D0020152D00207F4B1B6842
:1049B000DB0700D4704770B57D4E7E4D33782C7880
:1049C0009BB9172C10D8DFE804F0666B6B879CB09E
:1049D000C2AA2415241582313131313151565ECFAE
:1049E0000C0C00F0B3FA2C7070BD0023337000F093
:1049F000A5FAE6E701231846337000F0AFFA6E4BD4
:104A00006E481968002201EB8101BDE87040FDF796
:104A100033BE01231846337000F0A0FA664B674896
:104A200019680022BDE87040FDF726BE6448FDF716
:104A30007BFED4F11104024600F0A180002840F072
:104A40009E80012C0DD0C8255E4B5B495C480968EF
:104A500005FB04F4A3FB04435B0901FB03F1FDF731
:104A60000BFE0220BDE8704000F058BA00F066FA74
:104A700012232B7070BD00F061FA002000F04EFA96
:104A800013232B7070BD00F059FA012000F046FA94
:104A900014232B7070BD00F051FA00232B7070BDF1
:104AA000002000F033FA002879D0002000F03EFA10
:104AB000022C0CBF122328233F4A2C7011683F4858
:104AC00001FB03F10022BDE87040FDF7D5BD00F009
:104AD0003DFA0C232B7070BD002000F017FA00285F
:104AE00056D0002000F022FA0822334B33481968D0
:104AF00003232B7001FB02F1BDE870400022FDF79B
:104B0000BBBD002000F002FA00283DD0002000F0DC
:104B10000DFA2822284B294819680423E9E70020C8
:104B200000F0FCF907232B7070BD002000F0EEF9B7
:104B300090B3002000F0FAF91F4B204819680523B4
:104B40002B7049000022BDE87040FDF795BD0020A4
:104B500000F004FA184B1948196806232B7000223C
:104B6000BDE87040FDF788BD00F0E8F9002000F0D6
:104B7000D5F9012000F0D2F915232B7070BD022069
:104B8000BDE8704000F0D2B900F0C8F90422C1E7D6
:104B900000F0C4F90222A8E700F0C0F9CCE700F069
:104BA000BDF9022C0CBF0223042385E7182D002039
:104BB0003D2D0020682D0020402D00201C2D0020C0
:104BC0006C2D00201F85EB5110B5007800F0DEF948
:104BD00040B9054B587828B1044B1B6813B1BDE8A8
:104BE0001040184710BD00BF8C2D0020442D002020
:104BF00070B5964B1A6812F0010202D11646304683
:104C000070BD934D2B780446E3B9172C00F21C813C
:104C1000DFE814F0E600ED00ED0054006B008200C8
:104C2000970046002C001D002C001D00A500AC00C4
:104C3000AC00AC00AC00AC00CB00D200DC00390012
:104C40004E004E0000232B7000F078F9DDE70123C1
:104C500018462B7000F082F97E4B7F4819680022BD
:104C600001EB8101BDE87040FDF706BD0123184648
:104C70002B7000F073F9774B774819680022BDE874
:104C80007040FDF7F9BC00F059F9002000F046F93A
:104C9000012000F043F9714B15221A700026AEE78F
:104CA000002000F03BF96D4B07221A700026A6E7A2
:104CB00000F04CF9694B00261C70A0E7002000F0C2
:104CC00025F9002800F0BC80002000F02FF9082210
:104CD0006049624B0968604803241C7001FB02F1C3
:104CE000BDE870400022FDF7C7BC002000F00EF9BF
:104CF000002800F09E80002000F018F92822554975
:104D0000564B0968544804241C7001FB02F1BDE8AD
:104D100070400022FDF7B0BC002000F0F7F800283A
:104D200000F08B80002000F001F94A4A4B4B1168DB
:104D3000494805241C7049000022BDE87040FDF779
:104D40009BBC002000F00AF9444B424A42481168DB
:104D500006241C700022BDE87040FDF78DBC00F0F9
:104D6000F5F83E4B0C221A70002648E73C48FDF748
:104D7000DBFCD4F11104064650D000284ED1012CA2
:104D80000FD0C825374B33493548096805FB04F473
:104D9000A3FB04235B09324601FB03F1FDF76CFC26
:104DA0000646022000F0BAF829E700F0C7F82B4BBE
