:020000040000FA
:10000000E8260020150400001D0400001F04000065
:10001000210400002304000025040000000000006B
:1000200000000000000000000000000027040000A5
:1000300029040000000000002B0400002D04000033
:10004000110700002F0400002D0A00002F040000FB
:100050002F0400002F040000390500002F040000C9
:100060002F0400002F0400002F0400002F040000C4
:100070002F0400002F0400002F0400002F040000B4
:10008000490A0000690700002F0400002F04000047
:100090008D0700002F0400002F0400002F04000033
:1000A0002F0400002F0400002F0400002F04000084
:1000B0002F0400002F0400000000000000000000DA
:1000C0002F0400002F0400002F0400002F04000064
:1000D0002F0400002F0400002F0400000000000087
:1000E0000000000000000000000000000000000010
:1000F0000000000000000000000000000000000000
:1001000000000000000000000000000000000000EF
:1001100000000000000000000000000000000000DF
:10040000DFF80CD000F066F800480047ED1A000055
:10041000E82600200648804706480047FEE7FEE73A
:10042000FEE7FEE7FEE7FEE7FEE7FEE7FEE7FEE7A4
:100430009107000001040000004870476C2F000085
:1004400040EA01039B0703D009E008C9121F08C056
:10045000042AFAD203E011F8013B00F8013B521ED6
:10046000F9D27047421C10F8011B0029FBD1801AF9
:1004700070472DE9F05F0546002092469B4688466E
:100480000646814640241BE0284641464746224610
:1004900000F041F853465A46C01A914110D3114614
:1004A0001846224600F028F82D1A67EB01084F463F
:1004B00022460120002100F01FF817EB00094E41F1
:1004C000201EA4F10104DFDC484631462A4643469B
:1004D000BDE8F09F064C074D06E0E06840F00103E0
:1004E00094E8070098471034AC42F6D3FFF78CFF2E
:1004F0007C2F00009C2F0000202A04DB203A00FA09
:1005000002F1002070479140C2F1200320FA03F36A
:10051000194390407047202A04DB203A21FA02F068
:100520000021704721FA02F3D040C2F1200291402D
:1005300008431946704700002DE9F04700268CB0AB
:10054000DFF86091B0464FF4807501243746069677
:10055000284601F037FF38B1D9F80403204203D010
:10056000284601F025FF26432D1D64007F1CADB2F7
:10057000082FEDD34FF4BE74204601F023FF48B19D
:10058000204601F015FF46F0004606AA0121002092
:1005900001F0FAFE444D16F0FF0F15D0012700249C
:1005A00037420DD009EB8401D1F81005D1F81015B0
:1005B000C0F3042055F82420C1F3014102B1904753
:1005C0007F00641C082CEBD3002E67DA4FF0FF305D
:1005D000CDE9088000263446281910F8507F90F99C
:1005E000000027F0C008401C44D009A9404601F093
:1005F000F9FA58B34FEA9719404601F087F855F8D1
:1006000020701FB1B9F1030F03D00FE0B9F1030F50
:1006100030D108A84FEAD80208F00703815C4FF0F8
:10062000010C0CFA03FC41EA0C0181544FF0A0418B
:1006300001EB8800D0F8000706A9C0F3014A404644
:1006400001F0D0FA18B1BAF1020F03D012E0BAF1FA
:10065000030F0FD1B9F1030F08D1BAF1020F1BD06C
:100660000221404601F074FE761CF6B217B14946ED
:100670004046B847641C042CAED3002E0ED06A4608
:100680000121002001F080FE06990098884205D0E3
:100690000690089809909DE70321E2E70CB0BDE8B9
:1006A000F0870000006000403801002000F01F02C9
:1006B000012191404009800000F1E020C0F8801243
:1006C000704700F01F02012191404009800000F1B5
:1006D000E020C0F80011704700F01F020121914096
:1006E0004009800000F1E020C0F80012704749077F
:1006F000090E002806DA00F00F0000F1E02080F873
:10070000141D704700F1E02080F8001470470000CD
:100710002DE9F0414FF48077384601F06BFA01245F
:10072000104EA50748B1384601F06BFA0120C5F814
:1007300008037470002000F0F1FF4FF48277384610
:1007400001F058FA00280BD0384601F05AFA02207E
:10075000C5F80803B470BDE8F041012000F0DEBF29
:10076000BDE8F0812401002007480021C0F84011B5
:10077000C0F84411C0F84811C0F84C11C0F800117D
:10078000C0F8041102F0BEB90010014002F036B901
:10079000F0B598480023021D01780125101D4FF087
:1007A0008056062907D11478240704D10478C4F3AD
:1007B0000314032C02D0062904D00FE08F4F8E4C77
:1007C0007C670EE01478240708D10478C4F303147E
:1007D000032C06D0042C04D0052C02D0062907D007
:1007E0000EE0D6F84442864FC4F342343C6002E047
:1007F0001478240704D10478C4F30314032C02D022
:10080000062906D011E07F4C276827F08077276003
:100810000EE01478240708D10478C4F30314032CE1
:1008200006D0042C04D0052C02D006290AD011E0F1
:100830004FF08044C4F80C31C4F81031704C241FC0
:10084000236002E01478240704D10478C4F303146D
:10085000032C02D0062905D00CE0694F032464372D
:100860003C600AE01478240704D10478C4F303142C
:10087000032C02D006290DD014E0634F05243C6000
:10088000614C78342560604C083423603F243F1D60
:100890003C6002E01478240704D10478C4F3031404
:1008A000052C02D0062957D068E058490968584AF3
:1008B00011605649091D0968121D1160534908311C
:1008C0000968121D116051490C310968121D11602F
:1008D0004E4910310968121D11604C4914310968E4
:1008E000121D1160494918310968494A20321160C6
:1008F00046491C310968121D1160444920310968BC
:10090000121D1160414924310968121D11603F49CF
:1009100028310968121D11603C492C310968121DEB
:1009200011603A4930310968394A4032116037491B
:1009300034310968121D1160344938310968121DBB
:10094000116032493C310968121D11602F49403154
:100950000968121D116002E0117809070ED10078B4
:10096000C0F30310032803D0042801D0052805D1C3
:10097000D6F85802274900F04F0008602148743823
:10098000016841F470010160BFF34F8FBFF36F8FB7
:100990004FF01021D1F80002002803DBD1F8040247
:1009A000002822DA1C4A15601C480468002CFCD080
:1009B0001524C1F800420568002DFCD0C1F804429E
:1009C00001680029FCD0136001680029FCD0BFF346
:1009D0004F8F0C48F0380168114A01F4E06111436F
:1009E0000160BFF34F8F00BFFDE70F490D4808605E
:1009F000F0BD0000E00F00F00DF0ADBA00C0074000
:100A00003C050040FCED00E01056004004040010DE
:100A100020C50040E40E004004E5014000E4014030
:100A20000400FA050090D0036C0000200448017F08
:100A300004480029024901D002F075B902F0E4B877
:100A40009001002000200040094882B0D0F8040343
:100A50004FF0000110F0010F07D006480160006858
:100A600000900548406802B0004702B0704700009F
:100A70000000014000010140180000200FB41CB527
:100A80000246002007AC00290BD0491ECDE9002109
:100A9000054B6A462146069800F018F8009A002196
:100AA00011701CBC5DF814FB2F0F000002E008C899
:100AB000121F08C1002AFAD170477047002001E0D8
:100AC00001C1121F002AFBD1704700002DE9FF4F22
:100AD0008DB00F460546002606E025280BD0DDE93F
:100AE0000F1290476D1C761C28780028F5D111B0A4
:100AF0003046BDE8F08F0024A246A1460122EC4911
:100B000000E0044315F8013F203B02FA03F00842DD
:100B1000F7D128782A2810D06FF02F022878A0F17A
:100B20003001092914D80AEB8A0102EB410144F093
:100B3000020400EB010A6D1CF0E701CF5FEA000A36
:100B400003D544F40054CAF1000A44F002046D1CB9
:100B500028782E2817D115F8010F44F004042A280C
:100B60000ED06FF02F022878A0F1300109290AD8A1
:100B700009EB890102EB410100EB01096D1CF2E771
:100B800057F8049B6D1C28786C280FD006DC4C2885
:100B900017D068280DD06A2814D104E0742810D02A
:100BA0007A280FD10DE044F400140AE044F48014D4
:100BB00001E044F440146978814202D104F58014C4
:100BC0006D1C6D1C2A786E2A1FD00CDC632A31D074
:100BD00004DC002A8BD0582A11D1A3E0642A68D003
:100BE000692A0CD165E0732A2ED004DC6F2A73D0F9
:100BF000702A04D19BE0752A6FD0782A6ED01046F7
:100C0000DDE90F129047761C50E1C4F30250022830
:100C100006D0032809D0042801CF09D0066045E199
:100C200001CFF117C0E9006140E101CF06803DE14D
:100C300006703BE117F8040B8DF8000000208DF8DA
:100C40000100EB46012003E057F804BB4FF0FF30F2
:100C500061074FF0000102D40DE008F10101884660
:100C600049450FDA8045F8DB1BF808100029F4D15C
:100C700008E008F1010188468142FADB1BF8081000
:100C80000029F6D1DDE90F23AAEB080081462146B1
:100C900000F036F9304400EB080604E0DDE90F12FD
:100CA0001BF8010B9047B8F10108F7D221464846DE
:100CB000F7E00A21C4F302534FF0000B0891022B16
:100CC00004D001CFC117032B09D00AE0FF1D27F084
:100CD0000707F7E8020108E032E01FE020E000B279
:100CE000C117042B01D140B2C117031E71F10003DB
:100CF00007DA4FF0000CD0EB0C006CEB01012D2358
:100D000002E0230504D52B238DF82430012303E0D2
:100D1000E30701D02023F7E7984658E00A2110E0C6
:100D200010210EE010204FF0000B08900CE0102175
:100D30004FF0000B44F004044FF00809089103E061
:100D400008214FF0000B0891C4F30253022B04D08A
:100D500001CF0021032B06D006E0FF1D27F0070777
:100D6000F7E8020103E080B2042B00D1C0B24FF0DB
:100D7000000823072BD5702A07D0DDF820C08CF09F
:100D8000100C5CEA0B0C05D00EE040238DF82430EB
:100D9000012308E050EA010306D030238DF8243007
:100DA0008DF8252002239846DDF820C08CF0080C31
:100DB0005CEA0B0C0BD150EA010301D1630706D5A5
:100DC00030238DF824304FF00108A9F10109582A89
:100DD00004D038A20B9208AA0A920BE03AA2F9E7D3
:100DE0005B46089AFFF745FB0B9B9B5C0A9A521ED9
:100DF0000A92137050EA0102F2D10A98ADEB00009A
:100E000000F1200B600702D524F4803401E04FF09C
:100E10000109D94502DDA9EB0B0000E0002000EB41
:100E20000B0141440890AAEB010AE00306D4DDE976
:100E30000F232146504600F063F806444FF00009A6
:100E400008E009A911F80900DDE90F12904709F13E
:100E50000109761CC145F4DBE0030CD5DDE90F2365
:100E60002146504600F04CF8064404E0DDE90F123C
:100E700030209047761C0899481E08900029F5DC20
:100E800008E00A980A990078491C0A91DDE90F12D6
:100E90009047761CBBF10001ABF1010BF1DC214660
:100EA0005046DDE90F2300F019F806446D1C1BE6DF
:100EB0000928010030313233343536373839616230
:100EC00063646566000000003031323334353637F4
:100ED0003839414243444546000000002DE9F041C5
:100EE000044600251E461746880404D405E039460A
:100EF0002020B0476D1C641EF9D52846BDE8F0815E
:100F00002DE9F041044600251E469046C80301D550
:100F1000302700E02027880404D505E04146384604
:100F2000B0476D1C641EF9D52846BDE8F0814A68BB
:100F3000002A06D00A68531C0B6010704868401ED7
:100F400048607047022000F065B9000070B50024C9
:100F5000064D06E06868012110F8340000F062FFD9
:100F6000641C28788442F5D3002070BD2400002042
:100F7000F8B515460C460646052A01D20720F8BDED
:100F800001F036F818B901F005F80028F7D110493A
:100F900000204E600C70C1E902500E4D08610DE05A
:100FA00006EBC4006968009181788DF80110007823
:100FB000094A694600F088FF0028E0D1641EE4B2C7
:100FC000EED2BDE8F840054A0021024800F016B80C
:100FD000240000209C2E000091180000F117000052
:100FE00000F060F9FEE70EB500210091CDE9011097
:100FF0006A4644F20100FFF7F3FF0EBD074B5B6842
:1010000023B12AB120B10068037C1BB108207047CE
:10101000072070474174426100207047480000205B
:101020002DE9F047074698461446894690074FF049
:10103000000526D12CB301F081FC134E06F11000FF
:10104000C6F80C800570457080F8029044607560A9
:10105000357075701420FFF729FB07211420FFF766
:1010600046FB1420FFF72DFB0848076007211120DD
:10107000FFF73DFB0548001F0068B0600020BDE899
:10108000F0870720FBE7000038000020081501402A
:101090002DE9F843DFF87090D9F804305BB350B312
:1010A000052902D20720BDE8F88343691BB3437CBE
:1010B000012B22D0002704460025884616462846E4
:1010C00000F036F8684601F0A7FEC0B101210170BA
:1010D0000E4944600968C0E90218C0E904769DF829
:1010E000000089F80100002000F024F81420FFF728
:1010F000F3FA2846D7E70820D5E70F46DBE70425B3
:10110000002000F017F8F4E7480000200415014023
:101110000649496839B130B1416921B100210174F2
:10112000022101F0CFBC08207047000048000020D9
:1011300000F002B800F008B872B602480168491C15
:10114000016070475800002003490868401E08608D
:1011500000D162B670470000580000202DE9F04130
:10116000064608680C46411C4FF0A0474FF00105A9
:1011700006D005FA00F1C7F80815206801F0DEF87E
:101180006068411C02D0002101F0CFF8307920497D
:1011900001EB4010A169007F00283068C0F82415D9
:1011A00025D0607D227D31681043C1F86C05D4E9FB
:1011B00000123068C0F80C15C0F8142524E0A068AF
:1011C000411C02D0002101F0B0F8E068411C05D0BC
:1011D0008540C7F80855E06801F0B0F8D4E902127C
:1011E0003068C0F80825C0F81015BDE8F081607DB2
:1011F000217D32680843C2F86C05D4E900123068DA
:10120000C0F81425C0F80C15207D0128D7D0ECE7D4
:101210009001002007490B5C4FF0A041D1F8042554
:101220000120984020EA0203C1F808351040C1F8B7
:101230000C057047582E00000249085C012101F09E
:1012400098B80000582E00000249085C002101F007
:1012500090B80000582E00000649095C4FF0A040ED
:10126000D0F80405C84010F0010000D0012080F043
:1012700001007047582E00007CB50024084E25461A
:101280000122305D009500231146019501F00EF812
:10129000641C042CF4D3BDE87C4000F003B80000CB
:1012A000582E000010B500242046FFF7C5FF641C2F
:1012B000042CF9D310BD10B500242046FFF7C4FF5D
:1012C000641C042CF9D310BD10B50246064B4FF038
:1012D000FF3000215C5C944201D1084610BD491CDE
:1012E0000429F7D310BD00005C2E00002DE9F04763
:1012F0000D468146FFF7E8FF0446042838D2DFF8A0
:1013000078801C481D4EA8F1100735B3012D0ED072
:10131000022D2DD104EB440030444578002D27D018
:10132000F968002924D02846BDE8F047084704EBB7
:101330004401755C0E44717859B179680E4A01EB2D
:10134000810149000E3A8068FFF7A2FE08B987F8CC
:101350000290B17808F80410E0E78068FFF7D8FE43
:1013600004EB4401314418F804008D78A842D5D02C
:10137000BDE8F087602E000014000020F800002077
:10138000FFF7E4BD10B50E2809D10548007800F03C
:101390004FFFBDE8104003A1032001F01FBA10BDAC
:1013A000000000204661426F5F3132305F42555489
:1013B000544F4E3A494E464F3A427574746F6E2000
:1013C00050555348210D0A0070B50023042810D24F
:1013D0000D4D00EB4004012A02D101290CD000225E
:1013E000094E00EB4000304461B1012906D00229CA
:1013F00006D00723184670BD0E30C2B22A55F9E751
:101400004270F7E78270F5E7F80000202DE9F0411F
:1014100006461F4800240F464160C0E90262B0073B
:101420001FD50025012211462846FFF7CDFF6D1C70
:101430000446042D02D2002CF4D012E08CB97A08B4
:1014400004211448FFF794FD04000AD1FFF77EFD44
:10145000040006D10F48104A0021001FFFF7CEFDFF
:101460000446F00701D0FFF707FF74B909480B4A9B
:1014700000210C38FFF7C2FD040006D10548084AD8
:1014800001210838FFF7BAFD04462046BDE8F08187
:10149000040000206C2E0000A11600007919000045
:1014A000450F00002DE9F047594C054600266078AD
:1014B00018B100206070FFF7F5FE0120554F4FF482
:1014C0007A694FF4C87A4FF06408182D2CD2DFE8FF
:1014D00005F0890C0C2C3A4751565A615A619B69A8
:1014E00069696969898C8F929B9B0020FFF7B4FE24
:1014F00000284FF0000008D0FFF79EFE022D02D119
:101500004FF4E16006E0484604E0FFF79DFE022D3F
:101510002ED05046B0FBF8F12570606841430022A0
:101520003868FFF7B5FD064659E00020FFF794FE46
:1015300028B10020FFF780FE4FF44870EAE7002052
:10154000FFF782FE14E00020FFF786FE00284FF030
:10155000000002D0FFF770FED5E7FFF775FED8E771
:101560000020FFF779FE0028E9D00020FFF764FE95
:10157000C820CFE70020FFF74DFE257007E00020D0
:101580003FE025702BE060700120FFF743FE002252
:101590006168C5E760700120FFF73CFE606800EB02
:1015A0008001BCE77868FFF7B3FD0646D5F111006E
:1015B00000D01EB10220FFF73FFE10E001280BD93A
:1015C000C82110FB01F1B1FBF8F160680022414332
:1015D0007868FFF75DFD06460220FFF735FE3046CE
:1015E000BDE8F087FFF75EFECBE7FFF75BFEC6E7DF
:1015F000FFF758FE04E0FFF755FE0020FFF724FE3A
:101600000120FFF721FEBCE7FFF755FEB9E7000018
:1016100004000020602E0000002901DA002070473D
:1016200002681144016001207047000070B5461C3B
:101630000D4601240020FFF77BFD114A1068286049
:10164000D2E900109568081A2B1A701C5B1C98428E
:101650000FD963B10B480C4B294000681B6802EBA3
:10166000810163F39F20C8601068401C1060002453
:1016700001E0881910600020FFF75CFD204670BD76
:10168000D0020020C42E000068000020034803C8D8
:10169000814201D10120704700207047D002002014
:1016A00000780221FFF722BE05494FF0FF320828DB
:1016B00041F8202002D3084480F8482070470000F9
:1016C00038010020F0B54FF0FF3512B10023082695
:1016D00001E008230C260C4C05E000BF54F82370F1
:1016E0007F1C04D05B1CB342F8D32846F0BD2618FB
:1016F0005DB286F8305044F82310002AF5D1E11885
:1017000081F84800F1E70000380100200249084450
:1017100090F93000704700003801002070B5084C87
:10172000050009D010342168002907D0086820601E
:10173000496828468847F6E70834F4E770BD00009A
:10174000240100202DE9F05F26484168F1B3DFF85D
:1017500098B00E688146DBF8004087688078E11B0E
:1017600021F07F45ED1CB0B9DFF880804FF4803068
:10177000C8F84403C8F804031120FEF797FF1120AE
:10178000FEF79FFF4FF0010AC8F800A02F2000F0DD
:1017900087FA89F802A0B54200D23546124BE81903
:1017A0003C3320F07F401860DBF800105A46091BDC
:1017B00021F07F41001B20F07F40C91C81420FD9DE
:1017C000106818602F2000F06BFA00E004E0BDE81C
:1017D000F05F1120FEF780BFBDE8F05F01F0AEB80A
:1017E000BDE8F09F380000200415014000100140C2
:1017F0002DE9F04100260125144C22E060682269A1
:1018000000EBC607387805FA00F1114217D08A4379
:10181000226100F0B5FB02463878E36805FA00F172
:10182000194002FA00F3994209D17978012901D0CF
:10183000012100E0002151407A6802B19047761CF6
:10184000F6B220788642D9D3BDE8F081240000208A
:101850000E4910B50A784C780023A24212D0521CCF
:10186000D2B20A70022A00D10B70084A0B781832E3
:1018700052F8232002608868104420F07F4088607E
:10188000012010BD0360002010BD000038000020C2
:101890002DE9F041124E07460125BD403068FFF7A3
:1018A00037FC00280DD10F4C2069284207D138465B
:1018B00000F066FB0028E06805D0284304E0A84358
:1018C0002061BDE8F081A843E060206928432061E1
:1018D000A1683068BDE8F0410022FFF7D9BB0000E5
:1018E0009C2E00002400002070B50E4604460079AE
:1018F00018494FF4A27501EB4010017F2068A1B197
:101900004FF4887100F0C0FF4FF49071206800F030
:10191000BBFF4FF49271206800F0B6FF29462068A3
:1019200000F0B2FF0C49206809E04FF48E7100F01E
:101930009AFF2946206800F096FF08492068C0F801
:101940000413206800F06BFA3146BDE8704000F0E7
:101950004ABA00009001002010030200800002003B
:101960000268134602E08A4204D01268002AFAD1C3
:101970000B600160704700000348017AC90702D07C
:101980000078FFF78FBD7047040000202DE9F04379
:10199000264CA4F110092278D9F8048099F8035054
:1019A000404694F801C0D9F8086031E002EB4203E8
:1019B0006168521C01EBC301A378D2B2934200D1FB
:1019C00000220B78022B02D0032B21D11DE003460D
:1019D0004F68194603E0B94203D00B46C969B9B153
:1019E000F9E7A9B18B4205D1C06918B9104E01259C
:1019F000B56000260F68C969D96149B10B683B44DD
:101A00000B6005E00174C06900E000210028F9D1F5
:101A10009445CBD1C9E9010689F80350404502D06D
:101A20000120BDE8F0830020FBE700004800002013
:101A3000001001402DE9F0412A4F0446002607F12D
:101A40001005D7F804803EE002D02046E4691DE08E
:101A50002878696800EB4002401CC0B201EBC2016B
:101A60002870AA78904200D12E700A784868012A1E
:101A70002BD1027C4ABB8A684260CA6882600A69CC
:101A8000C26049698161F97801B146604368BA680A
:101A9000DFF854C0991A21F07F41614502D2826873
:101AA000114406E0D11A826821F07F418A4202D9AE
:101AB000511A016000E006604660012186600174F1
:101AC000C66100F0E1FF002CBED128786978884219
:101AD000BED17968414502D00120BDE8F0810020E7
:101AE000FBE7000038000020FFFF7F000EB500205C
:101AF00000F0A2FE08B1FFF776FA26A1032000F05D
:101B00006DFE00F013F908B1FFF76DFA002000F048
:101B10002FF900232D4A03211846FFF781FA08B157
:101B2000FFF761FA2A4A40F6CD410220FFF76EFC2A
:101B300008B1FFF758FAFFF79FFB264A07CA8DE85E
:101B400007002549684600F08DFB08B1FFF74BFA06
:101B5000224800F04FFB08B1FFF745FA00F074FB94
:101B60001F4D0024284600F055F82046FFF76CFB77
:101B7000641C042CF6D3FFF703FC08B1FFF733FA1B
:101B800040BF20BFAFF3028000F086FD0028FBD1EC
:101B9000F6E700004661426F5F3132305F425554D4
:101BA000544F4E3A494E464F3A4661626F20536851
:101BB000696E6F62695F53616D706C655F42555409
:101BC000544F4E203132300D0A00000070000020CA
:101BD000851300004C2E0000492E0000000000205C
:101BE000400D0300C20800F007030120895C984003
:101BF0000840704700F180400068002800D00120B4
:101C0000704708B500F18040002101600068009035
:101C100008BD000000283ED01F49204A096800BFC7
:101C200000BF00BF00BF00BF00BF00BF00BF9142A8
:101C30002FD000BF00BF00BF00BF00BF00BF00BF6C
:101C400000BF00BF00BF00BF00BF00BF00BF00BF9C
:101C500000BF00BF00BF00BF00BF00BF00BF00BF8C
:101C600000BF00BF00BF00BF00BF00BF00BF00BF7C
:101C700000BF00BF00BF00BF00BF00BF00BF00BF6C
:101C800000BF00BF00BF00BF00BF00BF00BF00BF5C
:101C900000BF0138C3D170476C0000200024F4005D
:101CA00000283ED01F49204A096800BF00BF00BF7E
:101CB00000BF00BF00BF00BF00BF91422FD000BFD8
:101CC00000BF00BF00BF00BF00BF00BF00BF00BF1C
:101CD00000BF00BF00BF00BF00BF00BF00BF00BF0C
:101CE00000BF00BF00BF00BF00BF00BF00BF00BFFC
:101CF00000BF00BF00BF00BF00BF00BF00BF00BFEC
:101D000000BF00BF00BF00BF00BF00BF00BF00BFDB
:101D100000BF00BF00BF00BF00BF00BF00BF013851
:101D2000C3D170476C0000200024F40070B50E4C45
:101D30000025207808B1852513E00021A1606160AD
:101D40002161E1604FF0E020D0F80001012610F0A1
:101D5000010F03D10721002000F045F80348066079
:101D60002670284670BD00002401002018050040A0
:101D700070B5154D0446A87838B114B161680120DA
:101D800088470020FFF7D4F915E00020FFF7D0F9CD
:101D900024B10D4821461030FFF7E2FDE86850B944
:101DA0004FF48270FFF72DFF02204107C1F80403B2
:101DB000064901200860E868401CE860BDE8704002
:101DC0000020FFF7B7B90000240100200800004000
:101DD00000F01F02012191404009800000F1E02045
:101DE000C0F8801170474907090E002806DA00F094
:101DF0000F0202F1E02282F8141D03E000F1E0225C
:101E000082F8001400F01F02012191404009800077
:101E100000F1E020C0F88012C0F800117047000BFC
:101E200040B270472DE9F0418846054600F032FD8A
:101E3000234E002828461AD0FFF768FC304490F85B
:101E400048008009032802D001280ED007E04FF097
:101E5000A040D0F81005E84010F0010F05D0032194
:101E60002846BDE8F04100F073BA0221F8E700F01F
:101E70001DFD002822D02846FFF748FC04464FF4F9
:101E8000807000EB84000F4F81B207EB8400D0F824
:101E9000102542F00102C0F81025084600F088FA2B
:101EA000B8F1000F0AD02846FFF730FC56F82000A2
:101EB000002803D00120A040C7F80403BDE8F0814A
:101EC00038010020006000402DE9FC41DFF8A480CB
:101ED000044608EB0400002790F930001346C017B1
:101EE0000E46401C01D0082741E0F27819462046F2
:101EF000FFF7E8FB0546401C38D0B07850B14FF0F2
:101F0000A04000EB8400D0F8001721F00201C0F8D7
:101F1000001707E000217378204600910A460191DE
:101F200000F0D6F9F078C0B11348317800EB8500A5
:101F3000D0F81025114B1A40C0F810254FF4F85274
:101F40004FF4403302EA042203EA01410A43D0F885
:101F500010150A43C0F8102509E008EB0500327897
:101F600010F8481F41EA8211017000E0042738464A
:101F7000BDE8FC813801002000600040FFE0FCFF6C
:101F80004FF0A041D1F81015C14011F0010000D070
:101F90000120704770B5144D95F8540008B1082021
:101FA00070BD0020411E2A18401CC0B282F83010BB
:101FB0002028F8D300242046FFF776FB641CE4B207
:101FC0000C2CF8D307210620FFF70DFF4FF4BE704D
:101FD00000F0EEF905494FF00040C1F8040301207C
:101FE00085F85400002070BD3801002000600040DA
:101FF000034890F85400002800D0012070470000EA
:10200000380100200121B1EB507F01D10120704740
:10201000002070472DE9F04105460079164F9046A3
:1020200007EB40140E46E07E10B10820BDE8F081B9
:10203000707F20772846FFF791F85FEA080060601C
:102040003169216003D0317F2846FFF74DFC2879A4
:1020500007EB4010007F0028286801D0082100E02D
:102060000421C0F800150020E0752076A07501213C
:10207000E176A076DAE70000900100202DE9F04734
:10208000054600793F4E904606EB40140F46207FF0
:1020900018B10846FFF7B6FF30B1284600F074F8D3
:1020A00020B11120BDE8F0871020FBE784F81680EE
:1020B000A7600027A78228794FF0010806EB40149B
:1020C0003E46207F0028286825D04FF49079494665
:1020D00000F0DAFB4FF4AC7A5146286800F0D4FBEC
:1020E0002868A17DA268C0F84425C0F84815286872
:1020F000C0F808806068F0B94946286800F0BFFB66
:1021000080465146286800F0BAFB58EA0001F3D037
:1021100058BBA7750FE04FF48E7A514600F0A3FB31
:102120002868C0F808802146286800F047FD6168EB
:102130004FF4807089B13046B4E75146286800F00A
:102140008DFB10B9A08A4845F7D1A08A484505D033
:102150002146286800F032FD00E08146A08AA17D7A
:102160008842EAD3A08A484501D10F26D1E75146DB
:10217000286800F073FB0028F9D02868C0F80C80AC
:10218000C7E70000900100200079044901EB4010EE
:10219000807D002800D001207047000090010020C1
:1021A00070B5044600791149002601EB40152068FE
:1021B0002A7FC0F80065686888B1207901EB40107B
:1021C000007F0028206801D0094901E008498C39C6
:1021D000C0F808132068FFF722FEFFF7F9FD20463C
:1021E00000F070FBEE766E6070BD00009001002084
:1021F0001003020010B504460020FEF799FF0A48BC
:10220000816808290AD221704A1C82600748026846
:1022100001238B401A430260002400E004240020C4
:10222000FEF788FF204610BD180000200805014079
:10223000044A034902EB8000C0F800167047000012
:102240003546526E0000014004490120C1F80403E4
:102250000860034902200870704700000000014038
:10226000180000200E4A10B55160117809B10820FD
:1022700010BD0121117000B90A480B4A01781160A4
:1022800041684FF47A72C903B1FBF2F1064A083A89
:102290001160017A1020FFF7A6FD002010BD00009C
:1022A00018000020902E00000C05014070B541EA96
:1022B0004201DDE904564FF0A04441EA830141EABE
:1022C000052104EB800041EA0641C0F8001770BD0B
:1022D00070B541EA4201DDE904564FF0A04441EAFD
:1022E000830141EA052104EB800041EA0641C0F880
:1022F000001770BD70B541EA4201DDE904564FF0A8
:10230000A04441EA830141EA052104EB800041EA4F
:102310000641C0F8001770BD1CB5002100910B46A6
:1023200001220191FFF7E6FF1CBD1CB500220B4600
:10233000009211460192FFF7DDFF1CBD1CB5002184
:1023400000910B46012201911146FFF7D3FF1CBDFE
:102350004FF0A04202EB8000D0F8002722F4403278
:10236000C0F80027D0F8002742EA0141C0F8001762
:10237000704701224FF0A043824011B1C3F80825F5
:102380007047C3F80C25704718B5084B6C460144DC
:102390001B68009306E000BF54F82030D3F81035D6
:1023A000401C08C28142F7D818BD00008C2E0000E6
:1023B000034908B50844002101600068009008BD89
:1023C0000060004002494058012800D000207047BA
:1023D00000600040004870474D24000030B5184CA4
:1023E000054689B0207828B16078854202D1002066
:1023F00009B030BD202213496846FEF721F80020BD
:102400008DF814000620009008200190052003900C
:10241000072002904FF0EB7006900948001DFFF76F
:10242000BFFE0DB1002200E0074A05486946001DC5
:10243000FFF7F0FD0028DBD1012020706570D6E7A2
:102440005C000020A42E0000F92B00002DE9F04FC5
:10245000C1B00D004FF0000140914D984B991C46C2
:10246000174601EB000B01D00A2000E00020804657
:1024700000F0A8FA00287CD16E46BCB9409840AA6A
:102480003118284600F080FB002872D03846FDF74E
:10249000E9FFC22800D9C220054640982A463044A8
:1024A0003946FDF7CDFF4098284440904FF0200A70
:1024B000409901EB080231320DEB01050DEB0206EC
:1024C000002002E005F801AB401C4045FAD300278C
:1024D0005C4508D305F801AB05F801AB05F801AB85
:1024E00006F801AB2DE04B98844202D24A98005D79
:1024F00002E0211A4C98405C2B468146024601219D
:10250000880022FA00F000F00F00092801D93730C6
:1025100000E03030C1F1010C491E03F80C00EFD28D
:102520009D1C05F801ABFDF787FF016811F8090054
:1025300010F03E0F01D0484600E02E2006F8010BB7
:10254000641C7F1C102FC3D30D2030700A207070C4
:1025500085F800A04099684641444331409100F01D
:1025600037FA30B100F02EFA18B9002040905C45DF
:102570009ED341B02046BDE8F08F2DE9F043C7B0AF
:1025800000251C46904689464E9F459500F01AFA54
:1025900000287AD1459805AE311845AA484600F082
:1025A000F3FA002835D0072F27D2DFE807F004120E
:1025B0001B35424F5D004046FDF754FF05464598E8
:1025C0002918FF2919D830442A464146FDF738FF1B
:1025D00013E045982368C0F5807130444246FEF709
:1025E0004DFA09E06068009045982368C0F5807155
:1025F00030444246FEF742FA0546294645A8FFF711
:102600000BF8459978B3B1F5807F3ED805A800F066
:10261000DFF947B0BDE8F083D4E90101CDE900015D
:1026200045982368C0F5807130444246FEF726FA8B
:10263000E2E7201D07C88DE8070045982368C0F52C
:10264000807130444246FEF719FAD5E7201D0FC8C5
:102650008DE80F0045982368C0F5807130444246EC
:10266000FEF70CFAC8E710E004F1080001AD0FC84E
:1026700085E80F006068009045982368C0F5807178
:1026800030444246FEF7FAF9B6E70020C1E7000001
:10269000004870477B2500002DE9F04F87B0FEF71A
:1026A000F5FF18B1002007B0BDE8F08F454ED6E920
:1026B000014704EA070006EB8000A146641CC568D8
:1026C0000CE000BFC5F3891000EB9550044404EA08
:1026D000070006EB8000A146C568641CA807F1D07E
:1026E00005F003004FF0000B022805D0AA0A01A84C
:1026F000C5F38313002153E004EA070006EB8000D2
:1027000004F1010A0AEA0704C268381B80004FEA94
:102710009558001DC5F38913804521D929490C31ED
:1027200038B106EB840400F0FF0CA8EB00000C3479
:1027300004E00C46002108F0FF0C0846C0B2CDE9C9
:102740000210CDE9004CD6F81444C5F3C200594636
:10275000A047404511D108F103080AEB98042AE08C
:10276000002106EB84000C300090CDE9018103913B
:10277000C5F3C200D6F81444EAE760F38F1509EAFE
:10278000070006EB8000C56016E000BF04EA070CF6
:1027900006EB8C0C491CDCF80CC040F804CB641C24
:1027A0009942F3D3C5F3C2000093D6F8105401AB9D
:1027B0005946A84700B17460FEF768FF80F0010039
:1027C00071E70000D0020020034AFF23936000233A
:1027D0001360536000F028B8D00200202DE9F843C0
:1027E0000F4F88460446002569462846BE68FEF716
:1027F0001DFF002812D00B480021406861F38200C1
:10280000009964F3C50001EA060265F3891007EB3D
:10281000820268F39F20491CD0600091BDE8F883D4
:10282000D0020020C42E0000024A02F5826203C2D8
:1028300070470000D002002070B506460020FFF768
:10284000CDFD040008D1FFF7C5FD0546FFF720FFC9
:1028500032462946FFF7B8FF204670BD4058002891
:1028600000D00120704708B5002242504058009027
:1028700008BDD0F80403084000D00120704740583C
:10288000002800D00120704708B50022425040586F
:10289000009008BD0449084490F93000082801DB85
:1028A0000120704700207047380100200449084487
:1028B00090F93000082801D20120704700207047AD
:1028C0003801002070B5034600791B4901EB401028
:1028D0001968027F4FF0FF30002AD1F80C25D1F89B
:1028E0001465D1F80855D1F8104504D0C1F80C058D
:1028F000C1F8140503E0C1F81405C1F80C05196806
:10290000C1F80805C1F81005501C02D01046FFF7A9
:1029100003FD701C02D03046FFF7FEFC601C02D0A5
:102920002046FFF7F9FC681C04D02846BDE870403B
:10293000FFF7F2BC70BD00009001002070B50126C9
:1029400070044FF0E0210025C1F88001084C4010D0
:10295000C4F84803C4F8080366602F20FFF7A0F905
:10296000A660044C2F20A560FFF79AF9A57070BDF2
:10297000001001403800002070B50546C87D0C46A7
:1029800000284FF4847128460AD0FFF76CFFD5F871
:102990001805627EE1688854607E401C607670BDD8
:1029A000FFF761FFD5F8180570BD1FB501238DF83D
:1029B00000308DF808100192D0E900126846904767
:1029C0001FBD00000148FFF7DFBB000060000020D2
:1029D00070B50D460A46014601240648FDF730FD54
:1029E000EAB204490448FFF749FB00B1002420463D
:1029F00070BD0000D0010020600000202DE9F84FDC
:102A0000204C00256846D4E901B6FEF721FF804638
:102A1000FEF7BCFF0746A946B8F1000F25D00023FA
:102A2000009ACC46606819E007680146974202D9CF
:102A3000BA1A026014E0C1F800C0D1F80C80D21BB1
:102A4000C8693B448A46B8F1000F07D0F71827F051
:102A50007F47C1E90178CAF81C500D460028E3D130
:102A600060602846FEF7E6FF04E02846FEF7E2FF36
:102A700000B917B15846FEF765FE84F80390BDE82B
:102A8000F88F0000380000200D4B10B5596831B1A7
:102A900002680C68A24204D8A21A0A60C161586098
:102AA00010BD0B4603E00B46C969121B21B10C682F
:102AB0009442F8D3A41A0C600260C161D86110BDC1
:102AC00038000020F8B5064600240D462046FEF7E3
:102AD0002FFB684600F0A0F968B105700849466010
:102AE0009DF8000048700020FEF724FB1420FDF73D
:102AF000F3FD2046F8BD04240020FEF71BFBF8E799
:102B0000480000202DE9F0411D4D6C68002C35D0A7
:102B10001C4800270068A968B846401A20F07F4684
:102B20002068B04215D82246361A0744E469107C62
:102B300068B182F81080EB6833B1D2E9050198479B
:102B400028B1FEF750FA02E0D2E905108847002CC0
:102B5000E6D129786878814206D1401CC0B26870FD
:102B6000022801D185F8018005486978183040F8BD
:102B70002170BDE8F0411420FDF7AEBDBDE8F08145
:102B8000380000200415014010B5144602004FF033
:102B900001000CD00846136806A24FF48071FDF7BF
:102BA0006DFF01462046BDE81040FEF735BD00210F
:102BB000216010BD5B253038645D000070B50C46A7
:102BC00005464FF48E71FFF74EFEA18AA068415C66
:102BD000A08A401CA082C5F81C1570BD1FB500223C
:102BE0008DF800208DF80810816801918275D0E978
:102BF0000012684690471FBD0078012801D10149A5
:102C0000887070475C0000202DE9FF470C460546A0
:102C10004FF40071FFF72DFE01274FF401780026D5
:102C200018B34FF4927949462846FFF717FEE0B1F2
:102C300049462846FFF717FEC5F80883A07E00B96D
:102C40006F6002208DF80000D5F88004C5F880047C
:102C50000390E07D8DF80800E0680190E675267627
:102C6000D4E900126846904727E004212846FFF780
:102C700000FE10B34FF484712846FFF7EFFDE0B17A
:102C800021462846FFF778FEE07D617E884214D118
:102C9000207E38B1617EE268E0752069E0602676CA
:102CA000667607E0A07E00B96F60C5F80883E67518
:102CB000617EE2682046FFF778FE4FF48E78414649
:102CC0002846FFF7CBFD88B1A08AA17D884204D2B7
:102CD00021462846FFF772FF08E041462846FFF7E5
:102CE000C2FDA17D11B12046FFF778FF4FF4A27815
:102CF00041462846FFF7B2FD002812D0414628463B
:102D0000FFF7B1FDA07E00B12F60E07D002808D064
:102D1000E675617EE26804B02046BDE8F047FFF743
:102D200044BEBDE8FF872DE9FF410C464FF4927782
:102D300005463946FFF7A3FD0026C0B139462846AF
:102D4000FFF7A2FD02208DF80000D5F88004C5F839
:102D500080040390D5F83C058DF80800E0680190E8
:102D6000E6752676D4E900126846904724E04FF4D1
:102D7000887739462846FFF782FDE8B1394628466C
:102D8000FFF782FDD5F83C05C1B2E07D884213D142
:102D9000207E60B1E268D5F8000220F02000C5F87E
:102DA0000002207EE0752069E060267601E0E6758D
:102DB000E2682046FFF7F9FD4FF4A277394628462E
:102DC000FFF75DFD68B139462846FFF75DFDE07D00
:102DD00038B1E675D5F83C05E268C1B22046FFF788
:102DE000E4FD4FF4907631462846FFF748FD002871
:102DF0000FD031462846FFF747FDA07D002808D0B8
:102E0000D5F84C0504B0C1B22046BDE8F041FFF74B
:102E1000E5BEBDE8FF8100000A4A10B553789478FA
:102E2000591CC9B28C4200D1002114788C4201D1C6
:102E3000002010BD0170506803EB430100EBC1009E
:102E400010BD000048000020FEF72CBA0100000071
:102E5000D0070000070000000D121314030E0F101E
:102E6000B8000020D8000020040100200300030067
:102E7000ED1200000E000300ED1200000F00030031
:102E8000ED12000010000300ED12000000000050E1
:102E900001000000D007000007000000B001002082
:102EA00003000000FFFFFFFFFFFFFFFFFFFFFFFF2B
:102EB000FFFFFFFF00000000000000000000D6013F
:102EC00007010000290000000100000001000000CF
:102ED00001000000010000000100000001000000EE
:102EE000010000000200000000404040404040401F
:102EF00040404141414141404040404040404040CD
:102F00004040404040404040400502020202020270
:102F100002020202020202020220202020202020BF
:102F200020202002020202020202909090909090D3
:102F30001010101010101010101010101010101091
:102F40001010101002020202020288888888888805
:102F500008080808080808080808080808080808F1
:102F6000080808080202020240000000E92E0000E2
:102F70004F766572666C6F770D0A00009C2F00001B
:102F80000000002070000000AC0A00000C300000BF
:102F90007000002078260000BC0A0000000000003D
:102FA0000000000000000000000000000000000021
:102FB0000000000000000000000000000000000011
:102FC0000000000000000000000000000000000001
:102FD00000000000000000000000000000000000F1
:102FE00000000000000000000000000000000000E1
:102FF0000000000000000000000000000020004071
:0C30000000000000702F00000090D003C2
:0400000500000401F2
:00000001FF
