:020000040000FA
:10000000F8250020150400001D0400001F04000056
:10001000210400002304000025040000000000006B
:1000200000000000000000000000000027040000A5
:1000300029040000000000002B0400002D04000033
:100040002F0400002F040000D10900002F0400003D
:100050002F0400002F0400002F0400009D05000065
:10006000850900002F0400002F0400002F04000069
:100070002F0400002F0400002F0400002F040000B4
:100080002F040000790500002F0400002F04000059
:10009000E50600002F0400002F0400002F040000DC
:1000A0002F0400002F0400002F0400002F04000084
:1000B0002F0400002F0400000000000000000000DA
:1000C0002F0400002F0400002F0400002F04000064
:1000D0002F0400002F0400002F0400000000000087
:1000E0000000000000000000000000000000000010
:1000F0000000000000000000000000000000000000
:1001000000000000000000000000000000000000EF
:1001100000000000000000000000000000000000DF
:10040000DFF80CD000F066F80048004771130000D8
:10041000F82500200648804706480047FEE7FEE72B
:10042000FEE7FEE7FEE7FEE7FEE7FEE7FEE7FEE7A4
:10043000E906000001040000004870475C28000045
:1004400040EA01039B0703D009E008C9121F08C056
:10045000042AFAD203E011F8013B00F8013B521ED6
:10046000F9D27047421C10F8011B0029FBD1801AF9
:1004700070472DE9F05F0546002092469B4688466E
:100480000646814640241BE0284641464746224610
:1004900000F041F853465A46C01A914110D3114614
:1004A0001846224600F028F82D1A67EB01084F463F
:1004B00022460120002100F01FF817EB00094E41F1
:1004C000201EA4F10104DFDC484631462A4643469B
:1004D000BDE8F09F064C074D06E0E06840F00103E0
:1004E00094E8070098471034AC42F6D3FFF78CFF2E
:1004F0006C2800008C280000202A04DB203A00FA37
:1005000002F1002070479140C2F1200320FA03F36A
:10051000194390407047202A04DB203A21FA02F068
:100520000021704721FA02F3D040C2F1200291402D
:1005300008431946704700F01F020121914040090D
:10054000800000F1E020C0F88012704700F01F0228
:10055000012191404009800000F1E020C0F8001125
:10056000704700F01F02012191404009800000F116
:10057000E020C0F80012704707480021C0F8401181
:10058000C0F84411C0F84811C0F84C11C0F800116F
:10059000C0F8041101F064BF001001402DE9FE43D2
:1005A0004FF48278404601F061FD4C4F00254C4CE1
:1005B000012600B3404601F061FD94F82E0010B111
:1005C00094F82F10D1B18DF8005061680191218904
:1005D000ADF80810E26832B1218B6183626021813D
:1005E000E56010B102E0257400E03E6021686846D5
:1005F000884784F82F5094F82E0060B34FF480772A
:10060000384601F033FD30B3384601F037FD628BD8
:1006100094F82D108A420AD9A2EB010080B26083BF
:100620002289A2EB0000626802EB400005E007D1DE
:10063000E06828B184F82F60658301F0D1FC04E004
:100640008A4202D184F82F606583404601F016FD8E
:100650002248001D06604FF48877384601F006FDF9
:1006600048B1384601F00AFD257402208DF80000DB
:100670002168684688474FF48A77384601F0F6FCCF
:1006800028B1384601F0FAFC2574BDE8FE834FF02E
:1006900000484FF48C7967691DE000BFB7FA87F016
:1006A00028FA00F109EB80058F43284601F0DEFCB3
:1006B00088B1284601F0E2FCA5F58C75E8088DF8B4
:1006C000040045F38000401C8DF800608DF80500A3
:1006D000216868468847002FE0D1D6E700700040C7
:1006E0008000002001F058BEF0B598480023021D9C
:1006F00001780125101D4FF08056062907D1147886
:10070000240704D10478C4F30314032C02D006296F
:1007100004D00FE08F4F8E4C7C670EE014782407D6
:1007200008D10478C4F30314032C06D0042C04D09D
:10073000052C02D0062907D00EE0D6F84442864F99
:10074000C4F342343C6002E01478240704D10478F6
:10075000C4F30314032C02D0062906D011E07F4C09
:10076000276827F0807727600EE01478240708D1E7
:100770000478C4F30314032C06D0042C04D0052CF5
:1007800002D006290AD011E04FF08044C4F80C31A1
:10079000C4F81031704C241F236002E01478240741
:1007A00004D10478C4F30314032C02D0062905D025
:1007B0000CE0694F032464373C600AE01478240796
:1007C00004D10478C4F30314032C02D006290DD0FD
:1007D00014E0634F05243C60614C78342560604C24
:1007E000083423603F243F1D3C6002E01478240756
:1007F00004D10478C4F30314052C02D0062957D081
:1008000068E058490968584A11605649091D096845
:10081000121D1160534908310968121D11605149B8
:100820000C310968121D11604E4910310968121D02
:1008300011604C4914310968121D11604949183181
:100840000968494A2032116046491C310968121D65
:100850001160444920310968121D11604149243159
:100860000968121D11603F4928310968121D116085
:100870003C492C310968121D11603A493031096830
:10088000394A40321160374934310968121D11600C
:10089000344938310968121D116032493C31096808
:1008A000121D11602F4940310968121D116002E0CC
:1008B000117809070ED10078C0F30310032803D084
:1008C000042801D0052805D1D6F85802274900F0A0
:1008D0004F00086021487438016841F470010160DC
:1008E000BFF34F8FBFF36F8F4FF01021D1F800028D
:1008F000002803DBD1F80402002822DA1C4A156024
:100900001C480468002CFCD01524C1F8004205687E
:10091000002DFCD0C1F8044201680029FCD013600E
:1009200001680029FCD0BFF34F8F0C48F0380168F4
:10093000114A01F4E06111430160BFF34F8F00BF22
:10094000FDE70F490D480860F0BD0000E00F00F022
:100950000DF0ADBA00C007403C050040FCED00E0E2
:10096000105600400404001020C50040E40E004072
:1009700004E5014000E401400400FA050090D003C2
:10098000540000202DE9F84300250F4C04274FF4B4
:10099000A078BE034FEA050908EB850006FA05F1C9
:1009A00022585AB1D4F804230A4207D044F80090E0
:1009B0002158064A00915168126890476D1CEDB2AB
:1009C000BD42E9D3BDE8F88300800040B0000020BC
:1009D0000448017F04480029024901D001F051BEBA
:1009E00001F0C0BDBC000020002000400FB41CB5C9
:1009F0000246002007AC00290BD0491ECDE900219A
:100A0000054B6A462146069800F018F8009A002126
:100A100011701CBC5DF814FB9F0E000002E008C8BA
:100A2000121F08C1002AFAD170477047002001E068
:100A300001C1121F002AFBD1704700002DE9FF4FB2
:100A40008DB00F460546002606E025280BD0DDE9CF
:100A50000F1290476D1C761C28780028F5D111B034
:100A60003046BDE8F08F0024A246A1460122EC49A1
:100A700000E0044315F8013F203B02FA03F008426E
:100A8000F7D128782A2810D06FF02F022878A0F10B
:100A90003001092914D80AEB8A0102EB410144F024
:100AA000020400EB010A6D1CF0E701CF5FEA000AC7
:100AB00003D544F40054CAF1000A44F002046D1C4A
:100AC00028782E2817D115F8010F44F004042A289D
:100AD0000ED06FF02F022878A0F1300109290AD832
:100AE00009EB890102EB410100EB01096D1CF2E702
:100AF00057F8049B6D1C28786C280FD006DC4C2816
:100B000017D068280DD06A2814D104E0742810D0BA
:100B10007A280FD10DE044F400140AE044F4801464
:100B200001E044F440146978814202D104F5801454
:100B30006D1C6D1C2A786E2A1FD00CDC632A31D004
:100B400004DC002A8BD0582A11D1A3E0642A68D093
:100B5000692A0CD165E0732A2ED004DC6F2A73D089
:100B6000702A04D19BE0752A6FD0782A6ED0104687
:100B7000DDE90F129047761C50E1C4F302500228C1
:100B800006D0032809D0042801CF09D0066045E12A
:100B900001CFF117C0E9006140E101CF06803DE1DE
:100BA00006703BE117F8040B8DF8000000208DF86B
:100BB0000100EB46012003E057F804BB4FF0FF3083
:100BC00061074FF0000102D40DE008F101018846F1
:100BD00049450FDA8045F8DB1BF808100029F4D1ED
:100BE00008E008F1010188468142FADB1BF8081091
:100BF0000029F6D1DDE90F23AAEB08008146214642
:100C000000F036F9304400EB080604E0DDE90F128D
:100C10001BF8010B9047B8F10108F7D2214648466E
:100C2000F7E00A21C4F302534FF0000B0891022BA6
:100C300004D001CFC117032B09D00AE0FF1D27F014
:100C40000707F7E8020108E032E01FE020E000B209
:100C5000C117042B01D140B2C117031E71F100036B
:100C600007DA4FF0000CD0EB0C006CEB01012D23E8
:100C700002E0230504D52B238DF82430012303E063
:100C8000E30701D02023F7E7984658E00A2110E057
:100C900010210EE010204FF0000B08900CE0102106
:100CA0004FF0000B44F004044FF00809089103E0F2
:100CB00008214FF0000B0891C4F30253022B04D01B
:100CC00001CF0021032B06D006E0FF1D27F0070708
:100CD000F7E8020103E080B2042B00D1C0B24FF06C
:100CE000000823072BD5702A07D0DDF820C08CF030
:100CF000100C5CEA0B0C05D00EE040238DF824307C
:100D0000012308E050EA010306D030238DF8243097
:100D10008DF8252002239846DDF820C08CF0080CC1
:100D20005CEA0B0C0BD150EA010301D1630706D535
:100D300030238DF824304FF00108A9F10109582A19
:100D400004D038A20B9208AA0A920BE03AA2F9E763
:100D50005B46089AFFF78DFB0B9B9B5C0A9A521E21
:100D60000A92137050EA0102F2D10A98ADEB00002A
:100D700000F1200B600702D524F4803401E04FF02D
:100D80000109D94502DDA9EB0B0000E0002000EBD2
:100D90000B0141440890AAEB010AE00306D4DDE907
:100DA0000F232146504600F063F806444FF0000937
:100DB00008E009A911F80900DDE90F12904709F1CF
:100DC0000109761CC145F4DBE0030CD5DDE90F23F6
:100DD0002146504600F04CF8064404E0DDE90F12CD
:100DE00030209047761C0899481E08900029F5DCB1
:100DF00008E00A980A990078491C0A91DDE90F1267
:100E00009047761CBBF10001ABF1010BF1DC2146F0
:100E10005046DDE90F2300F019F806446D1C1BE66F
:100E200009280100303132333435363738396162C0
:100E30006364656600000000303132333435363784
:100E40003839414243444546000000002DE9F04155
:100E5000044600251E461746880404D405E039469A
:100E60002020B0476D1C641EF9D52846BDE8F081EE
:100E70002DE9F041044600251E469046C80301D5E1
:100E8000302700E02027880404D505E04146384695
:100E9000B0476D1C641EF9D52846BDE8F0814A684C
:100EA000002A06D00A68531C0B6010704868401E68
:100EB000486070470BA1012001F00CF800F064FFBE
:100EC00000F066FF0028FBD1BFF34F8F0B4801688D
:100ED0000B4A01F4E06111430160BFF34F8F00BF83
:100EE000FDE700004150505F4552524F523A455283
:100EF000524F523A466174616C0D0A000CED00E0ED
:100F00000400FA050EB500210091CDE901106A46F2
:100F100044F20100FFF7CEFF0EBD00F003B800F071
:100F200009B8000072B602480168491C01607047A8
:100F30003C00002003490868401E086000D162B6EA
:100F4000704700003C0000202DE9F041064608688B
:100F50000C46411C4FF0A0474FF0010506D005FAA2
:100F600000F1C7F80815206800F0A2FD6068411C78
:100F700002D0002100F093FD3079204901EB4010B0
:100F8000A169007F00283068C0F8241525D0607D55
:100F9000227D31681043C1F86C05D4E90012306835
:100FA000C0F80C15C0F8142524E0A068411C02D03C
:100FB000002100F074FDE068411C05D08540C7F8B1
:100FC0000855E06800F074FDD4E902123068C0F8FA
:100FD0000825C0F81015BDE8F081607D217D3268DC
:100FE0000843C2F86C05D4E900123068C0F8142533
:100FF000C0F80C15207D0128D7D0ECE7BC000020FC
:10100000002901DA002070470268114401600120C4
:101010007047000070B5461C0D4601240020FFF704
:101020007CFF114A10682860D2E900109568081A00
:101030002B1A701C5B1C98420FD963B10B480C4BE8
:10104000294000681B6802EB810163F39F20C860A0
:101050001068401C1060002401E088191060002016
:10106000FFF75DFF204670BDDC010020B4270000C3
:1010700050000020034803C8814201D1012070477D
:1010800000207047DC0100202DE9F05F2648416810
:10109000F1B3DFF898B00E688146DBF8004087684E
:1010A0008078E11B21F07F45ED1CB0B9DFF880802E
:1010B0004FF48030C8F84403C8F804031120FFF748
:1010C0003AFA1120FFF742FA4FF0010AC8F800A0DF
:1010D0002F2000F089F989F802A0B54200D23546E8
:1010E000124BE8193C3320F07F401860DBF8001009
:1010F0005A46091B21F07F41001B20F07F40C91C8C
:1011000081420FD9106818602F2000F06DF900E0BF
:1011100004E0BDE8F05F1120FFF723BABDE8F05FFF
:1011200001F00EB8BDE8F09F1C000020041501403E
:10113000001001400E4910B50A784C780023A242F5
:1011400012D0521CD2B20A70022A00D10B70084A87
:101150000B78183252F8232002608868104420F07F
:101160007F408860012010BD0360002010BD00009A
:101170001C00002070B50E460446007918494FF453
:10118000A27501EB4010017F2068A1B14FF4887176
:1011900000F094FF4FF49071206800F08FFF4FF43F
:1011A0009271206800F08AFF2946206800F086FFCF
:1011B0000C49206809E04FF48E7100F06EFF29465B
:1011C000206800F06AFF08492068C0F8041320680E
:1011D00000F077F93146BDE8704000F056B90000E4
:1011E000BC000020100302008000020001218140A9
:1011F00003484068014201D0012070470020704739
:101200001400002001218140080300D00120704714
:101210002DE9F043264CA4F110092278D9F8048076
:1012200099F80350404694F801C0D9F8086031E0BD
:1012300002EB42036168521C01EBC301A378D2B2F6
:10124000934200D100220B78022B02D0032B21D134
:101250001DE003464F68194603E0B94203D00B4630
:10126000C969B9B1F9E7A9B18B4205D1C06918B90B
:10127000104E0125B56000260F68C969D96149B1D2
:101280000B683B440B6005E00174C06900E000217D
:101290000028F9D19445CBD1C9E9010689F803505A
:1012A000404502D00120BDE8F0830020FBE70000AC
:1012B0002C000020001001402DE9F0412A4F044687
:1012C000002607F11005D7F804803EE002D0204642
:1012D000E4691DE02878696800EB4002401CC0B258
:1012E00001EBC2012870AA78904200D12E700A78D2
:1012F0004868012A2BD1027C4ABB8A684260CA68CE
:1013000082600A69C26049698161F97801B1466009
:101310004368BA68DFF854C0991A21F07F416145EB
:1013200002D28268114406E0D11A826821F07F411E
:101330008A4202D9511A016000E00660466001212C
:1013400086600174C66101F06DF8002CBED128786A
:1013500069788842BED17968414502D00120BDE854
:10136000F0810020FBE700001C000020FFFF7F0051
:10137000002000F0B1F808B1FFF7C4FD002000F034
:1013800015FE08B1FFF7BEFD08A1032000F0A2FD85
:1013900000F062FF00F09CFF00F08CFF00F00EFEFA
:1013A00000F0F6FC0028FBD1F8E700004661426F30
:1013B0005F3130365F544F5543483A494E464F3AB5
:1013C0004661626F205368696E6F626920544F55A1
:1013D000434820427269636B203130362053616D7F
:1013E000706C652E0D0A000000283ED01F49204A6F
:1013F000096800BF00BF00BF00BF00BF00BF00BF43
:1014000000BF91422FD000BF00BF00BF00BF00BF90
:1014100000BF00BF00BF00BF00BF00BF00BF00BFD4
:1014200000BF00BF00BF00BF00BF00BF00BF00BFC4
:1014300000BF00BF00BF00BF00BF00BF00BF00BFB4
:1014400000BF00BF00BF00BF00BF00BF00BF00BFA4
:1014500000BF00BF00BF00BF00BF00BF00BF00BF94
:1014600000BF00BF00BF0138C3D170475400002047
:101470000024F40000F01F02012191404009800087
:1014800000F1E020C0F8801170474907090E0028DC
:1014900006DA00F00F0202F1E02282F8141D03E0E8
:1014A00000F1E02282F8001400F01F0201219140B7
:1014B0004009800000F1E020C0F88012C0F800115F
:1014C0007047000B40B270470121B1EB507F01D152
:1014D000012070470020704770B50D4C217809B18C
:1014E000852070BD00B90B480B49007800F0010061
:1014F00008604FF0E020D0F80001012510F0010F46
:1015000003D107210020FFF7C0FF2570002070BD28
:10151000080000208D270000780500402DE9F047E5
:101520000427144E814600244FF001080020FFF7E5
:10153000F4FC08FA04F5354203D02046FFF756FEC6
:1015400058B10020FFF7EBFC27B104F10104AE43D2
:10155000E4B2EBD13846BDE8F087074908FA04F059
:1015600000274A681043486089F800403846FFF772
:10157000D6FCEFE7FFFF0F00140000202DE9F0413B
:1015800014460D00074612D08CB10026FFF73AFE34
:1015900078B13846FFF72AFE68B1084800EBC7006B
:1015A000C0F81055C0F814453046BDE8F0810E2053
:1015B000FBE70726F8E70826F6E7000000F0014001
:1015C00070B5044601260025A640FFF71BFE18B1A2
:1015D0002046FFF70BFE18B102480660284670BD92
:1015E0000825FBE704F501400448017809B185208E
:1015F0007047012101700020704700001400002096
:101600002DE9F041254C064612200D46C4F808038A
:101610002348017C022918D0027C01464FF48078CF
:1016200091F82E10012A12D00222C4F804230127B7
:101630000774466005810022C26021B3458390F89B
:101640002D10304600F0CCFC25E0122002E0C268EC
:101650002AB10220C4F804031120BDE8F081C6605D
:10166000058361B94746384600F000FD0028FAD0EE
:10167000384600F003FD2946304600F0B1FC022058
:10168000C4F8040307E02946304600F0A9FC4046B0
:1016900000F0F4FC27600020DFE70000007000404D
:1016A0008000002070B50F4A05460C46107C08B13A
:1016B000112070BD02EB4501087F18B912F82D0FFB
:1016C000401C1070E0790877207A48772146284638
:1016D00000F08EFC227AE179284600F0BDFC002063
:1016E00070BD0000800000202DE9F0411C4C054633
:1016F00094F82C0010B10820BDE8F08109B115B1B3
:1017000002E00720F8E7174D44F8101B1649287827
:101710000860091D68780860E878A07701272777B6
:101720000020207060776060104EE0776FF000401E
:10173000C6F808034FF4827000F0A0FCA9780720D7
:10174000FFF7A3FE0220C6F80403A07F10B101201A
:10175000C6F804030448F03807600020CCE7000016
:10176000800000208E270000F075004000700040CF
:10177000044890F82E0008B1002000E0042002493F
:1017800008447047800000200070004030B54FF4DE
:10179000803405688C4013B1C5F8044301E0C5F8F6
:1017A0000843006800EB8100C0F8402530BD000010
:1017B000016801220A600079034A00EB400002EB55
:1017C0008000022101727047B0000020F0B404686C
:1017D000049E40F20115D4F800728D40AF43C4F866
:1017E00000720468D4F800521D43C4F80052334616
:1017F000F0BCFFF7CBBF0000F8B504460D460079FA
:10180000204900EB400001EB8006307A08B1082047
:10181000F8BD3AB1326068687060002003464FF44A
:10182000A07709E00720F8BD226807EB800153503C
:101830005158401CC0B2009161798142F4D82068AF
:10184000E978000B40B2FFF720FE20686978D0F8F5
:10185000042561F30102C0F804252068A978D0F8B6
:10186000082561F30102C0F8082520682978D0F81E
:10187000102561F30302C0F810250120307200200A
:10188000F8BD0000B00000202DE9F04105460079C8
:10189000164F904607EB40140E46E07E10B108202C
:1018A000BDE8F081707F20772846FFF74DFB5FEAA7
:1018B000080060603169216003D0317F2846FFF75E
:1018C00059FC287907EB4010007F0028286801D0D8
:1018D000082100E00421C0F800150020E075207602
:1018E000A0750121E176A076DAE70000BC000020B7
:1018F0002DE9F047054600793F4E904606EB40142F
:101900000F46207F18B10846FFF7DEFD30B12846AC
:1019100000F074F820B11120BDE8F0871020FBE73B
:1019200084F81680A7600027A78228794FF0010865
:1019300006EB40143E46207F0028286825D04FF44F
:101940009079494600F0BAFB4FF4AC7A51462868CA
:1019500000F0B4FB2868A17DA268C0F84425C0F857
:1019600048152868C0F808806068F0B949462868BA
:1019700000F09FFB80465146286800F09AFB58EA29
:101980000001F3D058BBA7750FE04FF48E7A514693
:1019900000F083FB2868C0F808802146286800F022
:1019A000BBFD61684FF4807089B13046B4E75146A1
:1019B000286800F06DFB10B9A08A4845F7D1A08ACD
:1019C000484505D02146286800F0A6FD00E0814684
:1019D000A08AA17D8842EAD3A08A484501D10F267A
:1019E000D1E75146286800F053FB0028F9D0286859
:1019F000C0F80C80C7E70000BC0000200079044953
:101A000001EB4010807D002800D0012070470000CD
:101A1000BC00002070B5044600791149002601EB96
:101A2000401520682A7FC0F80065686888B1207971
:101A300001EB4010007F0028206801D0094901E037
:101A400008498C39C0F808132068FFF73AFDFFF702
:101A500011FD204600F038FBEE766E6070BD000090
:101A6000BC0000201003020070B541EA4201DDE92C
:101A700004564FF0A04441EA830141EA052104EBFA
:101A8000800041EA0641C0F8001770BD1CB5002176
:101A900000910B4601220191FFF7E6FF1CBD1CB52A
:101AA00000220B46009211460192FFF7DDFF1CBD9C
:101AB0001CB5002100910B46012201911146FFF750
:101AC000D3FF1CBD004870473D1B000030B5184CCB
:101AD000054689B0207828B16078854202D100207F
:101AE00009B030BD202213496846FEF7A9FC00204A
:101AF0008DF8140006200090082001900520039026
:101B0000072002904FF0EB7006900948001DFFF788
:101B100081FF0DB1002200E0074A05486946001D1B
:101B2000FFF7B2FE0028DBD1012020706570D6E7F8
:101B30004400002094270000552500002DE9F04FB7
:101B4000C1B00D004FF0000140914D984B991C46DB
:101B5000174601EB000B01D00A2000E00020804670
:101B600000F0FCFB00287CD16E46BCB9409840AA2E
:101B70003118284600F0B6FC002872D03846FEF72F
:101B800071FCC22800D9C220054640982A4630443C
:101B90003946FEF755FC4098284440904FF0200A03
:101BA000409901EB080231320DEB01050DEB020605
:101BB000002002E005F801AB401C4045FAD30027A5
:101BC0005C4508D305F801AB05F801AB05F801AB9E
:101BD00006F801AB2DE04B98844202D24A98005D92
:101BE00002E0211A4C98405C2B46814602460121B6
:101BF000880022FA00F000F00F00092801D93730E0
:101C000000E03030C1F1010C491E03F80C00EFD2A6
:101C10009D1C05F801ABFEF70FFC016811F80900E7
:101C200010F03E0F01D0484600E02E2006F8010BD0
:101C3000641C7F1C102FC3D30D2030700A207070DD
:101C400085F800A04099684641444331409100F036
:101C50008BFB30B100F082FB18B9002040905C454E
:101C60009ED341B02046BDE8F08F2DE9F043C7B0C8
:101C700000251C46904689464E9F459500F06EFB18
:101C800000287AD1459805AE311845AA484600F09B
:101C900029FC002835D0072F27D2DFE807F00412EF
:101CA0001B35424F5D004046FEF7DCFB054645987C
:101CB0002918FF2919D830442A464146FEF7C0FBAF
:101CC00013E045982368C0F5807130444246FEF722
:101CD0008DFE09E06068009045982368C0F580712A
:101CE00030444246FEF782FE0546294645A8FFF7E6
:101CF00087F9459978B3B1F5807F3ED805A800F003
:101D000033FB47B0BDE8F083D4E90101CDE9000120
:101D100045982368C0F5807130444246FEF766FE60
:101D2000E2E7201D07C88DE8070045982368C0F545
:101D3000807130444246FEF759FED5E7201D0FC89A
:101D40008DE80F0045982368C0F580713044424605
:101D5000FEF74CFEC8E710E004F1080001AD0FC823
:101D600085E80F006068009045982368C0F5807191
:101D700030444246FEF73AFEB6E70020C1E70000D5
:101D8000004870476B1C00000120FFF79FBE000059
:101D90002DE9F04F87B0FFF76DF918B1002007B0BB
:101DA000BDE8F08F454ED6E9014704EA070006EB8F
:101DB0008000A146641CC5680CE000BFC5F3891013
:101DC00000EB9550044404EA070006EB8000A146AE
:101DD000C568641CA807F1D005F003004FF0000BA4
:101DE000022805D0AA0A01A8C5F38313002153E0F5
:101DF00004EA070006EB800004F1010A0AEA07047E
:101E0000C268381B80004FEA9558001DC5F389133E
:101E1000804521D929490C3138B106EB840400F002
:101E2000FF0CA8EB00000C3404E00C46002108F085
:101E3000FF0C0846C0B2CDE90210CDE9004CD6F83F
:101E40001444C5F3C2005946A047404511D108F1DA
:101E500003080AEB98042AE0002106EB84000C300A
:101E60000090CDE901810391C5F3C200D6F8144476
:101E7000EAE760F38F1509EA070006EB8000C5600A
:101E800016E000BF04EA070C06EB8C0C491CDCF8DA
:101E90000CC040F804CB641C9942F3D3C5F3C200D4
:101EA0000093D6F8105401AB5946A84700B17460AE
:101EB000FFF7E0F880F0010071E70000DC0100208E
:101EC000034AFF23936000231360536000F054B86B
:101ED000DC0100202DE9F8430F4F88460446002519
:101EE00069462846BE68FFF795F8002812D00B48CF
:101EF0000021406861F38200009964F3C50001EAA3
:101F0000060265F3891007EB820268F39F20491CE3
:101F1000D0600091BDE8F883DC010020B427000008
:101F20002DE9F843124D884604460127914669463B
:101F30003846AE68FFF76EF8002817D00D4800212C
:101F4000806861F38200009964F3C50001EA06022B
:101F500067F3891005EB820268F39F20491CD0606B
:101F60000091314005EB8101C1F80C90BDE8F88388
:101F7000DC010020B4270000024A02F5826203C29D
:101F800070470000DC01002070B506460020FFF716
:101F90009DFD040008D1FFF795FD0546FFF7F0FE13
:101FA00032462946FFF78CFF204670BD02480021CB
:101FB000417081700846704740000020F1EE100A21
:101FC00020F09F00E1EE100ABFF35F8F034940202D
:101FD000C1F8800220BF40BF20BF704704E000E08E
:101FE000024A1060101D0160704700002C7600400E
:101FF00010B50A784B78302402F0030204EA031388
:102000001A438B784FF4E06404EA03231A43CB7835
:102010004FF4805404EA03331A430B794FF4E0245D
:1020200004EA03431A434B794FF4801404EA035340
:102030001A438B79240104EA03631A430301054818
:102040001844C0F81825CA79097AC0F81415C0F8E0
:10205000102510BD00700040030103481844C0F86B
:102060001425C0F810157047007000400249405810
:10207000002800D00120704700700040034908B5D7
:102080000844002202600068009008BD0070004013
:102090004058002800D00120704708B50022425067
:1020A0004058009008BDD0F80403084000D001203B
:1020B00070474058002800D00120704708B5002222
:1020C00042504058009008BD70B5034600791B4946
:1020D00001EB40101968027F4FF0FF30002AD1F861
:1020E0000C25D1F81465D1F80855D1F8104504D065
:1020F000C1F80C05C1F8140503E0C1F81405C1F8D6
:102100000C051968C1F80805C1F81005501C02D06B
:102110001046FFF7BBFC701C02D03046FFF7B6FC40
:10212000601C02D02046FFF7B1FC681C04D0284692
:10213000BDE87040FFF7AABC70BD0000BC000020E5
:1021400070B5012670044FF0E0210025C1F8800130
:10215000084C4010C4F84803C4F8080366602F20F8
:10216000FFF742F9A660044C2F20A560FFF73CF969
:10217000A57070BD001001401C00002070B5054620
:10218000C87D0C4600284FF4847128460AD0FFF71A
:1021900084FFD5F81805627EE1688854607E401C93
:1021A000607670BDFFF779FFD5F8180570BD1FB5D3
:1021B00001238DF800308DF808100192D0E900124B
:1021C000684690471FBD000070B50546007800289E
:1021D0001AD10A216868FFF713FA08B1FEF792FED8
:1021E0000A4E0BA103207268FFF79AFE002468686C
:1021F00012A130F914200320FFF792FE641C0A2C70
:10220000F5DB7068401C706070BD000000000020AD
:102210004661426F5F3130365F544F5543483A490B
:102220004E464F3A414443206576656E74206E7584
:102230006D6265723A2025640D0A00004661426FA6
:102240005F3130365F544F5543483A494E464F3A16
:1022500025640D0A000000000EB5134A07CA8DE878
:10226000070012490020FFF73FFA08B1FEF74AFEC7
:1022700069460020FFF716FA0020FFF785FE08B137
:10228000FEF740FE0A210A48FFF7BAF908B1FEF747
:1022900039FE07480A211430FFF7B2F9002801D0AF
:1022A000FEF730FE0EBD000084270000C9210000AB
:1022B00058000020054810B50078FFF781F9002884
:1022C00003D0BDE81040FEF71DBE10BD0000002089
:1022D0003EB5FFF789F908B1FEF714FE1B491C4A09
:1022E000D1E90201CDE9010103208DF8060001A921
:1022F0001648FFF781FA08B1FEF704FE134C206878
:10230000D0F81005134A0123C24000200146009076
:102310002046FFF75BFA2046FFF74AFA246804F5E7
:10232000A074FFF725FA05460B48FFF7F7F808B148
:10233000FEF7E8FD08482A4621460078FFF71EF917
:10234000002801D0FEF7DEFD3EBD0000742700002E
:1023500095230000006A1800000000200148FFF7E4
:102360004DBB00004800002070B50D460A460146EE
:1023700001240648FEF764F8EAB204490448FFF76E
:10238000B7FA00B10024204670BD0000DC00002038
:1023900048000020704700002DE9F84F204C002530
:1023A0006846D4E901B6FEF7C5FE8046FEF730FF69
:1023B0000746A946B8F1000F25D00023009ACC4665
:1023C000606819E007680146974202D9BA1A0260AC
:1023D00014E0C1F800C0D1F80C80D21BC8693B449E
:1023E0008A46B8F1000F07D0F71827F07F47C1E9F8
:1023F0000178CAF81C500D460028E3D160602846D9
:10240000FEF75AFF04E02846FEF756FF00B917B161
:102410005846FEF739FE84F80390BDE8F88F0000B7
:102420001C0000200D4B10B5596831B102680C68D2
:10243000A24204D8A21A0A60C161586010BD0B46BE
:1024400003E00B46C969121B21B10C689442F8D312
:10245000A41A0C600260C161D86110BD1C0000208C
:102460002DE9F0411D4D6C68002C35D01C4800272B
:102470000068A968B846401A20F07F462068B0423C
:1024800015D82246361A0744E469107C68B182F8F0
:102490001080EB6833B1D2E90501984728B1FEF707
:1024A00031FD02E0D2E905108847002CE6D12978F9
:1024B0006878814206D1401CC0B26870022801D100
:1024C00085F8018005486978183040F82170BDE82A
:1024D000F0411420FEF745B8BDE8F0811C00002053
:1024E0000415014010B5144602004FF001000CD055
:1024F0000846136806A24FF48071FEF777FA01468A
:102500002046BDE81040FEF77BBD0021216010BDD4
:102510005B253038645D000070B50C4605464FF40D
:102520008E71FFF7BAFDA18AA068415CA08A401CA9
:10253000A082C5F81C1570BD1FB500228DF80020C3
:102540008DF80810816801918275D0E90012684603
:1025500090471FBD0078012801D10149887070475C
:10256000440000202DE9FF470C4605464FF400715A
:10257000FFF799FD01274FF40178002618B34FF4B7
:10258000927949462846FFF783FDE0B1494628463F
:10259000FFF783FDC5F80883A07E00B96F600220B5
:1025A0008DF80000D5F88004C5F880040390E07D24
:1025B0008DF80800E0680190E6752676D4E90012EF
:1025C0006846904727E004212846FFF76CFD10B3CA
:1025D0004FF484712846FFF75BFDE0B121462846A1
:1025E000FFF7CCFDE07D617E884214D1207E38B1BA
:1025F000617EE268E0752069E0602676667607E035
:10260000A07E00B96F60C5F80883E675617EE26858
:102610002046FFF7CCFD4FF48E7841462846FFF761
:1026200037FD88B1A08AA17D884204D22146284680
:10263000FFF772FF08E041462846FFF72EFDA17D17
:1026400011B12046FFF778FF4FF4A27841462846A3
:10265000FFF71EFD002812D041462846FFF71DFD5A
:10266000A07E00B12F60E07D002808D0E675617E75
:10267000E26804B02046BDE8F047FFF798BDBDE82A
:10268000FF872DE9FF410C464FF492770546394606
:10269000FFF70FFD0026C0B139462846FFF70EFDB3
:1026A00002208DF80000D5F88004C5F8800403905E
:1026B000D5F83C058DF80800E0680190E6752676AF
:1026C000D4E900126846904724E04FF488773946F1
:1026D0002846FFF7EEFCE8B139462846FFF7EEFC46
:1026E000D5F83C05C1B2E07D884213D1207E60B1AF
:1026F000E268D5F8000220F02000C5F80002207E34
:10270000E0752069E060267601E0E675E268204623
:10271000FFF74DFD4FF4A27739462846FFF7C9FC75
:1027200068B139462846FFF7C9FCE07D38B1E67547
:10273000D5F83C05E268C1B22046FFF738FD4FF4FA
:10274000907631462846FFF7B4FC00280FD031467A
:102750002846FFF7B3FCA07D002808D0D5F84C052B
:1027600004B0C1B22046BDE8F041FFF7E5BEBDE8C8
:10277000FF8100000080004000040000000000070E
:102780000000000000000000020000020001010043
:1027900007000000FFFFFFFFFFFFFFFFFFFFFFFF3E
:1027A000FFFFFFFF00000000000000000000D60156
:1027B00007010000290000000100000001000000E6
:1027C0000100000001000000010000000100000005
:1027D0000100000002000000004040404040404036
:1027E00040404141414141404040404040404040E4
:1027F0004040404040404040400502020202020288
:1028000002020202020202020220202020202020D6
:1028100020202002020202020202909090909090EA
:1028200010101010101010101010101010101010A8
:10283000101010100202020202028888888888881C
:102840000808080808080808080808080808080808
:10285000080808080202020240000000D927000010
:102860004F766572666C6F770D0A00008C28000049
:1028700000000020580000001C0A0000E4280000AE
:1028800058000020A02500002C0A000000000000D5
:102890000000000000000000000000000000000038
:1028A0000000000000000000000000000000000028
:1028B0000000000000000000000000000000000018
:1028C0000000000000000000000000000000000008
:1028D0000000000000200040000000006028000010
:0428E0000090D00391
:0400000500000401F2
:00000001FF
